{
  "transactions": [
    {
      "hash": "0xbf4328e32d52e32873101c5332efbe14d946b6bfa912733e5d2867fab8bc843d",
      "transactionType": "CALL",
      "contractName": null,
      "contractAddress": "0x874d42bd583304f4ec5b98ac549a3ada0f7dcdb5",
      "function": "setSpokeChainConfig(uint256,address,uint32)",
      "arguments": [
        "11155420",
        "0x26f1B67F7f49626e998D5346Db0ddF5117BC2753",
        "40232"
      ],
      "transaction": {
        "from": "0x000ef5f21dc574226a06c76aae7060642a30eb74",
        "to": "0x874d42bd583304f4ec5b98ac549a3ada0f7dcdb5",
        "gas": "0x1faa6",
        "value": "0x0",
        "input": "0x903197c90000000000000000000000000000000000000000000000000000000000aa37dc00000000000000000000000026f1b67f7f49626e998d5346db0ddf5117bc27530000000000000000000000000000000000000000000000000000000000009d28",
        "nonce": "0x61",
        "chainId": "0x66eee"
      },
      "additionalContracts": [],
      "isFixedGasLimit": false
    }
  ],
  "receipts": [
    {
      "status": "0x1",
      "cumulativeGasUsed": "0x17ced",
      "logs": [
        {
          "address": "0x874d42bd583304f4ec5b98ac549a3ada0f7dcdb5",
          "topics": [
            "0x238399d427b947898edb290f5ff0f9109849b1c3ba196a42e35f00c50a54b98b"
          ],
          "data": "0x0000000000000000000000000000000000000000000000000000000000009d2800000000000000000000000026f1b67f7f49626e998d5346db0ddf5117bc2753",
          "blockHash": "0x1c5aeac89a77757fee0620e8614d437f3e78d99e2063cc67321be9cc473e8d23",
          "blockNumber": "0x55d0202",
          "transactionHash": "0xbf4328e32d52e32873101c5332efbe14d946b6bfa912733e5d2867fab8bc843d",
          "transactionIndex": "0x1",
          "logIndex": "0x0",
          "removed": false
        }
      ],
      "logsBloom": "0x00800000000000000000000000000000000000000000000000000000000000000000010000000000000000000000000000000000000000000800000000000000000000000000000000000000000200000000000000000000000000000000000000000000000000000000000000000000000000000000000000000000000000000000000000000000000000000000000000000000000000000000000000000000000000000000000000000000000000000000000000000000000002000000000000000000000000000000000000000000000000000000000000040000000000000000000000000000000000000000000000000000000000000000000000000000",
      "type": "0x2",
      "transactionHash": "0xbf4328e32d52e32873101c5332efbe14d946b6bfa912733e5d2867fab8bc843d",
      "transactionIndex": "0x1",
      "blockHash": "0x1c5aeac89a77757fee0620e8614d437f3e78d99e2063cc67321be9cc473e8d23",
      "blockNumber": "0x55d0202",
      "gasUsed": "0x17ced",
      "effectiveGasPrice": "0x5f5e100",
      "from": "0x000ef5f21dc574226a06c76aae7060642a30eb74",
      "to": "0x874d42bd583304f4ec5b98ac549a3ada0f7dcdb5",
      "contractAddress": null,
      "gasUsedForL1": "0x1321",
      "l1BlockNumber": "0x695e97"
    }
  ],
  "libraries": [],
  "pending": [],
  "returns": {},
  "timestamp": 1729359631,
  "chain": 421614,
  "commit": "8b6d2b6"
}