{
  "transactions": [
    {
      "hash": "0x444acec739078fea0243919bbf605b3477f42412ffd24f8e93f5422775e58674",
      "transactionType": "CALL",
      "contractName": null,
      "contractAddress": "0x8830a0373699902f8a8a4c1396151ceb2405b9a1",
      "function": "setSpokeChainConfig(uint256,address,uint32)",
      "arguments": [
        "84532",
        "0xdc66EdB808C3643A16F756Bcc27B239d0cA55b23",
        "40245"
      ],
      "transaction": {
        "from": "0x000ef5f21dc574226a06c76aae7060642a30eb74",
        "to": "0x8830a0373699902f8a8a4c1396151ceb2405b9a1",
        "gas": "0x1f8ec",
        "value": "0x0",
        "input": "0x903197c90000000000000000000000000000000000000000000000000000000000014a34000000000000000000000000dc66edb808c3643a16f756bcc27b239d0ca55b230000000000000000000000000000000000000000000000000000000000009d35",
        "nonce": "0x55",
        "chainId": "0x66eee"
      },
      "additionalContracts": [],
      "isFixedGasLimit": false
    }
  ],
  "receipts": [
    {
      "status": "0x1",
      "cumulativeGasUsed": "0x17bdf",
      "logs": [
        {
          "address": "0x8830a0373699902f8a8a4c1396151ceb2405b9a1",
          "topics": [
            "0x238399d427b947898edb290f5ff0f9109849b1c3ba196a42e35f00c50a54b98b"
          ],
          "data": "0x0000000000000000000000000000000000000000000000000000000000009d35000000000000000000000000dc66edb808c3643a16f756bcc27b239d0ca55b23",
          "blockHash": "0x36a3119a1ccf4ac3a307fcd3235a21cc3c72ed8a97e1e7964390d711d138fe1a",
          "blockNumber": "0x55cefe5",
          "transactionHash": "0x444acec739078fea0243919bbf605b3477f42412ffd24f8e93f5422775e58674",
          "transactionIndex": "0x1",
          "logIndex": "0x0",
          "removed": false
        }
      ],
      "logsBloom": "0x00000000000000000000000000000000000000000000000000000000000000000000000000000000000000000000000000000000000000000800000000000000000000000000000000000000000000000000000000000000000000000000000000000000200000000000000000000000000000000000000000000000000000000000000000000000000000000000000004000000000000000000000000000000000000000000000000000000000000000000000000000000000002000000000000000000000000000000000000000000000000000000000000040200000000000000000000000000000000000000000000000000000000000000000000000000",
      "type": "0x2",
      "transactionHash": "0x444acec739078fea0243919bbf605b3477f42412ffd24f8e93f5422775e58674",
      "transactionIndex": "0x1",
      "blockHash": "0x36a3119a1ccf4ac3a307fcd3235a21cc3c72ed8a97e1e7964390d711d138fe1a",
      "blockNumber": "0x55cefe5",
      "gasUsed": "0x17bdf",
      "effectiveGasPrice": "0x5f5e100",
      "from": "0x000ef5f21dc574226a06c76aae7060642a30eb74",
      "to": "0x8830a0373699902f8a8a4c1396151ceb2405b9a1",
      "contractAddress": null,
      "gasUsedForL1": "0x1213",
      "l1BlockNumber": "0x695e27"
    }
  ],
  "libraries": [],
  "pending": [],
  "returns": {},
  "timestamp": 1729358045,
  "chain": 421614,
  "commit": "8b6d2b6"
}