{
  "transactions": [
    {
      "hash": "0x486f7a0117d3526996429d8a34430aa88aa8580a289231ab5fba50c2f0c0e267",
      "transactionType": "CALL",
      "contractName": null,
      "contractAddress": "0x35698b8cfcfdec9ab873c4c18e5e4af1249dd775",
      "function": "setSpokeChainConfig(uint256,address,uint32)",
      "arguments": [
        "1513",
        "0x0fee4c356DEeF6567E95b6394420583CA1D1fEEa",
        "40315"
      ],
      "transaction": {
        "from": "0x000ef5f21dc574226a06c76aae7060642a30eb74",
        "to": "0x35698b8cfcfdec9ab873c4c18e5e4af1249dd775",
        "gas": "0x1db19",
        "value": "0x0",
        "input": "0x903197c900000000000000000000000000000000000000000000000000000000000005e90000000000000000000000000fee4c356deef6567e95b6394420583ca1d1feea0000000000000000000000000000000000000000000000000000000000009d7b",
        "nonce": "0x79",
        "chainId": "0x66eee"
      },
      "additionalContracts": [],
      "isFixedGasLimit": false
    }
  ],
  "receipts": [
    {
      "status": "0x1",
      "cumulativeGasUsed": "0x169c0",
      "logs": [
        {
          "address": "0x35698b8cfcfdec9ab873c4c18e5e4af1249dd775",
          "topics": [
            "0x238399d427b947898edb290f5ff0f9109849b1c3ba196a42e35f00c50a54b98b"
          ],
          "data": "0x0000000000000000000000000000000000000000000000000000000000009d7b0000000000000000000000000fee4c356deef6567e95b6394420583ca1d1feea",
          "blockHash": "0xad1e40858eaec33de651b3751fafe4e5d63511a47e852bf40da9ebb714d9f527",
          "blockNumber": "0x55f2061",
          "transactionHash": "0x486f7a0117d3526996429d8a34430aa88aa8580a289231ab5fba50c2f0c0e267",
          "transactionIndex": "0x1",
          "logIndex": "0x0",
          "removed": false
        }
      ],
      "logsBloom": "0x00000000000000000000000000000000000000000000000000000000000000000000000000000000000000000000000000000000000000000800000000000000000000000000000000000000000000000000000000000000000000000000000000000000000000000000000000000000000000000400000000000000000000000000000000000000000000000000000000000000040000000000000000000000000000000000000000000000000000000000000000000000000006000000000000000000000000000000000000000000000000000000000000040000000000000000000000000000000000000000000000000000000000000000000000000000",
      "type": "0x2",
      "transactionHash": "0x486f7a0117d3526996429d8a34430aa88aa8580a289231ab5fba50c2f0c0e267",
      "transactionIndex": "0x1",
      "blockHash": "0xad1e40858eaec33de651b3751fafe4e5d63511a47e852bf40da9ebb714d9f527",
      "blockNumber": "0x55f2061",
      "gasUsed": "0x169c0",
      "effectiveGasPrice": "0x5f5e100",
      "from": "0x000ef5f21dc574226a06c76aae7060642a30eb74",
      "to": "0x35698b8cfcfdec9ab873c4c18e5e4af1249dd775",
      "contractAddress": null,
      "gasUsedForL1": "0x0",
      "l1BlockNumber": "0x696c00"
    }
  ],
  "libraries": [],
  "pending": [],
  "returns": {},
  "timestamp": 1729408819,
  "chain": 421614,
  "commit": "5737486"
}