{
  "transactions": [
    {
      "hash": "0x0c78fa340d4329372e654cc2501c6d34a9dffcf4019ba14e086817da0bb48766",
      "transactionType": "CALL",
      "contractName": null,
      "contractAddress": "0x5d48ad1c41b32caf687716f871c4e46687605924",
      "function": "setSpokeChainConfig(uint256,address,uint32)",
      "arguments": [
        "84532",
        "0xae133BED32fB31E182D900AB482B8fC0defDa25D",
        "40245"
      ],
      "transaction": {
        "from": "0x000ef5f21dc574226a06c76aae7060642a30eb74",
        "to": "0x5d48ad1c41b32caf687716f871c4e46687605924",
        "gas": "0x1db19",
        "value": "0x0",
        "input": "0x903197c90000000000000000000000000000000000000000000000000000000000014a34000000000000000000000000ae133bed32fb31e182d900ab482b8fc0defda25d0000000000000000000000000000000000000000000000000000000000009d35",
        "nonce": "0x92",
        "chainId": "0x66eee"
      },
      "additionalContracts": [],
      "isFixedGasLimit": false
    }
  ],
  "receipts": [
    {
      "status": "0x1",
      "cumulativeGasUsed": "0x169c0",
      "logs": [
        {
          "address": "0x5d48ad1c41b32caf687716f871c4e46687605924",
          "topics": [
            "0x238399d427b947898edb290f5ff0f9109849b1c3ba196a42e35f00c50a54b98b"
          ],
          "data": "0x0000000000000000000000000000000000000000000000000000000000009d35000000000000000000000000ae133bed32fb31e182d900ab482b8fc0defda25d",
          "blockHash": "0x75d27d3fcaa545f511db9cb83e0af5785da692f6a0581198ddf2430da6041903",
          "blockNumber": "0x55f6faf",
          "transactionHash": "0x0c78fa340d4329372e654cc2501c6d34a9dffcf4019ba14e086817da0bb48766",
          "transactionIndex": "0x1",
          "logIndex": "0x0",
          "removed": false
        }
      ],
      "logsBloom": "0x00000000000000000000000000000000000000000000000000000000000000000000000000000000000000000000000000000000000000000800000000000000000000000000000000000000000000000000000000000000000000000000000000000000000000000000000000000000000000000000000000000000000000000000000000000000000000000000000000800000000000000000000000000000000000000000000000000000000000000000000000000000000002000000000000000000000000000000000000000000000000000000000000040000000000000000000000000000000000000000000000000000000000000800000000000000",
      "type": "0x2",
      "transactionHash": "0x0c78fa340d4329372e654cc2501c6d34a9dffcf4019ba14e086817da0bb48766",
      "transactionIndex": "0x1",
      "blockHash": "0x75d27d3fcaa545f511db9cb83e0af5785da692f6a0581198ddf2430da6041903",
      "blockNumber": "0x55f6faf",
      "gasUsed": "0x169c0",
      "effectiveGasPrice": "0x5f5e100",
      "from": "0x000ef5f21dc574226a06c76aae7060642a30eb74",
      "to": "0x5d48ad1c41b32caf687716f871c4e46687605924",
      "contractAddress": null,
      "gasUsedForL1": "0x0",
      "l1BlockNumber": "0x696de0"
    }
  ],
  "libraries": [],
  "pending": [],
  "returns": {},
  "timestamp": 1729415677,
  "chain": 421614,
  "commit": "5737486"
}