{
  "transactions": [
    {
      "hash": "0x4f69bf25c73df235476ee5fb64f615b3ac9008a27941f23bb46857d2d800da08",
      "transactionType": "CALL",
      "contractName": null,
      "contractAddress": "0xaf6d8b4577b61a3f389f96d9932156ea9632ccc8",
      "function": "setSpokeChainConfig(uint256,address,uint32)",
      "arguments": [
        "11155420",
        "0xcd055c8824Ef6E9306b1F707Ce2E327ae2145c5D",
        "40232"
      ],
      "transaction": {
        "from": "0x000ef5f21dc574226a06c76aae7060642a30eb74",
        "to": "0xaf6d8b4577b61a3f389f96d9932156ea9632ccc8",
        "gas": "0x1db46",
        "value": "0x0",
        "input": "0x903197c90000000000000000000000000000000000000000000000000000000000aa37dc000000000000000000000000cd055c8824ef6e9306b1f707ce2e327ae2145c5d0000000000000000000000000000000000000000000000000000000000009d28",
        "nonce": "0x6d",
        "chainId": "0x66eee"
      },
      "additionalContracts": [],
      "isFixedGasLimit": false
    }
  ],
  "receipts": [
    {
      "status": "0x1",
      "cumulativeGasUsed": "0x169e2",
      "logs": [
        {
          "address": "0xaf6d8b4577b61a3f389f96d9932156ea9632ccc8",
          "topics": [
            "0x238399d427b947898edb290f5ff0f9109849b1c3ba196a42e35f00c50a54b98b"
          ],
          "data": "0x0000000000000000000000000000000000000000000000000000000000009d28000000000000000000000000cd055c8824ef6e9306b1f707ce2e327ae2145c5d",
          "blockHash": "0x6435f212b7f34bf7cad24cb853e7e48ac3df37a2ae7c75e38e17a8d77ef419cc",
          "blockNumber": "0x55d36c9",
          "transactionHash": "0x4f69bf25c73df235476ee5fb64f615b3ac9008a27941f23bb46857d2d800da08",
          "transactionIndex": "0x1",
          "logIndex": "0x0",
          "removed": false
        }
      ],
      "logsBloom": "0x00000000000000100000000000000000000000000000000000000000000000000000000000000000000000000000000000000000000000000800000000000000000000000000000000000000000000000000000000000000000000000000000000000000000000000000000000000000000000000000000000000000000000000000000000000000400000000000000000000000000000000000000000000000000000000000000000000000000000000000000000000000000002000000000000000000000000000000000000000000000000000000000000040000000080000000000000000000000000000000000000000000000000000000000000000000",
      "type": "0x2",
      "transactionHash": "0x4f69bf25c73df235476ee5fb64f615b3ac9008a27941f23bb46857d2d800da08",
      "transactionIndex": "0x1",
      "blockHash": "0x6435f212b7f34bf7cad24cb853e7e48ac3df37a2ae7c75e38e17a8d77ef419cc",
      "blockNumber": "0x55d36c9",
      "gasUsed": "0x169e2",
      "effectiveGasPrice": "0x5f5e100",
      "from": "0x000ef5f21dc574226a06c76aae7060642a30eb74",
      "to": "0xaf6d8b4577b61a3f389f96d9932156ea9632ccc8",
      "contractAddress": null,
      "gasUsedForL1": "0x0",
      "l1BlockNumber": "0x695fda"
    }
  ],
  "libraries": [],
  "pending": [],
  "returns": {},
  "timestamp": 1729364266,
  "chain": 421614,
  "commit": "8b6d2b6"
}