{
  "transactions": [
    {
      "hash": "0x76cd0382406178e89c7e4b035abc21350a07e445649deddedbbdfa312538cd5e",
      "transactionType": "CALL",
      "contractName": null,
      "contractAddress": "0x1647c455e79dbff1fc6ae3be08235f7f1f455e12",
      "function": "setSpokeChainConfig(uint256,address,uint32)",
      "arguments": [
        "11155111",
        "0xF4E68f7b7Acd54947F33e475497Bf487489fD14f",
        "40161"
      ],
      "transaction": {
        "from": "0x000ef5f21dc574226a06c76aae7060642a30eb74",
        "to": "0x1647c455e79dbff1fc6ae3be08235f7f1f455e12",
        "gas": "0x1db29",
        "value": "0x0",
        "input": "0x903197c90000000000000000000000000000000000000000000000000000000000aa36a7000000000000000000000000f4e68f7b7acd54947f33e475497bf487489fd14f0000000000000000000000000000000000000000000000000000000000009ce1",
        "nonce": "0xa0",
        "chainId": "0x66eee"
      },
      "additionalContracts": [],
      "isFixedGasLimit": false
    }
  ],
  "receipts": [
    {
      "status": "0x1",
      "cumulativeGasUsed": "0x169cc",
      "logs": [
        {
          "address": "0x1647c455e79dbff1fc6ae3be08235f7f1f455e12",
          "topics": [
            "0x238399d427b947898edb290f5ff0f9109849b1c3ba196a42e35f00c50a54b98b"
          ],
          "data": "0x0000000000000000000000000000000000000000000000000000000000009ce1000000000000000000000000f4e68f7b7acd54947f33e475497bf487489fd14f",
          "blockHash": "0xb3111a6a5f1f8da68bc81f9ff1584f963d8554b8ee7b7e5d0bc5b9301ab79aca",
          "blockNumber": "0x55fbd8a",
          "transactionHash": "0x76cd0382406178e89c7e4b035abc21350a07e445649deddedbbdfa312538cd5e",
          "transactionIndex": "0x1",
          "logIndex": "0x0",
          "removed": false
        }
      ],
      "logsBloom": "0x00000000000000000000000000000000000000000000000000000000000000000000000000000000000000000000000000000000000000000800000000000000000000000000000000000000000000000000000000000000000000000000000000000000008000000000000000000000000000000000000000000000000000000000000000000000000000000000000000000400000000000000000000000000000000000000000000000000000000000000000000000000000002000000000000040000000000000000000000000000000000000000000000040000000000000000000000000000000000000000000000000000000000000000000000000000",
      "type": "0x2",
      "transactionHash": "0x76cd0382406178e89c7e4b035abc21350a07e445649deddedbbdfa312538cd5e",
      "transactionIndex": "0x1",
      "blockHash": "0xb3111a6a5f1f8da68bc81f9ff1584f963d8554b8ee7b7e5d0bc5b9301ab79aca",
      "blockNumber": "0x55fbd8a",
      "gasUsed": "0x169cc",
      "effectiveGasPrice": "0x5f5e100",
      "from": "0x000ef5f21dc574226a06c76aae7060642a30eb74",
      "to": "0x1647c455e79dbff1fc6ae3be08235f7f1f455e12",
      "contractAddress": null,
      "gasUsedForL1": "0x0",
      "l1BlockNumber": "0x696faf"
    }
  ],
  "libraries": [],
  "pending": [],
  "returns": {},
  "timestamp": 1729422240,
  "chain": 421614,
  "commit": "e0d67c1"
}