{
  "transactions": [
    {
      "hash": "0x5c7d2e4c82dc2c74d81a2965cca9eeff3b991a517b8307872361a79af5f7b6ff",
      "transactionType": "CALL",
      "contractName": null,
      "contractAddress": "0x67ccd953a5b531a99ab31e9408d18e70ef9d8fb8",
      "function": "setSpokeChainConfig(uint256,address,uint32)",
      "arguments": [
        "1513",
        "0xb0744daaf6E84855C3551CDfbCec5892A8892B86",
        "40315"
      ],
      "transaction": {
        "from": "0x000ef5f21dc574226a06c76aae7060642a30eb74",
        "to": "0x67ccd953a5b531a99ab31e9408d18e70ef9d8fb8",
        "gas": "0x1db19",
        "value": "0x0",
        "input": "0x903197c900000000000000000000000000000000000000000000000000000000000005e9000000000000000000000000b0744daaf6e84855c3551cdfbcec5892a8892b860000000000000000000000000000000000000000000000000000000000009d7b",
        "nonce": "0x83",
        "chainId": "0x66eee"
      },
      "additionalContracts": [],
      "isFixedGasLimit": false
    }
  ],
  "receipts": [
    {
      "status": "0x1",
      "cumulativeGasUsed": "0x39c6d",
      "logs": [
        {
          "address": "0x67ccd953a5b531a99ab31e9408d18e70ef9d8fb8",
          "topics": [
            "0x238399d427b947898edb290f5ff0f9109849b1c3ba196a42e35f00c50a54b98b"
          ],
          "data": "0x0000000000000000000000000000000000000000000000000000000000009d7b000000000000000000000000b0744daaf6e84855c3551cdfbcec5892a8892b86",
          "blockHash": "0xb5ac78dc782f3fef5072ba38375e6462ee6c4082e95ad2156e5f3717850b7246",
          "blockNumber": "0x55f4ff9",
          "transactionHash": "0x5c7d2e4c82dc2c74d81a2965cca9eeff3b991a517b8307872361a79af5f7b6ff",
          "transactionIndex": "0x2",
          "logIndex": "0x1",
          "removed": false
        }
      ],
      "logsBloom": "0x00000000000000000000000000000000000000000000000000000000000000000000000000000000800000000000000000000000000000000800000000000000000000000000000000000000000000000000000000000000000000000000000000000000000000000080000000000000000000000000000000000000000000000000000000000000000000000000000000000000000000000000000000000000000000000000000000000000000000000400000000000000000002000000000000000000000000000000000000000000000000000000000000040000000000000000000000000000000000000000000000000000000000000000000000000000",
      "type": "0x2",
      "transactionHash": "0x5c7d2e4c82dc2c74d81a2965cca9eeff3b991a517b8307872361a79af5f7b6ff",
      "transactionIndex": "0x2",
      "blockHash": "0xb5ac78dc782f3fef5072ba38375e6462ee6c4082e95ad2156e5f3717850b7246",
      "blockNumber": "0x55f4ff9",
      "gasUsed": "0x169c0",
      "effectiveGasPrice": "0x5f5e100",
      "from": "0x000ef5f21dc574226a06c76aae7060642a30eb74",
      "to": "0x67ccd953a5b531a99ab31e9408d18e70ef9d8fb8",
      "contractAddress": null,
      "gasUsedForL1": "0x0",
      "l1BlockNumber": "0x696d18"
    }
  ],
  "libraries": [],
  "pending": [],
  "returns": {},
  "timestamp": 1729412948,
  "chain": 421614,
  "commit": "5737486"
}