{
  "transactions": [
    {
      "hash": "0xa215c0f8c52bd7b0339380e1691fbf036b7e54825fb6cd14547544d2b6a8463a",
      "transactionType": "CALL",
      "contractName": null,
      "contractAddress": "0xe319b04198e4192a28a4eccb7e2ea4a26e2193ce",
      "function": "setSpokeChainConfig(uint256,address,uint32)",
      "arguments": [
        "84532",
        "0x06A345728C9fBCbA5E3BD533330c0d19bcaCAbbd",
        "40245"
      ],
      "transaction": {
        "from": "0x000ef5f21dc574226a06c76aae7060642a30eb74",
        "to": "0xe319b04198e4192a28a4eccb7e2ea4a26e2193ce",
        "gas": "0x1f8ec",
        "value": "0x0",
        "input": "0x903197c90000000000000000000000000000000000000000000000000000000000014a3400000000000000000000000006a345728c9fbcba5e3bd533330c0d19bcacabbd0000000000000000000000000000000000000000000000000000000000009d35",
        "nonce": "0x5b",
        "chainId": "0x66eee"
      },
      "additionalContracts": [],
      "isFixedGasLimit": false
    }
  ],
  "receipts": [
    {
      "status": "0x1",
      "cumulativeGasUsed": "0x17bdf",
      "logs": [
        {
          "address": "0xe319b04198e4192a28a4eccb7e2ea4a26e2193ce",
          "topics": [
            "0x238399d427b947898edb290f5ff0f9109849b1c3ba196a42e35f00c50a54b98b"
          ],
          "data": "0x0000000000000000000000000000000000000000000000000000000000009d3500000000000000000000000006a345728c9fbcba5e3bd533330c0d19bcacabbd",
          "blockHash": "0xcdce3297a462966d56b1546d6f8782e37aa074b78168e8b13c2126ffbcc934e7",
          "blockNumber": "0x55cf506",
          "transactionHash": "0xa215c0f8c52bd7b0339380e1691fbf036b7e54825fb6cd14547544d2b6a8463a",
          "transactionIndex": "0x1",
          "logIndex": "0x0",
          "removed": false
        }
      ],
      "logsBloom": "0x00000000000000000000000000000000000000000000000000000000000000000000000000000000000000000000000000000000000000000800000000000000000000000000000000000000000000000000000000000000000000000000000000000000000000000000000000000000000000000000000000000000000000000000000000000000000000000000000000000000000000000000000000000000000000000000000000000000000000000000000000000000000002000004000000000001000000000000000000000000000000000000000000040000000000000000000000000000000000000000000000000000020000000000000000000000",
      "type": "0x2",
      "transactionHash": "0xa215c0f8c52bd7b0339380e1691fbf036b7e54825fb6cd14547544d2b6a8463a",
      "transactionIndex": "0x1",
      "blockHash": "0xcdce3297a462966d56b1546d6f8782e37aa074b78168e8b13c2126ffbcc934e7",
      "blockNumber": "0x55cf506",
      "gasUsed": "0x17bdf",
      "effectiveGasPrice": "0x5f5e100",
      "from": "0x000ef5f21dc574226a06c76aae7060642a30eb74",
      "to": "0xe319b04198e4192a28a4eccb7e2ea4a26e2193ce",
      "contractAddress": null,
      "gasUsedForL1": "0x1213",
      "l1BlockNumber": "0x695e49"
    }
  ],
  "libraries": [],
  "pending": [],
  "returns": {},
  "timestamp": 1729358490,
  "chain": 421614,
  "commit": "8b6d2b6"
}