{
  "transactions": [
    {
      "hash": "0x6155da1a40b7685cfecb66b12f9173f9e440bcb62693b44e8740f496a9e3180a",
      "transactionType": "CALL",
      "contractName": null,
      "contractAddress": "0xba397efef3914ab025f7f5706fade61f240a9ebc",
      "function": "setSpokeChainConfig(uint256,address,uint32)",
      "arguments": [
        "11155111",
        "0x298113912f64c03C1EF56Fe0331357C36B8dC37a",
        "40161"
      ],
      "transaction": {
        "from": "0x000ef5f21dc574226a06c76aae7060642a30eb74",
        "to": "0xba397efef3914ab025f7f5706fade61f240a9ebc",
        "gas": "0x21140",
        "value": "0x0",
        "input": "0x903197c90000000000000000000000000000000000000000000000000000000000aa36a7000000000000000000000000298113912f64c03c1ef56fe0331357c36b8dc37a0000000000000000000000000000000000000000000000000000000000009ce1",
        "nonce": "0x1b",
        "chainId": "0x515"
      },
      "additionalContracts": [],
      "isFixedGasLimit": false
    }
  ],
  "receipts": [
    {
      "status": "0x1",
      "cumulativeGasUsed": "0x11ca18",
      "logs": [
        {
          "address": "0xba397efef3914ab025f7f5706fade61f240a9ebc",
          "topics": [
            "0x238399d427b947898edb290f5ff0f9109849b1c3ba196a42e35f00c50a54b98b"
          ],
          "data": "0x0000000000000000000000000000000000000000000000000000000000009ce1000000000000000000000000298113912f64c03c1ef56fe0331357c36b8dc37a",
          "blockHash": "0x29f2c03591697d160812938c39103da65b325c4d7c5f0a8418f3e1bf5f0ec95b",
          "blockNumber": "0x277232",
          "transactionHash": "0x6155da1a40b7685cfecb66b12f9173f9e440bcb62693b44e8740f496a9e3180a",
          "transactionIndex": "0xa",
          "logIndex": "0x1b",
          "removed": false
        }
      ],
      "logsBloom": "0x00000000000000000000000000000000000000000000000000000000000000000000000000010000000000000000000000000000000000000800000020000000000000000000000000000000004000000000000000000000000000000000000000000000000000000000000000000000000000000000000000000000000000000000000000000000000000000000000000000000000000000000000000000000000000000000000000000000000000000000000000000000000002000000000000000000000000000000000000000000000000000000000000040000000000000000000000000000000000000000000000000000000000000000000000000000",
      "type": "0x2",
      "transactionHash": "0x6155da1a40b7685cfecb66b12f9173f9e440bcb62693b44e8740f496a9e3180a",
      "transactionIndex": "0xa",
      "blockHash": "0x29f2c03591697d160812938c39103da65b325c4d7c5f0a8418f3e1bf5f0ec95b",
      "blockNumber": "0x277232",
      "gasUsed": "0x169e2",
      "effectiveGasPrice": "0xf433c",
      "from": "0x000ef5f21dc574226a06c76aae7060642a30eb74",
      "to": "0xba397efef3914ab025f7f5706fade61f240a9ebc",
      "contractAddress": null,
      "l1BaseFeeScalar": "0x7d0",
      "l1BlobBaseFee": "0x1",
      "l1BlobBaseFeeScalar": "0xdbba0",
      "l1Fee": "0x2d963b766",
      "l1GasPrice": "0xe3ef2934",
      "l1GasUsed": "0x640"
    }
  ],
  "libraries": [],
  "pending": [],
  "returns": {},
  "timestamp": 1729437567,
  "chain": 1301,
  "commit": "2c26584"
}