{
  "transactions": [
    {
      "hash": "0xafa06cba3619251906c2af92e5f76e0a8a52961703814a79273253294c6394f3",
      "transactionType": "CALL",
      "contractName": null,
      "contractAddress": "0x9f0a79c5a1fb5f7e2221ddda85362f97ff847f66",
      "function": "setSpokeChainConfig(uint256,address,uint32)",
      "arguments": [
        "11155111",
        "0xc8db794088542F878a734c4f23E22b04F498B80F",
        "40161"
      ],
      "transaction": {
        "from": "0x000ef5f21dc574226a06c76aae7060642a30eb74",
        "to": "0x9f0a79c5a1fb5f7e2221ddda85362f97ff847f66",
        "gas": "0x1f3ba",
        "value": "0x0",
        "input": "0x903197c90000000000000000000000000000000000000000000000000000000000aa36a7000000000000000000000000c8db794088542f878a734c4f23e22b04f498b80f0000000000000000000000000000000000000000000000000000000000009ce1",
        "nonce": "0xf",
        "chainId": "0x515"
      },
      "additionalContracts": [],
      "isFixedGasLimit": false
    }
  ],
  "receipts": [
    {
      "status": "0x1",
      "cumulativeGasUsed": "0x21532",
      "logs": [
        {
          "address": "0x9f0a79c5a1fb5f7e2221ddda85362f97ff847f66",
          "topics": [
            "0x238399d427b947898edb290f5ff0f9109849b1c3ba196a42e35f00c50a54b98b"
          ],
          "data": "0x0000000000000000000000000000000000000000000000000000000000009ce1000000000000000000000000c8db794088542f878a734c4f23e22b04f498b80f",
          "blockHash": "0x1b11629e2a23bdb978c3d1af1bafa0903cead77ecc057ae67cf855d3d23c75d5",
          "blockNumber": "0x274369",
          "transactionHash": "0xafa06cba3619251906c2af92e5f76e0a8a52961703814a79273253294c6394f3",
          "transactionIndex": "0x1",
          "logIndex": "0x0",
          "removed": false
        }
      ],
      "logsBloom": "0x00000000000000000000000000000000000000000000000000000000000000000000000000000000000000000000000000000000000000000800000000000000000000000000000000000000000000000000000000000000000000000000000000000000000000200000000000000000000000000000000000000000000000000000080000000000000000000000000000000000000000000000000000000000000000000000000000000000000000000000000000000000000002000000000000000000000000000000000000000000000000000000000000040000000000000000000000000000000000000000000000000000000000040000000000000000",
      "type": "0x2",
      "transactionHash": "0xafa06cba3619251906c2af92e5f76e0a8a52961703814a79273253294c6394f3",
      "transactionIndex": "0x1",
      "blockHash": "0x1b11629e2a23bdb978c3d1af1bafa0903cead77ecc057ae67cf855d3d23c75d5",
      "blockNumber": "0x274369",
      "gasUsed": "0x169cc",
      "effectiveGasPrice": "0xf433c",
      "from": "0x000ef5f21dc574226a06c76aae7060642a30eb74",
      "to": "0x9f0a79c5a1fb5f7e2221ddda85362f97ff847f66",
      "contractAddress": null,
      "l1BaseFeeScalar": "0x7d0",
      "l1BlobBaseFee": "0x1",
      "l1BlobBaseFeeScalar": "0xdbba0",
      "l1Fee": "0x1521cb5ba",
      "l1GasPrice": "0x69a8f8ae",
      "l1GasUsed": "0x640"
    }
  ],
  "libraries": [],
  "pending": [],
  "returns": {},
  "timestamp": 1729425589,
  "chain": 1301,
  "commit": "feb3b05"
}