{
  "transactions": [
    {
      "hash": "0xd42c569da267586f193b39b6bf6b0c8fb5a0d937539a92beba12dc9b417ffee3",
      "transactionType": "CALL",
      "contractName": null,
      "contractAddress": "0xfa426331194fd27ea6fb9949136705e6fd6337c7",
      "function": "execute(address,uint256,bytes,uint256)",
      "arguments": [
        "0x7F9a3050a572CF5198B7f61e6d9203B532072692",
        "0",
        "0x40c10f19000000000000000000000000fa426331194fd27ea6fb9949136705e6fd6337c70000000000000000000000000000000000000000000000008ac7230489e80000",
        "0"
      ],
      "transaction": {
        "from": "0x000ef5f21dc574226a06c76aae7060642a30eb74",
        "to": "0xfa426331194fd27ea6fb9949136705e6fd6337c7",
        "gas": "0x19de1",
        "value": "0x0",
        "input": "0x74420f4c0000000000000000000000007f9a3050a572cf5198b7f61e6d9203b532072692000000000000000000000000000000000000000000000000000000000000000000000000000000000000000000000000000000000000000000000000000000800000000000000000000000000000000000000000000000000000000000000000000000000000000000000000000000000000000000000000000000000000004440c10f19000000000000000000000000fa426331194fd27ea6fb9949136705e6fd6337c70000000000000000000000000000000000000000000000008ac7230489e8000000000000000000000000000000000000000000000000000000000000",
        "nonce": "0x96",
        "chainId": "0x66eee"
      },
      "additionalContracts": [],
      "isFixedGasLimit": false
    }
  ],
  "receipts": [
    {
      "status": "0x1",
      "cumulativeGasUsed": "0x293a8",
      "logs": [
        {
          "address": "0x7f9a3050a572cf5198b7f61e6d9203b532072692",
          "topics": [
            "0xddf252ad1be2c89b69c2b068fc378daa952ba7f163c4a11628f55a4df523b3ef",
            "0x0000000000000000000000000000000000000000000000000000000000000000",
            "0x000000000000000000000000fa426331194fd27ea6fb9949136705e6fd6337c7"
          ],
          "data": "0x0000000000000000000000000000000000000000000000008ac7230489e80000",
          "blockHash": "0xa2be287ad9a46c28cb95e112b3e673dddfe26506e82c2f7624dbde014c5a0d99",
          "blockNumber": "0x55f796a",
          "transactionHash": "0xd42c569da267586f193b39b6bf6b0c8fb5a0d937539a92beba12dc9b417ffee3",
          "transactionIndex": "0x2",
          "logIndex": "0x2",
          "removed": false
        }
      ],
      "logsBloom": "0x00000000000000000000000000000000000000000000000000000000000000000000000000000000000000000000000000000000000000000000000000000000000000000000000000000008000000000000000000000000001000000000000000000000020000000000000000000800000000000000000000080010000000000000000000000000000000000000000000000000000000000000000000000000000000000000040000000000004000000000000000000000000000000000000000000002000000000000000000000000000000000000400000000000000020000000000000000000000000000000000000000000000000000000004000000000",
      "type": "0x2",
      "transactionHash": "0xd42c569da267586f193b39b6bf6b0c8fb5a0d937539a92beba12dc9b417ffee3",
      "transactionIndex": "0x2",
      "blockHash": "0xa2be287ad9a46c28cb95e112b3e673dddfe26506e82c2f7624dbde014c5a0d99",
      "blockNumber": "0x55f796a",
      "gasUsed": "0x13ad8",
      "effectiveGasPrice": "0x5f5e100",
      "from": "0x000ef5f21dc574226a06c76aae7060642a30eb74",
      "to": "0xfa426331194fd27ea6fb9949136705e6fd6337c7",
      "contractAddress": null,
      "gasUsedForL1": "0x0",
      "l1BlockNumber": "0x696e14"
    }
  ],
  "libraries": [],
  "pending": [],
  "returns": {},
  "timestamp": 1729416515,
  "chain": 421614,
  "commit": "5737486"
}