{
  "transactions": [
    {
      "hash": "0x4c726be9f5c7dd4fcdbedfd1d2ea1a2caa249405162e1acae5018a5f9223c9d9",
      "transactionType": "CALL",
      "contractName": null,
      "contractAddress": "0xe90f36fde34d237645fc4fbb8bc7474e3de690f6",
      "function": "executeOnSpokeChain(uint32,address,bytes)",
      "arguments": [
        "40161",
        "0xe8b99bF4249D90C0eB900651F92485F7160A0513",
        "0x40c10f1900000000000000000000000053b01dc5dd36c1211cf29956a171d0ffd7deeb4d00000000000000000000000000000000000000000000003627e8f712373c0000"
      ],
      "transaction": {
        "from": "0x000ef5f21dc574226a06c76aae7060642a30eb74",
        "to": "0xe90f36fde34d237645fc4fbb8bc7474e3de690f6",
        "gas": "0x4f14f",
        "value": "0xb22240011f6b",
        "input": "0x43c3f6460000000000000000000000000000000000000000000000000000000000009ce1000000000000000000000000e8b99bf4249d90c0eb900651f92485f7160a05130000000000000000000000000000000000000000000000000000000000000060000000000000000000000000000000000000000000000000000000000000004440c10f1900000000000000000000000053b01dc5dd36c1211cf29956a171d0ffd7deeb4d00000000000000000000000000000000000000000000003627e8f712373c000000000000000000000000000000000000000000000000000000000000",
        "nonce": "0xa6",
        "chainId": "0x66eee"
      },
      "additionalContracts": [],
      "isFixedGasLimit": false
    }
  ],
  "receipts": [
    {
      "status": "0x1",
      "cumulativeGasUsed": "0x3adb3",
      "logs": [
        {
          "address": "0x4f7cd4da19abb31b0ec98b9066b9e857b1bf9c0e",
          "topics": [
            "0x61ed099e74a97a1d7f8bb0952a88ca8b7b8ebd00c126ea04671f92a81213318a"
          ],
          "data": "0x0000000000000000000000005df3a1cebbd9c8ba7f8df51fd632a9aef83088970000000000000000000000000000000000000000000000000000a13c68e56823",
          "blockHash": "0x987060be04f4a68c78a912f0782a5132e977340fa0325327f76736207cb90cf1",
          "blockNumber": "0x55fcff1",
          "transactionHash": "0x4c726be9f5c7dd4fcdbedfd1d2ea1a2caa249405162e1acae5018a5f9223c9d9",
          "transactionIndex": "0x1",
          "logIndex": "0x0",
          "removed": false
        },
        {
          "address": "0x4f7cd4da19abb31b0ec98b9066b9e857b1bf9c0e",
          "topics": [
            "0x07ea52d82345d6e838192107d8fd7123d9c2ec8e916cd0aad13fd2b60db24644"
          ],
          "data": "0x000000000000000000000000000000000000000000000000000000000000006000000000000000000000000000000000000000000000000000000000000000a000000000000000000000000000000000000000000000000000000000000000c0000000000000000000000000000000000000000000000000000000000000000100000000000000000000000053f488e93b4f1b60e8e83aa374dbe1780a1ee8a800000000000000000000000000000000000000000000000000000000000000000000000000000000000000000000000000000000000000000000000000000001000000000000000000000000000000000000000000000000000007cd88a91748",
          "blockHash": "0x987060be04f4a68c78a912f0782a5132e977340fa0325327f76736207cb90cf1",
          "blockNumber": "0x55fcff1",
          "transactionHash": "0x4c726be9f5c7dd4fcdbedfd1d2ea1a2caa249405162e1acae5018a5f9223c9d9",
          "transactionIndex": "0x1",
          "logIndex": "0x1",
          "removed": false
        },
        {
          "address": "0x6edce65403992e310a62460808c4b910d972f10f",
          "topics": [
            "0x1ab700d4ced0c005b164c0f789fd09fcbb0156d4c2041b8a3bfbcd961cd1567f"
          ],
          "data": "0x000000000000000000000000000000000000000000000000000000000000006000000000000000000000000000000000000000000000000000000000000002000000000000000000000000004f7cd4da19abb31b0ec98b9066b9e857b1bf9c0e000000000000000000000000000000000000000000000000000000000000017101000000000000000100009d27000000000000000000000000e90f36fde34d237645fc4fbb8bc7474e3de690f600009ce100000000000000000000000053b01dc5dd36c1211cf29956a171d0ffd7deeb4d47180b2170a8374ca77f3055005041bfabb83457c7d656b63595f44617bcc868000000000000000000000000e8b99bf4249d90c0eb900651f92485f7160a0513000000000000000000000000000000000000000000000000000000000000004400000000000000000000000000000000000000000000000000000000000000800000000000000000000000000000000000000000000000000000000000000044000000000000000000000000000000000000000000000000000000000000004440c10f1900000000000000000000000053b01dc5dd36c1211cf29956a171d0ffd7deeb4d00000000000000000000000000000000000000000000003627e8f712373c0000000000000000000000000000000000000000000000000000000000000000000000000000000000000000000000000000000000000000000000000000000000000000000000000000000016000301001101000000000000000000000000001e848000000000000000000000",
          "blockHash": "0x987060be04f4a68c78a912f0782a5132e977340fa0325327f76736207cb90cf1",
          "blockNumber": "0x55fcff1",
          "transactionHash": "0x4c726be9f5c7dd4fcdbedfd1d2ea1a2caa249405162e1acae5018a5f9223c9d9",
          "transactionIndex": "0x1",
          "logIndex": "0x2",
          "removed": false
        }
      ],
      "logsBloom": "0x00000000000000000000000000000000000000000000000000000000000000000000000000000000200000000000000000000000008000000000000000000000000000000000000000000000000000000000000000000000000000000000000000000000000000008200000000000000000000000000000000000000000000000000000000000020000000080000000000000000000000010000000000000000000000008000000000102000000000000000000000400000000440000000000000000000000000000000000000000000000000000000000000000000000000000000040000000000000000000000002000000000000000000000000000000000",
      "type": "0x2",
      "transactionHash": "0x4c726be9f5c7dd4fcdbedfd1d2ea1a2caa249405162e1acae5018a5f9223c9d9",
      "transactionIndex": "0x1",
      "blockHash": "0x987060be04f4a68c78a912f0782a5132e977340fa0325327f76736207cb90cf1",
      "blockNumber": "0x55fcff1",
      "gasUsed": "0x3adb3",
      "effectiveGasPrice": "0x5f5e100",
      "from": "0x000ef5f21dc574226a06c76aae7060642a30eb74",
      "to": "0xe90f36fde34d237645fc4fbb8bc7474e3de690f6",
      "contractAddress": null,
      "gasUsedForL1": "0x0",
      "l1BlockNumber": "0x69701a"
    }
  ],
  "libraries": [],
  "pending": [],
  "returns": {},
  "timestamp": 1729423708,
  "chain": 421614,
  "commit": "e0d67c1"
}