{
  "transactions": [
    {
      "hash": "0xe9dc2ff4e5383cfd13b6214b484a21ff094a9f463f041ada484444d28bc7df93",
      "transactionType": "CALL",
      "contractName": null,
      "contractAddress": "0xe90f36fde34d237645fc4fbb8bc7474e3de690f6",
      "function": "executeOnSpokeChain(uint32,address,bytes)",
      "arguments": [
        "40161",
        "0x8eA2c57C107682C50D77cd4D5517F8Dcf5E2EdE8",
        "0xce8075fa0000000000000000000000000000000000000000000000008ac7230489e80000"
      ],
      "transaction": {
        "from": "0x000ef5f21dc574226a06c76aae7060642a30eb74",
        "to": "0xe90f36fde34d237645fc4fbb8bc7474e3de690f6",
        "gas": "0x49209",
        "value": "0xb22240011f6b",
        "input": "0x43c3f6460000000000000000000000000000000000000000000000000000000000009ce10000000000000000000000008ea2c57c107682c50d77cd4d5517f8dcf5e2ede800000000000000000000000000000000000000000000000000000000000000600000000000000000000000000000000000000000000000000000000000000024ce8075fa0000000000000000000000000000000000000000000000008ac7230489e8000000000000000000000000000000000000000000000000000000000000",
        "nonce": "0xa8",
        "chainId": "0x66eee"
      },
      "additionalContracts": [],
      "isFixedGasLimit": false
    }
  ],
  "receipts": [
    {
      "status": "0x1",
      "cumulativeGasUsed": "0x3661d",
      "logs": [
        {
          "address": "0x4f7cd4da19abb31b0ec98b9066b9e857b1bf9c0e",
          "topics": [
            "0x61ed099e74a97a1d7f8bb0952a88ca8b7b8ebd00c126ea04671f92a81213318a"
          ],
          "data": "0x0000000000000000000000005df3a1cebbd9c8ba7f8df51fd632a9aef83088970000000000000000000000000000000000000000000000000000a136ef483a23",
          "blockHash": "0xa2c2bb5dcce028008c106fb12ab2b213e621d6abf2494e3ab6b802626c75a68c",
          "blockNumber": "0x55fd770",
          "transactionHash": "0xe9dc2ff4e5383cfd13b6214b484a21ff094a9f463f041ada484444d28bc7df93",
          "transactionIndex": "0x1",
          "logIndex": "0x0",
          "removed": false
        },
        {
          "address": "0x4f7cd4da19abb31b0ec98b9066b9e857b1bf9c0e",
          "topics": [
            "0x07ea52d82345d6e838192107d8fd7123d9c2ec8e916cd0aad13fd2b60db24644"
          ],
          "data": "0x000000000000000000000000000000000000000000000000000000000000006000000000000000000000000000000000000000000000000000000000000000a000000000000000000000000000000000000000000000000000000000000000c0000000000000000000000000000000000000000000000000000000000000000100000000000000000000000053f488e93b4f1b60e8e83aa374dbe1780a1ee8a800000000000000000000000000000000000000000000000000000000000000000000000000000000000000000000000000000000000000000000000000000001000000000000000000000000000000000000000000000000000007cd88a91748",
          "blockHash": "0xa2c2bb5dcce028008c106fb12ab2b213e621d6abf2494e3ab6b802626c75a68c",
          "blockNumber": "0x55fd770",
          "transactionHash": "0xe9dc2ff4e5383cfd13b6214b484a21ff094a9f463f041ada484444d28bc7df93",
          "transactionIndex": "0x1",
          "logIndex": "0x1",
          "removed": false
        },
        {
          "address": "0x6edce65403992e310a62460808c4b910d972f10f",
          "topics": [
            "0x1ab700d4ced0c005b164c0f789fd09fcbb0156d4c2041b8a3bfbcd961cd1567f"
          ],
          "data": "0x000000000000000000000000000000000000000000000000000000000000006000000000000000000000000000000000000000000000000000000000000001e00000000000000000000000004f7cd4da19abb31b0ec98b9066b9e857b1bf9c0e000000000000000000000000000000000000000000000000000000000000015101000000000000000300009d27000000000000000000000000e90f36fde34d237645fc4fbb8bc7474e3de690f600009ce100000000000000000000000053b01dc5dd36c1211cf29956a171d0ffd7deeb4d4ac801d0330ca5f04dd5d74930f62b2da749074f89f8e096e5bcd4059b0562ec0000000000000000000000008ea2c57c107682c50d77cd4d5517f8dcf5e2ede80000000000000000000000000000000000000000000000000000000000000024000000000000000000000000000000000000000000000000000000000000008000000000000000000000000000000000000000000000000000000000000000240000000000000000000000000000000000000000000000000000000000000024ce8075fa0000000000000000000000000000000000000000000000008ac7230489e80000000000000000000000000000000000000000000000000000000000000000000000000000000000000000000000000000000000000000000000000000000000000000000000000000000016000301001101000000000000000000000000001e848000000000000000000000",
          "blockHash": "0xa2c2bb5dcce028008c106fb12ab2b213e621d6abf2494e3ab6b802626c75a68c",
          "blockNumber": "0x55fd770",
          "transactionHash": "0xe9dc2ff4e5383cfd13b6214b484a21ff094a9f463f041ada484444d28bc7df93",
          "transactionIndex": "0x1",
          "logIndex": "0x2",
          "removed": false
        }
      ],
      "logsBloom": "0x00000000000000000000000000000000000000000000000000000000000000000000000000000000200000000000000000000000008000000000000000000000000000000000000000000000000000000000000000000000000000000000000000000000000000008200000000000000000000000000000000000000000000000000000000000020000000080000000000000000000000010000000000000000000000008000000000102000000000000000000000400000000440000000000000000000000000000000000000000000000000000000000000000000000000000000040000000000000000000000002000000000000000000000000000000000",
      "type": "0x2",
      "transactionHash": "0xe9dc2ff4e5383cfd13b6214b484a21ff094a9f463f041ada484444d28bc7df93",
      "transactionIndex": "0x1",
      "blockHash": "0xa2c2bb5dcce028008c106fb12ab2b213e621d6abf2494e3ab6b802626c75a68c",
      "blockNumber": "0x55fd770",
      "gasUsed": "0x3661d",
      "effectiveGasPrice": "0x5f5e100",
      "from": "0x000ef5f21dc574226a06c76aae7060642a30eb74",
      "to": "0xe90f36fde34d237645fc4fbb8bc7474e3de690f6",
      "contractAddress": null,
      "gasUsedForL1": "0x0",
      "l1BlockNumber": "0x697044"
    }
  ],
  "libraries": [],
  "pending": [],
  "returns": {},
  "timestamp": 1729424284,
  "chain": 421614,
  "commit": "e0d67c1"
}