{
  "transactions": [
    {
      "hash": "0x9d874faf5b490cfc6e3de95aa234512bf8f5f586d62c4d5296b76769383bfb33",
      "transactionType": "CALL",
      "contractName": null,
      "contractAddress": "0x9adc31b49cb51ab47fa9a87918e5824d8c4e7134",
      "function": "executeOnSpokeChain(uint32,address,bytes)",
      "arguments": [
        "40245",
        "0xbd856Ea0F5Acc0C1aF74B2b829c71940722850EF",
        "0x40c10f1900000000000000000000000067788e7944c8efbd819ad882003398ac2a59e70e0000000000000000000000000000000000000000000000008ac7230489e80000"
      ],
      "transaction": {
        "from": "0x000ef5f21dc574226a06c76aae7060642a30eb74",
        "to": "0x9adc31b49cb51ab47fa9a87918e5824d8c4e7134",
        "gas": "0x4f12f",
        "value": "0x527def336d63",
        "input": "0x43c3f6460000000000000000000000000000000000000000000000000000000000009d35000000000000000000000000bd856ea0f5acc0c1af74b2b829c71940722850ef0000000000000000000000000000000000000000000000000000000000000060000000000000000000000000000000000000000000000000000000000000004440c10f1900000000000000000000000067788e7944c8efbd819ad882003398ac2a59e70e0000000000000000000000000000000000000000000000008ac7230489e8000000000000000000000000000000000000000000000000000000000000",
        "nonce": "0x9a",
        "chainId": "0x66eee"
      },
      "additionalContracts": [],
      "isFixedGasLimit": false
    }
  ],
  "receipts": [
    {
      "status": "0x1",
      "cumulativeGasUsed": "0x3ad9b",
      "logs": [
        {
          "address": "0x4f7cd4da19abb31b0ec98b9066b9e857b1bf9c0e",
          "topics": [
            "0x61ed099e74a97a1d7f8bb0952a88ca8b7b8ebd00c126ea04671f92a81213318a"
          ],
          "data": "0x0000000000000000000000005df3a1cebbd9c8ba7f8df51fd632a9aef830889700000000000000000000000000000000000000000000000000004bf888cb938b",
          "blockHash": "0x9d6cdfc06dfed4b8cabfea7e6b559cef33f2d7943c3c53d8fb8ffafeb0b2a05d",
          "blockNumber": "0x55f81bb",
          "transactionHash": "0x9d874faf5b490cfc6e3de95aa234512bf8f5f586d62c4d5296b76769383bfb33",
          "transactionIndex": "0x1",
          "logIndex": "0x0",
          "removed": false
        },
        {
          "address": "0x4f7cd4da19abb31b0ec98b9066b9e857b1bf9c0e",
          "topics": [
            "0x07ea52d82345d6e838192107d8fd7123d9c2ec8e916cd0aad13fd2b60db24644"
          ],
          "data": "0x000000000000000000000000000000000000000000000000000000000000006000000000000000000000000000000000000000000000000000000000000000a000000000000000000000000000000000000000000000000000000000000000c0000000000000000000000000000000000000000000000000000000000000000100000000000000000000000053f488e93b4f1b60e8e83aa374dbe1780a1ee8a800000000000000000000000000000000000000000000000000000000000000000000000000000000000000000000000000000000000000000000000000000001000000000000000000000000000000000000000000000000000003cae878a9d8",
          "blockHash": "0x9d6cdfc06dfed4b8cabfea7e6b559cef33f2d7943c3c53d8fb8ffafeb0b2a05d",
          "blockNumber": "0x55f81bb",
          "transactionHash": "0x9d874faf5b490cfc6e3de95aa234512bf8f5f586d62c4d5296b76769383bfb33",
          "transactionIndex": "0x1",
          "logIndex": "0x1",
          "removed": false
        },
        {
          "address": "0x6edce65403992e310a62460808c4b910d972f10f",
          "topics": [
            "0x1ab700d4ced0c005b164c0f789fd09fcbb0156d4c2041b8a3bfbcd961cd1567f"
          ],
          "data": "0x000000000000000000000000000000000000000000000000000000000000006000000000000000000000000000000000000000000000000000000000000002000000000000000000000000004f7cd4da19abb31b0ec98b9066b9e857b1bf9c0e000000000000000000000000000000000000000000000000000000000000017101000000000000000100009d270000000000000000000000009adc31b49cb51ab47fa9a87918e5824d8c4e713400009d3500000000000000000000000067788e7944c8efbd819ad882003398ac2a59e70ee1b84a745be27c62b81003befb59c46658973c5f77d2f1093f83a285a515c692000000000000000000000000bd856ea0f5acc0c1af74b2b829c71940722850ef000000000000000000000000000000000000000000000000000000000000004400000000000000000000000000000000000000000000000000000000000000800000000000000000000000000000000000000000000000000000000000000044000000000000000000000000000000000000000000000000000000000000004440c10f1900000000000000000000000067788e7944c8efbd819ad882003398ac2a59e70e0000000000000000000000000000000000000000000000008ac7230489e80000000000000000000000000000000000000000000000000000000000000000000000000000000000000000000000000000000000000000000000000000000000000000000000000000000016000301001101000000000000000000000000001e848000000000000000000000",
          "blockHash": "0x9d6cdfc06dfed4b8cabfea7e6b559cef33f2d7943c3c53d8fb8ffafeb0b2a05d",
          "blockNumber": "0x55f81bb",
          "transactionHash": "0x9d874faf5b490cfc6e3de95aa234512bf8f5f586d62c4d5296b76769383bfb33",
          "transactionIndex": "0x1",
          "logIndex": "0x2",
          "removed": false
        }
      ],
      "logsBloom": "0x00000000000000000000000000000000000000000000000000000000000000000000000000000000200000000000000000000000008000000000000000000000000000000000000000000000000000000000000000000000000000000000000000000000000000008200000000000000000000000000000000000000000000000000000000000020000000080000000000000000000000010000000000000000000000008000000000102000000000000000000000400000000440000000000000000000000000000000000000000000000000000000000000000000000000000000040000000000000000000000002000000000000000000000000000000000",
      "type": "0x2",
      "transactionHash": "0x9d874faf5b490cfc6e3de95aa234512bf8f5f586d62c4d5296b76769383bfb33",
      "transactionIndex": "0x1",
      "blockHash": "0x9d6cdfc06dfed4b8cabfea7e6b559cef33f2d7943c3c53d8fb8ffafeb0b2a05d",
      "blockNumber": "0x55f81bb",
      "gasUsed": "0x3ad9b",
      "effectiveGasPrice": "0x5f5e100",
      "from": "0x000ef5f21dc574226a06c76aae7060642a30eb74",
      "to": "0x9adc31b49cb51ab47fa9a87918e5824d8c4e7134",
      "contractAddress": null,
      "gasUsedForL1": "0x0",
      "l1BlockNumber": "0x696e47"
    }
  ],
  "libraries": [],
  "pending": [],
  "returns": {},
  "timestamp": 1729417231,
  "chain": 421614,
  "commit": "5737486"
}