{
  "transactions": [
    {
      "hash": "0xfd34095cf5e9e01a3461c5e2d6159fd603fe83af0325ff133b971a5ada3248bb",
      "transactionType": "CREATE",
      "contractName": "HyperDriveIntegration",
      "contractAddress": "0x8ea2c57c107682c50d77cd4d5517f8dcf5e2ede8",
      "function": null,
      "arguments": [
        "0xfA8dB2177F1e1eE4327c9b9d1389b1173bC5A5e2"
      ],
      "transaction": {
        "from": "0x000ef5f21dc574226a06c76aae7060642a30eb74",
        "gas": "0xa3806",
        "value": "0x0",
        "input": "0x60a0604052348015600f57600080fd5b506040516108ef3803806108ef833981016040819052602c91603c565b6001600160a01b0316608052606a565b600060208284031215604d57600080fd5b81516001600160a01b0381168114606357600080fd5b9392505050565b6080516108576100986000396000818160400152818160970152818161021b01526102a501526108576000f3fe608060405234801561001057600080fd5b50600436106100365760003560e01c806304eb01481461003b578063ce8075fa1461007e575b600080fd5b6100627f000000000000000000000000000000000000000000000000000000000000000081565b6040516001600160a01b03909116815260200160405180910390f35b61009161008c366004610455565b610093565b005b60007f00000000000000000000000000000000000000000000000000000000000000006001600160a01b031663c55dae636040518163ffffffff1660e01b8152600401602060405180830381865afa1580156100f3573d6000803e3d6000fd5b505050506040513d601f19601f820116820180604052508101906101179190610496565b60405163095ea7b360e01b8152306004820152602481018490529091506001600160a01b0382169063095ea7b3906044016020604051808303816000875af1158015610167573d6000803e3d6000fd5b505050506040513d601f19601f8201168201806040525081019061018b91906104ba565b506040516323b872dd60e01b8152336004820152306024820152604481018390526001600160a01b038216906323b872dd906064016020604051808303816000875af11580156101df573d6000803e3d6000fd5b505050506040513d601f19601f8201168201806040525081019061020391906104ba565b5060405163095ea7b360e01b81526001600160a01b037f0000000000000000000000000000000000000000000000000000000000000000811660048301526024820184905282169063095ea7b3906044016020604051808303816000875af1158015610273573d6000803e3d6000fd5b505050506040513d601f19601f8201168201806040525081019061029791906104ba565b506000806001600160a01b037f00000000000000000000000000000000000000000000000000000000000000001663cba2e58d8580836320fc48816102db826103d1565b6040518263ffffffff1660e01b81526004016102f991815260200190565b606060405180830381865afa158015610316573d6000803e3d6000fd5b505050506040513d601f19601f8201168201806040525081019061033a919061052b565b6040908101518151606081018352338152600160208083019190915283519081018452600081528184015291516001600160e01b031960e087901b168152610387949392906004016105a7565b60408051808303816000875af11580156103a5573d6000803e3d6000fd5b505050506040513d601f19601f820116820180604052508101906103c9919061063e565b505050505050565b6000816001600160a01b031663b0d965806040518163ffffffff1660e01b815260040161026060405180830381865afa158015610412573d6000803e3d6000fd5b505050506040513d601f19601f8201168201806040525081019061043691906106d3565b610120015161044590426107de565b61044f9042610800565b92915050565b60006020828403121561046757600080fd5b5035919050565b6001600160a01b038116811461048357600080fd5b50565b80516104918161046e565b919050565b6000602082840312156104a857600080fd5b81516104b38161046e565b9392505050565b6000602082840312156104cc57600080fd5b815180151581146104b357600080fd5b604051610200810167ffffffffffffffff8111828210171561050e57634e487b7160e01b600052604160045260246000fd5b60405290565b80516001600160801b038116811461049157600080fd5b6000606082840312801561053e57600080fd5b506040516060810167ffffffffffffffff8111828210171561057057634e487b7160e01b600052604160045260246000fd5b60405261057c83610514565b815261058a60208401610514565b602082015261059b60408401610514565b60408201529392505050565b8481528360208201526001600160801b03831660408201526080606082015260018060a01b0382511660808201526020820151151560a082015260006040830151606060c084015280518060e085015260005b818110156106185760208184018101516101008784010152016105fa565b5060006101008286010152610100601f19601f8301168501019250505095945050505050565b6000806040838503121561065157600080fd5b505080516020909101519092909150565b60006080828403121561067457600080fd5b6040516080810167ffffffffffffffff811182821017156106a557634e487b7160e01b600052604160045260246000fd5b6040908152835182526020808501519083015283810151908201526060928301519281019290925250919050565b60006102608284031280156106e757600080fd5b5060006106f26104dc565b6106fb84610486565b815261070960208501610486565b602082015261071a60408501610486565b6040820152606084810151908201526080808501519082015260a0808501519082015260c0808501519082015260e08085015190820152610100808501519082015261012080850151908201526101408085015190820181905291506107836101608501610486565b6101608201526107966101808501610486565b6101808201526107a96101a08501610486565b6101a08201526107bc6101c08501610486565b6101c08201526107d0856101e08601610662565b6101e0820152949350505050565b6000826107fb57634e487b7160e01b600052601260045260246000fd5b500690565b8181038181111561044f57634e487b7160e01b600052601160045260246000fdfea26469706673582212203346f8d6ba38c376b439bad7fe3fcce01f132a68cc6b6ef041905174a71617af64736f6c634300081a0033000000000000000000000000fa8db2177f1e1ee4327c9b9d1389b1173bc5a5e2",
        "nonce": "0xb1",
        "chainId": "0xaa36a7"
      },
      "additionalContracts": [],
      "isFixedGasLimit": false
    },
    {
      "hash": "0x48ca379e53e0307db21a1ea43ce41848017b23fc4357e1d31fc85dc628360e57",
      "transactionType": "CALL",
      "contractName": null,
      "contractAddress": "0xe8b99bf4249d90c0eb900651f92485f7160a0513",
      "function": "approve(address,uint256)",
      "arguments": [
        "0x8eA2c57C107682C50D77cd4D5517F8Dcf5E2EdE8",
        "10000000000000000000"
      ],
      "transaction": {
        "from": "0x000ef5f21dc574226a06c76aae7060642a30eb74",
        "to": "0xe8b99bf4249d90c0eb900651f92485f7160a0513",
        "gas": "0x107c4",
        "value": "0x0",
        "input": "0x095ea7b30000000000000000000000008ea2c57c107682c50d77cd4d5517f8dcf5e2ede80000000000000000000000000000000000000000000000008ac7230489e80000",
        "nonce": "0xb2",
        "chainId": "0xaa36a7"
      },
      "additionalContracts": [],
      "isFixedGasLimit": false
    },
    {
      "hash": "0x5a62f8d7d53519a39187116699a7708222359caf1fc7d9804c908778e4fde73f",
      "transactionType": "CALL",
      "contractName": "HyperDriveIntegration",
      "contractAddress": "0x8ea2c57c107682c50d77cd4d5517f8dcf5e2ede8",
      "function": "openLongHyperDrive(uint256)",
      "arguments": [
        "10000000000000000000"
      ],
      "transaction": {
        "from": "0x000ef5f21dc574226a06c76aae7060642a30eb74",
        "to": "0x8ea2c57c107682c50d77cd4d5517f8dcf5e2ede8",
        "gas": "0x5928f",
        "value": "0x0",
        "input": "0xce8075fa0000000000000000000000000000000000000000000000008ac7230489e80000",
        "nonce": "0xb3",
        "chainId": "0xaa36a7"
      },
      "additionalContracts": [],
      "isFixedGasLimit": false
    }
  ],
  "receipts": [
    {
      "status": "0x1",
      "cumulativeGasUsed": "0x6234a3",
      "logs": [],
      "logsBloom": "0x00000000000000000000000000000000000000000000000000000000000000000000000000000000000000000000000000000000000000000000000000000000000000000000000000000000000000000000000000000000000000000000000000000000000000000000000000000000000000000000000000000000000000000000000000000000000000000000000000000000000000000000000000000000000000000000000000000000000000000000000000000000000000000000000000000000000000000000000000000000000000000000000000000000000000000000000000000000000000000000000000000000000000000000000000000000",
      "type": "0x2",
      "transactionHash": "0xfd34095cf5e9e01a3461c5e2d6159fd603fe83af0325ff133b971a5ada3248bb",
      "transactionIndex": "0x33",
      "blockHash": "0xcae2f7c13e3c39eacb78ac3e22b71628d298528d39b49a7d43eb9facbce9eeb0",
      "blockNumber": "0x696f48",
      "gasUsed": "0x7dce6",
      "effectiveGasPrice": "0xae9d976",
      "from": "0x000ef5f21dc574226a06c76aae7060642a30eb74",
      "to": null,
      "contractAddress": "0x8ea2c57c107682c50d77cd4d5517f8dcf5e2ede8"
    },
    {
      "status": "0x1",
      "cumulativeGasUsed": "0x62e8fe",
      "logs": [
        {
          "address": "0xe8b99bf4249d90c0eb900651f92485f7160a0513",
          "topics": [
            "0x8c5be1e5ebec7d5bd14f71427d1e84f3dd0314c0f7b2291e5b200ac8c7c3b925",
            "0x000000000000000000000000000ef5f21dc574226a06c76aae7060642a30eb74",
            "0x0000000000000000000000008ea2c57c107682c50d77cd4d5517f8dcf5e2ede8"
          ],
          "data": "0x0000000000000000000000000000000000000000000000008ac7230489e80000",
          "blockHash": "0xcae2f7c13e3c39eacb78ac3e22b71628d298528d39b49a7d43eb9facbce9eeb0",
          "blockNumber": "0x696f48",
          "transactionHash": "0x48ca379e53e0307db21a1ea43ce41848017b23fc4357e1d31fc85dc628360e57",
          "transactionIndex": "0x34",
          "logIndex": "0x3d",
          "removed": false
        }
      ],
      "logsBloom": "0x00000000000000000000000000000000000000000000000000000000000000000400000000020000000000000000000000000000000000000000000000200000000000000000000000000000000000000000000000000000000000000000000000000000000000000000000400000000000000000000000000000000000000000000000000000000000000000000000000000000000000000200000000000000020000000080000000000000000000000000000000000000000000000000001000000000000000000000000000000000002000000000000000000000040000000010000000000000000000000000000000000000008000000000000000000000",
      "type": "0x2",
      "transactionHash": "0x48ca379e53e0307db21a1ea43ce41848017b23fc4357e1d31fc85dc628360e57",
      "transactionIndex": "0x34",
      "blockHash": "0xcae2f7c13e3c39eacb78ac3e22b71628d298528d39b49a7d43eb9facbce9eeb0",
      "blockNumber": "0x696f48",
      "gasUsed": "0xb45b",
      "effectiveGasPrice": "0xae9d976",
      "from": "0x000ef5f21dc574226a06c76aae7060642a30eb74",
      "to": "0xe8b99bf4249d90c0eb900651f92485f7160a0513",
      "contractAddress": null
    },
    {
      "status": "0x1",
      "cumulativeGasUsed": "0x66f1cd",
      "logs": [
        {
          "address": "0xe8b99bf4249d90c0eb900651f92485f7160a0513",
          "topics": [
            "0x8c5be1e5ebec7d5bd14f71427d1e84f3dd0314c0f7b2291e5b200ac8c7c3b925",
            "0x0000000000000000000000008ea2c57c107682c50d77cd4d5517f8dcf5e2ede8",
            "0x0000000000000000000000008ea2c57c107682c50d77cd4d5517f8dcf5e2ede8"
          ],
          "data": "0x0000000000000000000000000000000000000000000000008ac7230489e80000",
          "blockHash": "0xcae2f7c13e3c39eacb78ac3e22b71628d298528d39b49a7d43eb9facbce9eeb0",
          "blockNumber": "0x696f48",
          "transactionHash": "0x5a62f8d7d53519a39187116699a7708222359caf1fc7d9804c908778e4fde73f",
          "transactionIndex": "0x35",
          "logIndex": "0x3e",
          "removed": false
        },
        {
          "address": "0xe8b99bf4249d90c0eb900651f92485f7160a0513",
          "topics": [
            "0xddf252ad1be2c89b69c2b068fc378daa952ba7f163c4a11628f55a4df523b3ef",
            "0x000000000000000000000000000ef5f21dc574226a06c76aae7060642a30eb74",
            "0x0000000000000000000000008ea2c57c107682c50d77cd4d5517f8dcf5e2ede8"
          ],
          "data": "0x0000000000000000000000000000000000000000000000008ac7230489e80000",
          "blockHash": "0xcae2f7c13e3c39eacb78ac3e22b71628d298528d39b49a7d43eb9facbce9eeb0",
          "blockNumber": "0x696f48",
          "transactionHash": "0x5a62f8d7d53519a39187116699a7708222359caf1fc7d9804c908778e4fde73f",
          "transactionIndex": "0x35",
          "logIndex": "0x3f",
          "removed": false
        },
        {
          "address": "0xe8b99bf4249d90c0eb900651f92485f7160a0513",
          "topics": [
            "0x8c5be1e5ebec7d5bd14f71427d1e84f3dd0314c0f7b2291e5b200ac8c7c3b925",
            "0x0000000000000000000000008ea2c57c107682c50d77cd4d5517f8dcf5e2ede8",
            "0x000000000000000000000000fa8db2177f1e1ee4327c9b9d1389b1173bc5a5e2"
          ],
          "data": "0x0000000000000000000000000000000000000000000000008ac7230489e80000",
          "blockHash": "0xcae2f7c13e3c39eacb78ac3e22b71628d298528d39b49a7d43eb9facbce9eeb0",
          "blockNumber": "0x696f48",
          "transactionHash": "0x5a62f8d7d53519a39187116699a7708222359caf1fc7d9804c908778e4fde73f",
          "transactionIndex": "0x35",
          "logIndex": "0x40",
          "removed": false
        },
        {
          "address": "0xe8b99bf4249d90c0eb900651f92485f7160a0513",
          "topics": [
            "0xddf252ad1be2c89b69c2b068fc378daa952ba7f163c4a11628f55a4df523b3ef",
            "0x0000000000000000000000008ea2c57c107682c50d77cd4d5517f8dcf5e2ede8",
            "0x000000000000000000000000fa8db2177f1e1ee4327c9b9d1389b1173bc5a5e2"
          ],
          "data": "0x0000000000000000000000000000000000000000000000008ac7230489e80000",
          "blockHash": "0xcae2f7c13e3c39eacb78ac3e22b71628d298528d39b49a7d43eb9facbce9eeb0",
          "blockNumber": "0x696f48",
          "transactionHash": "0x5a62f8d7d53519a39187116699a7708222359caf1fc7d9804c908778e4fde73f",
          "transactionIndex": "0x35",
          "logIndex": "0x41",
          "removed": false
        },
        {
          "address": "0xe8b99bf4249d90c0eb900651f92485f7160a0513",
          "topics": [
            "0x8c5be1e5ebec7d5bd14f71427d1e84f3dd0314c0f7b2291e5b200ac8c7c3b925",
            "0x000000000000000000000000fa8db2177f1e1ee4327c9b9d1389b1173bc5a5e2",
            "0x000000000000000000000000ff8afe6bb92eb9d8e80c607bbe5bbb78bf1201df"
          ],
          "data": "0x0000000000000000000000000000000000000000000000008ac7230489e80001",
          "blockHash": "0xcae2f7c13e3c39eacb78ac3e22b71628d298528d39b49a7d43eb9facbce9eeb0",
          "blockNumber": "0x696f48",
          "transactionHash": "0x5a62f8d7d53519a39187116699a7708222359caf1fc7d9804c908778e4fde73f",
          "transactionIndex": "0x35",
          "logIndex": "0x42",
          "removed": false
        },
        {
          "address": "0xe8b99bf4249d90c0eb900651f92485f7160a0513",
          "topics": [
            "0xddf252ad1be2c89b69c2b068fc378daa952ba7f163c4a11628f55a4df523b3ef",
            "0x0000000000000000000000000000000000000000000000000000000000000000",
            "0x000000000000000000000000ff8afe6bb92eb9d8e80c607bbe5bbb78bf1201df"
          ],
          "data": "0x0000000000000000000000000000000000000000000000003cef1ee8446f0e65",
          "blockHash": "0xcae2f7c13e3c39eacb78ac3e22b71628d298528d39b49a7d43eb9facbce9eeb0",
          "blockNumber": "0x696f48",
          "transactionHash": "0x5a62f8d7d53519a39187116699a7708222359caf1fc7d9804c908778e4fde73f",
          "transactionIndex": "0x35",
          "logIndex": "0x43",
          "removed": false
        },
        {
          "address": "0xe8b99bf4249d90c0eb900651f92485f7160a0513",
          "topics": [
            "0xddf252ad1be2c89b69c2b068fc378daa952ba7f163c4a11628f55a4df523b3ef",
            "0x000000000000000000000000fa8db2177f1e1ee4327c9b9d1389b1173bc5a5e2",
            "0x000000000000000000000000ff8afe6bb92eb9d8e80c607bbe5bbb78bf1201df"
          ],
          "data": "0x0000000000000000000000000000000000000000000000008ac7230489e80000",
          "blockHash": "0xcae2f7c13e3c39eacb78ac3e22b71628d298528d39b49a7d43eb9facbce9eeb0",
          "blockNumber": "0x696f48",
          "transactionHash": "0x5a62f8d7d53519a39187116699a7708222359caf1fc7d9804c908778e4fde73f",
          "transactionIndex": "0x35",
          "logIndex": "0x44",
          "removed": false
        },
        {
          "address": "0xff8afe6bb92eb9d8e80c607bbe5bbb78bf1201df",
          "topics": [
            "0xddf252ad1be2c89b69c2b068fc378daa952ba7f163c4a11628f55a4df523b3ef",
            "0x0000000000000000000000000000000000000000000000000000000000000000",
            "0x000000000000000000000000fa8db2177f1e1ee4327c9b9d1389b1173bc5a5e2"
          ],
          "data": "0x0000000000000000000000000000000000000000000000008627e4f1900f9155",
          "blockHash": "0xcae2f7c13e3c39eacb78ac3e22b71628d298528d39b49a7d43eb9facbce9eeb0",
          "blockNumber": "0x696f48",
          "transactionHash": "0x5a62f8d7d53519a39187116699a7708222359caf1fc7d9804c908778e4fde73f",
          "transactionIndex": "0x35",
          "logIndex": "0x45",
          "removed": false
        },
        {
          "address": "0xff8afe6bb92eb9d8e80c607bbe5bbb78bf1201df",
          "topics": [
            "0xdcbc1c05240f31ff3ad067ef1ee35ce4997762752e3a095284754544f4c709d7",
            "0x000000000000000000000000fa8db2177f1e1ee4327c9b9d1389b1173bc5a5e2",
            "0x000000000000000000000000fa8db2177f1e1ee4327c9b9d1389b1173bc5a5e2"
          ],
          "data": "0x0000000000000000000000000000000000000000000000008ac7230489e800000000000000000000000000000000000000000000000000008627e4f1900f9155",
          "blockHash": "0xcae2f7c13e3c39eacb78ac3e22b71628d298528d39b49a7d43eb9facbce9eeb0",
          "blockNumber": "0x696f48",
          "transactionHash": "0x5a62f8d7d53519a39187116699a7708222359caf1fc7d9804c908778e4fde73f",
          "transactionIndex": "0x35",
          "logIndex": "0x46",
          "removed": false
        },
        {
          "address": "0xfa8db2177f1e1ee4327c9b9d1389b1173bc5a5e2",
          "topics": [
            "0xc3d58168c5ae7397731d063d5bbf3d657854427343f4c083240f7aacaa2d0f62",
            "0x0000000000000000000000008ea2c57c107682c50d77cd4d5517f8dcf5e2ede8",
            "0x0000000000000000000000000000000000000000000000000000000000000000",
            "0x000000000000000000000000000ef5f21dc574226a06c76aae7060642a30eb74"
          ],
          "data": "0x01000000000000000000000000000000000000000000000000000000673bd5000000000000000000000000000000000000000000000000008ac8a6165d4065a0",
          "blockHash": "0xcae2f7c13e3c39eacb78ac3e22b71628d298528d39b49a7d43eb9facbce9eeb0",
          "blockNumber": "0x696f48",
          "transactionHash": "0x5a62f8d7d53519a39187116699a7708222359caf1fc7d9804c908778e4fde73f",
          "transactionIndex": "0x35",
          "logIndex": "0x47",
          "removed": false
        },
        {
          "address": "0xfa8db2177f1e1ee4327c9b9d1389b1173bc5a5e2",
          "topics": [
            "0x7fc9757758f4c7f2eb9f011c4500beb349847d2f2acbdd5ffce3e2f01e79903a",
            "0x000000000000000000000000000ef5f21dc574226a06c76aae7060642a30eb74",
            "0x01000000000000000000000000000000000000000000000000000000673bd500"
          ],
          "data": "0x00000000000000000000000000000000000000000000000000000000673bd5000000000000000000000000000000000000000000000000008ac7230489e800000000000000000000000000000000000000000000000000000e5b1d51869f652200000000000000000000000000000000000000000000000000000000000000010000000000000000000000000000000000000000000000008ac8a6165d4065a000000000000000000000000000000000000000000000000000000000000000c00000000000000000000000000000000000000000000000000000000000000000",
          "blockHash": "0xcae2f7c13e3c39eacb78ac3e22b71628d298528d39b49a7d43eb9facbce9eeb0",
          "blockNumber": "0x696f48",
          "transactionHash": "0x5a62f8d7d53519a39187116699a7708222359caf1fc7d9804c908778e4fde73f",
          "transactionIndex": "0x35",
          "logIndex": "0x48",
          "removed": false
        }
      ],
      "logsBloom": "0x00000000001000000800000000000000000000000000000000000000000400000400000000020000000000000000000000000000000000000000000000282000000000400000000010000008008000000000000000000000000000000000000000000000020000000000000400000800000000800004000000000010000000000000000000000000080008000000000080000000000000000200000000000000020000000088000000000000400000000000000000000000000000000000001000000002000000000400000000000000002000080008004000000400040020000010040000000000000000000000000000000000008000000000080000000000",
      "type": "0x2",
      "transactionHash": "0x5a62f8d7d53519a39187116699a7708222359caf1fc7d9804c908778e4fde73f",
      "transactionIndex": "0x35",
      "blockHash": "0xcae2f7c13e3c39eacb78ac3e22b71628d298528d39b49a7d43eb9facbce9eeb0",
      "blockNumber": "0x696f48",
      "gasUsed": "0x408cf",
      "effectiveGasPrice": "0xae9d976",
      "from": "0x000ef5f21dc574226a06c76aae7060642a30eb74",
      "to": "0x8ea2c57c107682c50d77cd4d5517f8dcf5e2ede8",
      "contractAddress": null
    }
  ],
  "libraries": [],
  "pending": [],
  "returns": {},
  "timestamp": 1729420844,
  "chain": 11155111,
  "commit": "e0d67c1"
}