{
  "transactions": [
    {
      "hash": "0x571a84466e7f1b07e3df9a51aed2fa65d39b891ef8559fefd5180210f8610099",
      "transactionType": "CALL",
      "contractName": null,
      "contractAddress": "0x5d48ad1c41b32caf687716f871c4e46687605924",
      "function": "createVault(string,address,address)",
      "arguments": [
        "TEST",
        "0x0000000000000000000000000000000000000000",
        "0x0000000000000000000000000000000000000000"
      ],
      "transaction": {
        "from": "0x000ef5f21dc574226a06c76aae7060642a30eb74",
        "to": "0x5d48ad1c41b32caf687716f871c4e46687605924",
        "gas": "0x3bcced",
        "value": "0x0",
        "input": "0x522bfa1100000000000000000000000000000000000000000000000000000000000000600000000000000000000000000000000000000000000000000000000000000000000000000000000000000000000000000000000000000000000000000000000000000000000000000000000000000000000000000000000000000000000000045445535400000000000000000000000000000000000000000000000000000000",
        "nonce": "0x99",
        "chainId": "0x66eee"
      },
      "additionalContracts": [],
      "isFixedGasLimit": false
    },
    {
      "hash": null,
      "transactionType": "CALL",
      "contractName": "QuarkHubChainAccount",
      "contractAddress": "0x9256755a5be3401ad390e279382a65d64dcfb65c",
      "function": "requestNewSpokeChain(uint256,uint256)",
      "arguments": [
        "4",
        "84532"
      ],
      "transaction": {
        "from": "0x000ef5f21dc574226a06c76aae7060642a30eb74",
        "to": "0x9256755a5be3401ad390e279382a65d64dcfb65c",
        "gas": "0x6d5a",
        "value": "0x2e7f6ea0cc3b9e",
        "input": "0x3ad8771f00000000000000000000000000000000000000000000000000000000000000040000000000000000000000000000000000000000000000000000000000014a34",
        "nonce": "0x9a",
        "chainId": "0x66eee"
      },
      "additionalContracts": [],
      "isFixedGasLimit": false
    }
  ],
  "receipts": [
    {
      "status": "0x1",
      "cumulativeGasUsed": "0x317652",
      "logs": [
        {
          "address": "0x5d48ad1c41b32caf687716f871c4e46687605924",
          "topics": [
            "0xddf252ad1be2c89b69c2b068fc378daa952ba7f163c4a11628f55a4df523b3ef",
            "0x0000000000000000000000000000000000000000000000000000000000000000",
            "0x0000000000000000000000005d48ad1c41b32caf687716f871c4e46687605924",
            "0x0000000000000000000000000000000000000000000000000000000000000004"
          ],
          "data": "0x",
          "blockHash": "0x27193bd4c076078fd083ec5d4efe90b56e690d9cac6ea231253794770d9fc47c",
          "blockNumber": "0x55f7f42",
          "transactionHash": "0x571a84466e7f1b07e3df9a51aed2fa65d39b891ef8559fefd5180210f8610099",
          "transactionIndex": "0x2",
          "logIndex": "0x1",
          "removed": false
        },
        {
          "address": "0x9256755a5be3401ad390e279382a65d64dcfb65c",
          "topics": [
            "0x8be0079c531659141344cd1fd0a4f28419497f9722a3daafe3b4186f6b6457e0",
            "0x0000000000000000000000000000000000000000000000000000000000000000",
            "0x000000000000000000000000000ef5f21dc574226a06c76aae7060642a30eb74"
          ],
          "data": "0x",
          "blockHash": "0x27193bd4c076078fd083ec5d4efe90b56e690d9cac6ea231253794770d9fc47c",
          "blockNumber": "0x55f7f42",
          "transactionHash": "0x571a84466e7f1b07e3df9a51aed2fa65d39b891ef8559fefd5180210f8610099",
          "transactionIndex": "0x2",
          "logIndex": "0x2",
          "removed": false
        },
        {
          "address": "0x6edce65403992e310a62460808c4b910d972f10f",
          "topics": [
            "0x6ee10e9ed4d6ce9742703a498707862f4b00f1396a87195eb93267b3d7983981"
          ],
          "data": "0x0000000000000000000000009256755a5be3401ad390e279382a65d64dcfb65c000000000000000000000000000ef5f21dc574226a06c76aae7060642a30eb74",
          "blockHash": "0x27193bd4c076078fd083ec5d4efe90b56e690d9cac6ea231253794770d9fc47c",
          "blockNumber": "0x55f7f42",
          "transactionHash": "0x571a84466e7f1b07e3df9a51aed2fa65d39b891ef8559fefd5180210f8610099",
          "transactionIndex": "0x2",
          "logIndex": "0x3",
          "removed": false
        },
        {
          "address": "0x9256755a5be3401ad390e279382a65d64dcfb65c",
          "topics": [
            "0x3cd5ec01b1ae7cfec6ca1863e2cd6aa25d6d1702825803ff2b7cc95010fffdc2",
            "0x0000000000000000000000005d48ad1c41b32caf687716f871c4e46687605924",
            "0x0000000000000000000000007f9a3050a572cf5198b7f61e6d9203b532072692"
          ],
          "data": "0x",
          "blockHash": "0x27193bd4c076078fd083ec5d4efe90b56e690d9cac6ea231253794770d9fc47c",
          "blockNumber": "0x55f7f42",
          "transactionHash": "0x571a84466e7f1b07e3df9a51aed2fa65d39b891ef8559fefd5180210f8610099",
          "transactionIndex": "0x2",
          "logIndex": "0x4",
          "removed": false
        },
        {
          "address": "0x5d48ad1c41b32caf687716f871c4e46687605924",
          "topics": [
            "0xddf252ad1be2c89b69c2b068fc378daa952ba7f163c4a11628f55a4df523b3ef",
            "0x0000000000000000000000005d48ad1c41b32caf687716f871c4e46687605924",
            "0x000000000000000000000000000ef5f21dc574226a06c76aae7060642a30eb74",
            "0x0000000000000000000000000000000000000000000000000000000000000004"
          ],
          "data": "0x",
          "blockHash": "0x27193bd4c076078fd083ec5d4efe90b56e690d9cac6ea231253794770d9fc47c",
          "blockNumber": "0x55f7f42",
          "transactionHash": "0x571a84466e7f1b07e3df9a51aed2fa65d39b891ef8559fefd5180210f8610099",
          "transactionIndex": "0x2",
          "logIndex": "0x5",
          "removed": false
        },
        {
          "address": "0x5d48ad1c41b32caf687716f871c4e46687605924",
          "topics": [
            "0x019b61d9140f8784f4eed1e66569335630452af2d974ceb13d3e706c07867296",
            "0x000000000000000000000000000ef5f21dc574226a06c76aae7060642a30eb74",
            "0x0000000000000000000000000000000000000000000000000000000000000004",
            "0x0000000000000000000000009256755a5be3401ad390e279382a65d64dcfb65c"
          ],
          "data": "0x",
          "blockHash": "0x27193bd4c076078fd083ec5d4efe90b56e690d9cac6ea231253794770d9fc47c",
          "blockNumber": "0x55f7f42",
          "transactionHash": "0x571a84466e7f1b07e3df9a51aed2fa65d39b891ef8559fefd5180210f8610099",
          "transactionIndex": "0x2",
          "logIndex": "0x6",
          "removed": false
        }
      ],
      "logsBloom": "0x00000000000004000000000000000000000000000000000000800000008000000000000000020000200400000000000000000002000000000000008010000000000004000000000000000008000000000001000040000000000000000000000008000000020000000a02000400800800000000000000002000000010000000402000000000000020000000000020000000840000000000000000000000000000000000000000000000000008000000000000000000000000002000000000000400000002000000000000000000000000000000008000000004040000040020000100000000000000000000000000000000000020000000000800000000000000",
      "type": "0x2",
      "transactionHash": "0x571a84466e7f1b07e3df9a51aed2fa65d39b891ef8559fefd5180210f8610099",
      "transactionIndex": "0x2",
      "blockHash": "0x27193bd4c076078fd083ec5d4efe90b56e690d9cac6ea231253794770d9fc47c",
      "blockNumber": "0x55f7f42",
      "gasUsed": "0x2d9ed9",
      "effectiveGasPrice": "0x5f5e100",
      "from": "0x000ef5f21dc574226a06c76aae7060642a30eb74",
      "to": "0x5d48ad1c41b32caf687716f871c4e46687605924",
      "contractAddress": null,
      "gasUsedForL1": "0x0",
      "l1BlockNumber": "0x696e38"
    }
  ],
  "libraries": [],
  "pending": [],
  "returns": {},
  "timestamp": 1729417015,
  "chain": 421614,
  "commit": "5737486"
}