{
  "transactions": [
    {
      "hash": "0xaf836eeac137ee39491389d5b86f6cb1460a732b20346803869a4cda48cc6ea1",
      "transactionType": "CALL",
      "contractName": null,
      "contractAddress": "0x5d48ad1c41b32caf687716f871c4e46687605924",
      "function": "createVault(string,address,address)",
      "arguments": [
        "TEST",
        "0x0000000000000000000000000000000000000000",
        "0x0000000000000000000000000000000000000000"
      ],
      "transaction": {
        "from": "0x000ef5f21dc574226a06c76aae7060642a30eb74",
        "to": "0x5d48ad1c41b32caf687716f871c4e46687605924",
        "gas": "0x3bcced",
        "value": "0x0",
        "input": "0x522bfa1100000000000000000000000000000000000000000000000000000000000000600000000000000000000000000000000000000000000000000000000000000000000000000000000000000000000000000000000000000000000000000000000000000000000000000000000000000000000000000000000000000000000000045445535400000000000000000000000000000000000000000000000000000000",
        "nonce": "0x94",
        "chainId": "0x66eee"
      },
      "additionalContracts": [],
      "isFixedGasLimit": false
    },
    {
      "hash": "0xf8a42e6ff1a357e9e0d12ccbf1a21a8cd191352e75e37100da23a577cc12ba4b",
      "transactionType": "CALL",
      "contractName": "QuarkHubChainAccount",
      "contractAddress": "0x9adc31b49cb51ab47fa9a87918e5824d8c4e7134",
      "function": "requestNewSpokeChain(uint256,uint256)",
      "arguments": [
        "1",
        "84532"
      ],
      "transaction": {
        "from": "0x000ef5f21dc574226a06c76aae7060642a30eb74",
        "to": "0x9adc31b49cb51ab47fa9a87918e5824d8c4e7134",
        "gas": "0x6d5a",
        "value": "0x2e7f6ea0cc3b9e",
        "input": "0x3ad8771f00000000000000000000000000000000000000000000000000000000000000010000000000000000000000000000000000000000000000000000000000014a34",
        "nonce": "0x95",
        "chainId": "0x66eee"
      },
      "additionalContracts": [],
      "isFixedGasLimit": false
    }
  ],
  "receipts": [
    {
      "status": "0x1",
      "cumulativeGasUsed": "0x2d9ed9",
      "logs": [
        {
          "address": "0x5d48ad1c41b32caf687716f871c4e46687605924",
          "topics": [
            "0xddf252ad1be2c89b69c2b068fc378daa952ba7f163c4a11628f55a4df523b3ef",
            "0x0000000000000000000000000000000000000000000000000000000000000000",
            "0x0000000000000000000000005d48ad1c41b32caf687716f871c4e46687605924",
            "0x0000000000000000000000000000000000000000000000000000000000000001"
          ],
          "data": "0x",
          "blockHash": "0x98549158e3afe27c7612869c8f354611d5beac38659a807c70be8ef983303c6a",
          "blockNumber": "0x55f702f",
          "transactionHash": "0xaf836eeac137ee39491389d5b86f6cb1460a732b20346803869a4cda48cc6ea1",
          "transactionIndex": "0x1",
          "logIndex": "0x0",
          "removed": false
        },
        {
          "address": "0x9adc31b49cb51ab47fa9a87918e5824d8c4e7134",
          "topics": [
            "0x8be0079c531659141344cd1fd0a4f28419497f9722a3daafe3b4186f6b6457e0",
            "0x0000000000000000000000000000000000000000000000000000000000000000",
            "0x000000000000000000000000000ef5f21dc574226a06c76aae7060642a30eb74"
          ],
          "data": "0x",
          "blockHash": "0x98549158e3afe27c7612869c8f354611d5beac38659a807c70be8ef983303c6a",
          "blockNumber": "0x55f702f",
          "transactionHash": "0xaf836eeac137ee39491389d5b86f6cb1460a732b20346803869a4cda48cc6ea1",
          "transactionIndex": "0x1",
          "logIndex": "0x1",
          "removed": false
        },
        {
          "address": "0x6edce65403992e310a62460808c4b910d972f10f",
          "topics": [
            "0x6ee10e9ed4d6ce9742703a498707862f4b00f1396a87195eb93267b3d7983981"
          ],
          "data": "0x0000000000000000000000009adc31b49cb51ab47fa9a87918e5824d8c4e7134000000000000000000000000000ef5f21dc574226a06c76aae7060642a30eb74",
          "blockHash": "0x98549158e3afe27c7612869c8f354611d5beac38659a807c70be8ef983303c6a",
          "blockNumber": "0x55f702f",
          "transactionHash": "0xaf836eeac137ee39491389d5b86f6cb1460a732b20346803869a4cda48cc6ea1",
          "transactionIndex": "0x1",
          "logIndex": "0x2",
          "removed": false
        },
        {
          "address": "0x9adc31b49cb51ab47fa9a87918e5824d8c4e7134",
          "topics": [
            "0x3cd5ec01b1ae7cfec6ca1863e2cd6aa25d6d1702825803ff2b7cc95010fffdc2",
            "0x0000000000000000000000005d48ad1c41b32caf687716f871c4e46687605924",
            "0x0000000000000000000000007f9a3050a572cf5198b7f61e6d9203b532072692"
          ],
          "data": "0x",
          "blockHash": "0x98549158e3afe27c7612869c8f354611d5beac38659a807c70be8ef983303c6a",
          "blockNumber": "0x55f702f",
          "transactionHash": "0xaf836eeac137ee39491389d5b86f6cb1460a732b20346803869a4cda48cc6ea1",
          "transactionIndex": "0x1",
          "logIndex": "0x3",
          "removed": false
        },
        {
          "address": "0x5d48ad1c41b32caf687716f871c4e46687605924",
          "topics": [
            "0xddf252ad1be2c89b69c2b068fc378daa952ba7f163c4a11628f55a4df523b3ef",
            "0x0000000000000000000000005d48ad1c41b32caf687716f871c4e46687605924",
            "0x000000000000000000000000000ef5f21dc574226a06c76aae7060642a30eb74",
            "0x0000000000000000000000000000000000000000000000000000000000000001"
          ],
          "data": "0x",
          "blockHash": "0x98549158e3afe27c7612869c8f354611d5beac38659a807c70be8ef983303c6a",
          "blockNumber": "0x55f702f",
          "transactionHash": "0xaf836eeac137ee39491389d5b86f6cb1460a732b20346803869a4cda48cc6ea1",
          "transactionIndex": "0x1",
          "logIndex": "0x4",
          "removed": false
        },
        {
          "address": "0x5d48ad1c41b32caf687716f871c4e46687605924",
          "topics": [
            "0x019b61d9140f8784f4eed1e66569335630452af2d974ceb13d3e706c07867296",
            "0x000000000000000000000000000ef5f21dc574226a06c76aae7060642a30eb74",
            "0x0000000000000000000000000000000000000000000000000000000000000001",
            "0x0000000000000000000000009adc31b49cb51ab47fa9a87918e5824d8c4e7134"
          ],
          "data": "0x",
          "blockHash": "0x98549158e3afe27c7612869c8f354611d5beac38659a807c70be8ef983303c6a",
          "blockNumber": "0x55f702f",
          "transactionHash": "0xaf836eeac137ee39491389d5b86f6cb1460a732b20346803869a4cda48cc6ea1",
          "transactionIndex": "0x1",
          "logIndex": "0x5",
          "removed": false
        }
      ],
      "logsBloom": "0x00000000000000000000000000000000000000000000000000800040000000000000000000020000200400000000000000000002000000000000000010040000000004000000000000000008000000000001000040044100000000000000000000000000020000000a00000400800800000000000000002000000010000000400000000000000020000000000020000000840000000000000000000000000000000000100000000000000028000000000000000000000400000000000000000400000002000000000000000000000000000000000000000004040000040060000100000000000000000000000000000000000000000000000800000000000000",
      "type": "0x2",
      "transactionHash": "0xaf836eeac137ee39491389d5b86f6cb1460a732b20346803869a4cda48cc6ea1",
      "transactionIndex": "0x1",
      "blockHash": "0x98549158e3afe27c7612869c8f354611d5beac38659a807c70be8ef983303c6a",
      "blockNumber": "0x55f702f",
      "gasUsed": "0x2d9ed9",
      "effectiveGasPrice": "0x5f5e100",
      "from": "0x000ef5f21dc574226a06c76aae7060642a30eb74",
      "to": "0x5d48ad1c41b32caf687716f871c4e46687605924",
      "contractAddress": null,
      "gasUsedForL1": "0x0",
      "l1BlockNumber": "0x696de3"
    },
    {
      "status": "0x1",
      "cumulativeGasUsed": "0x3dec6",
      "logs": [
        {
          "address": "0x4f7cd4da19abb31b0ec98b9066b9e857b1bf9c0e",
          "topics": [
            "0x61ed099e74a97a1d7f8bb0952a88ca8b7b8ebd00c126ea04671f92a81213318a"
          ],
          "data": "0x0000000000000000000000005df3a1cebbd9c8ba7f8df51fd632a9aef8308897000000000000000000000000000000000000000000000000002af0c6779a028b",
          "blockHash": "0x6b1fa31d775eab4558d8101338599c2e93f858146bb13f86154af609df40a014",
          "blockNumber": "0x55f7031",
          "transactionHash": "0xf8a42e6ff1a357e9e0d12ccbf1a21a8cd191352e75e37100da23a577cc12ba4b",
          "transactionIndex": "0x1",
          "logIndex": "0x0",
          "removed": false
        },
        {
          "address": "0x4f7cd4da19abb31b0ec98b9066b9e857b1bf9c0e",
          "topics": [
            "0x07ea52d82345d6e838192107d8fd7123d9c2ec8e916cd0aad13fd2b60db24644"
          ],
          "data": "0x000000000000000000000000000000000000000000000000000000000000006000000000000000000000000000000000000000000000000000000000000000a000000000000000000000000000000000000000000000000000000000000000c0000000000000000000000000000000000000000000000000000000000000000100000000000000000000000053f488e93b4f1b60e8e83aa374dbe1780a1ee8a800000000000000000000000000000000000000000000000000000000000000000000000000000000000000000000000000000000000000000000000000000001000000000000000000000000000000000000000000000000000003cae878a9d8",
          "blockHash": "0x6b1fa31d775eab4558d8101338599c2e93f858146bb13f86154af609df40a014",
          "blockNumber": "0x55f7031",
          "transactionHash": "0xf8a42e6ff1a357e9e0d12ccbf1a21a8cd191352e75e37100da23a577cc12ba4b",
          "transactionIndex": "0x1",
          "logIndex": "0x1",
          "removed": false
        },
        {
          "address": "0x6edce65403992e310a62460808c4b910d972f10f",
          "topics": [
            "0x1ab700d4ced0c005b164c0f789fd09fcbb0156d4c2041b8a3bfbcd961cd1567f"
          ],
          "data": "0x000000000000000000000000000000000000000000000000000000000000006000000000000000000000000000000000000000000000000000000000000001400000000000000000000000004f7cd4da19abb31b0ec98b9066b9e857b1bf9c0e00000000000000000000000000000000000000000000000000000000000000b101000000000000000100009d270000000000000000000000005d48ad1c41b32caf687716f871c4e4668760592400009d35000000000000000000000000ae133bed32fb31e182d900ab482b8fc0defda25ddc187d59d48f5aba650746f05af214eb63715d4a7235fc66194f99c6926cba2b0000000000000000000000009adc31b49cb51ab47fa9a87918e5824d8c4e713400000000000000000000000000000000000000000000000000000000000000010000000000000000000000000000000000000000000000000000000000000000000000000000000000000000000026000301002101000000000000000000000000004c4b400000000000000000002386f26fc100000000000000000000000000000000000000000000000000000000",
          "blockHash": "0x6b1fa31d775eab4558d8101338599c2e93f858146bb13f86154af609df40a014",
          "blockNumber": "0x55f7031",
          "transactionHash": "0xf8a42e6ff1a357e9e0d12ccbf1a21a8cd191352e75e37100da23a577cc12ba4b",
          "transactionIndex": "0x1",
          "logIndex": "0x2",
          "removed": false
        },
        {
          "address": "0x5d48ad1c41b32caf687716f871c4e46687605924",
          "topics": [
            "0x2d4dbc7a27a00b43846712fae107e2b01f7bcf769790c313c21214f5c036730c",
            "0x0000000000000000000000000000000000000000000000000000000000000001"
          ],
          "data": "0x0000000000000000000000000000000000000000000000000000000000014a340000000000000000000000000000000000000000000000000000000000000001",
          "blockHash": "0x6b1fa31d775eab4558d8101338599c2e93f858146bb13f86154af609df40a014",
          "blockNumber": "0x55f7031",
          "transactionHash": "0xf8a42e6ff1a357e9e0d12ccbf1a21a8cd191352e75e37100da23a577cc12ba4b",
          "transactionIndex": "0x1",
          "logIndex": "0x3",
          "removed": false
        }
      ],
      "logsBloom": "0x00000000000000002000000000000000010000000000000000000040000000000000000000000000200000000000000000000000008000000000000000040000000000000000000000000000000000000000000000040000000000000000000000000000000000008200000000000000000000000000000000000000000000000000000000000020000000080000000000800000000000010000000000000000000000008000000000102000000000000000000000400000000440000000000000000000000000000000000000000000000000000000000000040000000040000000040000000000000000000000002000000000000000000800000000000000",
      "type": "0x2",
      "transactionHash": "0xf8a42e6ff1a357e9e0d12ccbf1a21a8cd191352e75e37100da23a577cc12ba4b",
      "transactionIndex": "0x1",
      "blockHash": "0x6b1fa31d775eab4558d8101338599c2e93f858146bb13f86154af609df40a014",
      "blockNumber": "0x55f7031",
      "gasUsed": "0x3dec6",
      "effectiveGasPrice": "0x5f5e100",
      "from": "0x000ef5f21dc574226a06c76aae7060642a30eb74",
      "to": "0x9adc31b49cb51ab47fa9a87918e5824d8c4e7134",
      "contractAddress": null,
      "gasUsedForL1": "0x0",
      "l1BlockNumber": "0x696de3"
    }
  ],
  "libraries": [],
  "pending": [],
  "returns": {},
  "timestamp": 1729415723,
  "chain": 421614,
  "commit": "5737486"
}