{
  "transactions": [
    {
      "hash": "0x4163b906a439ca23fbb51da31475deba98279f8fff94290e23d161b6eeed6314",
      "transactionType": "CALL",
      "contractName": null,
      "contractAddress": "0xc9a98c1697b7f46d2074bf8afee41f516cabdcd0",
      "function": "createVault()",
      "arguments": [],
      "transaction": {
        "from": "0x000ef5f21dc574226a06c76aae7060642a30eb74",
        "to": "0xc9a98c1697b7f46d2074bf8afee41f516cabdcd0",
        "gas": "0x2c2017",
        "value": "0x0",
        "input": "0x5d12928b",
        "nonce": "0x74",
        "chainId": "0x66eee"
      },
      "additionalContracts": [],
      "isFixedGasLimit": false
    },
    {
      "hash": "0x8d54f8b31381b1c18929572b7218db557c9040522f2cd18f10ece07dea66ba69",
      "transactionType": "CALL",
      "contractName": "QuarkHubChainAccount",
      "contractAddress": "0x3cd32323c04c74f7a1430959c7fa273058e329f4",
      "function": "requestNewSpokeChain(uint256,uint256)",
      "arguments": [
        "0",
        "11155420"
      ],
      "transaction": {
        "from": "0x000ef5f21dc574226a06c76aae7060642a30eb74",
        "to": "0x3cd32323c04c74f7a1430959c7fa273058e329f4",
        "gas": "0x6d4a",
        "value": "0x16345785d8a0000",
        "input": "0x3ad8771f00000000000000000000000000000000000000000000000000000000000000000000000000000000000000000000000000000000000000000000000000aa37dc",
        "nonce": "0x75",
        "chainId": "0x66eee"
      },
      "additionalContracts": [],
      "isFixedGasLimit": false
    }
  ],
  "receipts": [
    {
      "status": "0x1",
      "cumulativeGasUsed": "0x21608c",
      "logs": [
        {
          "address": "0xc9a98c1697b7f46d2074bf8afee41f516cabdcd0",
          "topics": [
            "0xddf252ad1be2c89b69c2b068fc378daa952ba7f163c4a11628f55a4df523b3ef",
            "0x0000000000000000000000000000000000000000000000000000000000000000",
            "0x000000000000000000000000c9a98c1697b7f46d2074bf8afee41f516cabdcd0",
            "0x0000000000000000000000000000000000000000000000000000000000000000"
          ],
          "data": "0x",
          "blockHash": "0xef793f7d6bdfb80c97f3264c685696cf3583cf05ee6d90600face1f2488574cb",
          "blockNumber": "0x55d70b9",
          "transactionHash": "0x4163b906a439ca23fbb51da31475deba98279f8fff94290e23d161b6eeed6314",
          "transactionIndex": "0x1",
          "logIndex": "0x0",
          "removed": false
        },
        {
          "address": "0x3cd32323c04c74f7a1430959c7fa273058e329f4",
          "topics": [
            "0x8be0079c531659141344cd1fd0a4f28419497f9722a3daafe3b4186f6b6457e0",
            "0x0000000000000000000000000000000000000000000000000000000000000000",
            "0x000000000000000000000000000ef5f21dc574226a06c76aae7060642a30eb74"
          ],
          "data": "0x",
          "blockHash": "0xef793f7d6bdfb80c97f3264c685696cf3583cf05ee6d90600face1f2488574cb",
          "blockNumber": "0x55d70b9",
          "transactionHash": "0x4163b906a439ca23fbb51da31475deba98279f8fff94290e23d161b6eeed6314",
          "transactionIndex": "0x1",
          "logIndex": "0x1",
          "removed": false
        },
        {
          "address": "0x6edce65403992e310a62460808c4b910d972f10f",
          "topics": [
            "0x6ee10e9ed4d6ce9742703a498707862f4b00f1396a87195eb93267b3d7983981"
          ],
          "data": "0x0000000000000000000000003cd32323c04c74f7a1430959c7fa273058e329f4000000000000000000000000000ef5f21dc574226a06c76aae7060642a30eb74",
          "blockHash": "0xef793f7d6bdfb80c97f3264c685696cf3583cf05ee6d90600face1f2488574cb",
          "blockNumber": "0x55d70b9",
          "transactionHash": "0x4163b906a439ca23fbb51da31475deba98279f8fff94290e23d161b6eeed6314",
          "transactionIndex": "0x1",
          "logIndex": "0x2",
          "removed": false
        },
        {
          "address": "0x3cd32323c04c74f7a1430959c7fa273058e329f4",
          "topics": [
            "0x3cd5ec01b1ae7cfec6ca1863e2cd6aa25d6d1702825803ff2b7cc95010fffdc2",
            "0x000000000000000000000000c9a98c1697b7f46d2074bf8afee41f516cabdcd0",
            "0x0000000000000000000000005b71e5eed1bfee7f85169eddee6b48f1abd68431"
          ],
          "data": "0x",
          "blockHash": "0xef793f7d6bdfb80c97f3264c685696cf3583cf05ee6d90600face1f2488574cb",
          "blockNumber": "0x55d70b9",
          "transactionHash": "0x4163b906a439ca23fbb51da31475deba98279f8fff94290e23d161b6eeed6314",
          "transactionIndex": "0x1",
          "logIndex": "0x3",
          "removed": false
        },
        {
          "address": "0xc9a98c1697b7f46d2074bf8afee41f516cabdcd0",
          "topics": [
            "0xddf252ad1be2c89b69c2b068fc378daa952ba7f163c4a11628f55a4df523b3ef",
            "0x000000000000000000000000c9a98c1697b7f46d2074bf8afee41f516cabdcd0",
            "0x000000000000000000000000000ef5f21dc574226a06c76aae7060642a30eb74",
            "0x0000000000000000000000000000000000000000000000000000000000000000"
          ],
          "data": "0x",
          "blockHash": "0xef793f7d6bdfb80c97f3264c685696cf3583cf05ee6d90600face1f2488574cb",
          "blockNumber": "0x55d70b9",
          "transactionHash": "0x4163b906a439ca23fbb51da31475deba98279f8fff94290e23d161b6eeed6314",
          "transactionIndex": "0x1",
          "logIndex": "0x4",
          "removed": false
        },
        {
          "address": "0xc9a98c1697b7f46d2074bf8afee41f516cabdcd0",
          "topics": [
            "0x019b61d9140f8784f4eed1e66569335630452af2d974ceb13d3e706c07867296",
            "0x000000000000000000000000000ef5f21dc574226a06c76aae7060642a30eb74",
            "0x0000000000000000000000000000000000000000000000000000000000000000",
            "0x0000000000000000000000003cd32323c04c74f7a1430959c7fa273058e329f4"
          ],
          "data": "0x",
          "blockHash": "0xef793f7d6bdfb80c97f3264c685696cf3583cf05ee6d90600face1f2488574cb",
          "blockNumber": "0x55d70b9",
          "transactionHash": "0x4163b906a439ca23fbb51da31475deba98279f8fff94290e23d161b6eeed6314",
          "transactionIndex": "0x1",
          "logIndex": "0x5",
          "removed": false
        }
      ],
      "logsBloom": "0x00000000000000000000000000000000001000000000000000800000800000010000000000020000200000000000000000000002000000000000000000000000000004000000000000000018000000000001000040000000000100000000000000000000020000001200000404004800100000000000000000000010100000400000000200000020000000000020000000000000000000000004000000000000000000000000000000000008000000000000000000000000000000000000000400000002000000000000000000000000000040000000000004000000040020000100010000000000000000000000000000000000002000000000000000000000",
      "type": "0x2",
      "transactionHash": "0x4163b906a439ca23fbb51da31475deba98279f8fff94290e23d161b6eeed6314",
      "transactionIndex": "0x1",
      "blockHash": "0xef793f7d6bdfb80c97f3264c685696cf3583cf05ee6d90600face1f2488574cb",
      "blockNumber": "0x55d70b9",
      "gasUsed": "0x21608c",
      "effectiveGasPrice": "0x5f5e100",
      "from": "0x000ef5f21dc574226a06c76aae7060642a30eb74",
      "to": "0xc9a98c1697b7f46d2074bf8afee41f516cabdcd0",
      "contractAddress": null,
      "gasUsedForL1": "0x0",
      "l1BlockNumber": "0x696146"
    },
    {
      "status": "0x1",
      "cumulativeGasUsed": "0x3dea4",
      "logs": [
        {
          "address": "0x4f7cd4da19abb31b0ec98b9066b9e857b1bf9c0e",
          "topics": [
            "0x61ed099e74a97a1d7f8bb0952a88ca8b7b8ebd00c126ea04671f92a81213318a"
          ],
          "data": "0x0000000000000000000000005df3a1cebbd9c8ba7f8df51fd632a9aef8308897000000000000000000000000000000000000000000000000002af088f778eed3",
          "blockHash": "0xcdcdd6eaa26206f4e0cbf448dba952a46612b6bc3c1584aa78a2346339e68196",
          "blockNumber": "0x55d70bb",
          "transactionHash": "0x8d54f8b31381b1c18929572b7218db557c9040522f2cd18f10ece07dea66ba69",
          "transactionIndex": "0x1",
          "logIndex": "0x0",
          "removed": false
        },
        {
          "address": "0x4f7cd4da19abb31b0ec98b9066b9e857b1bf9c0e",
          "topics": [
            "0x07ea52d82345d6e838192107d8fd7123d9c2ec8e916cd0aad13fd2b60db24644"
          ],
          "data": "0x000000000000000000000000000000000000000000000000000000000000006000000000000000000000000000000000000000000000000000000000000000a000000000000000000000000000000000000000000000000000000000000000c0000000000000000000000000000000000000000000000000000000000000000100000000000000000000000053f488e93b4f1b60e8e83aa374dbe1780a1ee8a800000000000000000000000000000000000000000000000000000000000000000000000000000000000000000000000000000000000000000000000000000001000000000000000000000000000000000000000000000000000003c9b85033a8",
          "blockHash": "0xcdcdd6eaa26206f4e0cbf448dba952a46612b6bc3c1584aa78a2346339e68196",
          "blockNumber": "0x55d70bb",
          "transactionHash": "0x8d54f8b31381b1c18929572b7218db557c9040522f2cd18f10ece07dea66ba69",
          "transactionIndex": "0x1",
          "logIndex": "0x1",
          "removed": false
        },
        {
          "address": "0x6edce65403992e310a62460808c4b910d972f10f",
          "topics": [
            "0x1ab700d4ced0c005b164c0f789fd09fcbb0156d4c2041b8a3bfbcd961cd1567f"
          ],
          "data": "0x000000000000000000000000000000000000000000000000000000000000006000000000000000000000000000000000000000000000000000000000000001400000000000000000000000004f7cd4da19abb31b0ec98b9066b9e857b1bf9c0e00000000000000000000000000000000000000000000000000000000000000b101000000000000000100009d27000000000000000000000000c9a98c1697b7f46d2074bf8afee41f516cabdcd000009d280000000000000000000000001c1e5a1db93dfe56dc52904c8cdce66eedaec14da707f540efa8b53d1c1421e10443fb6dfe50d601eb76e976f9c875814784e7c60000000000000000000000003cd32323c04c74f7a1430959c7fa273058e329f400000000000000000000000000000000000000000000000000000000000000000000000000000000000000000000000000000000000000000000000000000000000000000000000000000000000026000301002101000000000000000000000000004c4b400000000000000000002386f26fc100000000000000000000000000000000000000000000000000000000",
          "blockHash": "0xcdcdd6eaa26206f4e0cbf448dba952a46612b6bc3c1584aa78a2346339e68196",
          "blockNumber": "0x55d70bb",
          "transactionHash": "0x8d54f8b31381b1c18929572b7218db557c9040522f2cd18f10ece07dea66ba69",
          "transactionIndex": "0x1",
          "logIndex": "0x2",
          "removed": false
        },
        {
          "address": "0xc9a98c1697b7f46d2074bf8afee41f516cabdcd0",
          "topics": [
            "0x2d4dbc7a27a00b43846712fae107e2b01f7bcf769790c313c21214f5c036730c",
            "0x0000000000000000000000000000000000000000000000000000000000000000"
          ],
          "data": "0x0000000000000000000000000000000000000000000000000000000000aa37dc0000000000000000000000000000000000000000000000000000000000000001",
          "blockHash": "0xcdcdd6eaa26206f4e0cbf448dba952a46612b6bc3c1584aa78a2346339e68196",
          "blockNumber": "0x55d70bb",
          "transactionHash": "0x8d54f8b31381b1c18929572b7218db557c9040522f2cd18f10ece07dea66ba69",
          "transactionIndex": "0x1",
          "logIndex": "0x3",
          "removed": false
        }
      ],
      "logsBloom": "0x00000000000000002000000000000000010000000000000000000040000000010000000000000000200000000000000000000000008000000000000000000000000000000000000000000000000000000000000000000000000000000000000000000000020000008200000000000800000000000000000000000000000000000000000200000020000000080000000000000000000000010000000000000000000000008000000000102000000000000000000000400000000440000000000000000000000000000000000000000000000000000000000000000000000020000000050000000000000000000000002000000000000000000000000000000000",
      "type": "0x2",
      "transactionHash": "0x8d54f8b31381b1c18929572b7218db557c9040522f2cd18f10ece07dea66ba69",
      "transactionIndex": "0x1",
      "blockHash": "0xcdcdd6eaa26206f4e0cbf448dba952a46612b6bc3c1584aa78a2346339e68196",
      "blockNumber": "0x55d70bb",
      "gasUsed": "0x3dea4",
      "effectiveGasPrice": "0x5f5e100",
      "from": "0x000ef5f21dc574226a06c76aae7060642a30eb74",
      "to": "0x3cd32323c04c74f7a1430959c7fa273058e329f4",
      "contractAddress": null,
      "gasUsedForL1": "0x0",
      "l1BlockNumber": "0x696146"
    }
  ],
  "libraries": [],
  "pending": [],
  "returns": {},
  "timestamp": 1729369432,
  "chain": 421614,
  "commit": "8b6d2b6"
}