{
  "transactions": [
    {
      "hash": "0xdf6270d09786bdd4096e1add8c8f5a449075c9a309e86ef46bd593eaf2275a2d",
      "transactionType": "CALL",
      "contractName": null,
      "contractAddress": "0xe90f36fde34d237645fc4fbb8bc7474e3de690f6",
      "function": "requestNewSpokeChain(uint256,uint256)",
      "arguments": [
        "0",
        "11155111"
      ],
      "transaction": {
        "from": "0x000ef5f21dc574226a06c76aae7060642a30eb74",
        "to": "0xe90f36fde34d237645fc4fbb8bc7474e3de690f6",
        "gas": "0x53cee",
        "value": "0x2e7f6ea0cc3b9e",
        "input": "0x3ad8771f00000000000000000000000000000000000000000000000000000000000000000000000000000000000000000000000000000000000000000000000000aa36a7",
        "nonce": "0xa3",
        "chainId": "0x66eee"
      },
      "additionalContracts": [],
      "isFixedGasLimit": false
    }
  ],
  "receipts": [
    {
      "status": "0x1",
      "cumulativeGasUsed": "0x4f989",
      "logs": [
        {
          "address": "0x4f7cd4da19abb31b0ec98b9066b9e857b1bf9c0e",
          "topics": [
            "0x61ed099e74a97a1d7f8bb0952a88ca8b7b8ebd00c126ea04671f92a81213318a"
          ],
          "data": "0x0000000000000000000000005df3a1cebbd9c8ba7f8df51fd632a9aef8308897000000000000000000000000000000000000000000000000002c6ebd46b33f0c",
          "blockHash": "0x80ab298592bd9736011e29cc759d13d19a1e958df1135c92dd1f3e83cec8d7fc",
          "blockNumber": "0x55fbe73",
          "transactionHash": "0xdf6270d09786bdd4096e1add8c8f5a449075c9a309e86ef46bd593eaf2275a2d",
          "transactionIndex": "0x2",
          "logIndex": "0x3",
          "removed": false
        },
        {
          "address": "0x4f7cd4da19abb31b0ec98b9066b9e857b1bf9c0e",
          "topics": [
            "0x07ea52d82345d6e838192107d8fd7123d9c2ec8e916cd0aad13fd2b60db24644"
          ],
          "data": "0x000000000000000000000000000000000000000000000000000000000000006000000000000000000000000000000000000000000000000000000000000000a000000000000000000000000000000000000000000000000000000000000000c0000000000000000000000000000000000000000000000000000000000000000100000000000000000000000053f488e93b4f1b60e8e83aa374dbe1780a1ee8a80000000000000000000000000000000000000000000000000000000000000000000000000000000000000000000000000000000000000000000000000000000100000000000000000000000000000000000000000000000000000b1751e59944",
          "blockHash": "0x80ab298592bd9736011e29cc759d13d19a1e958df1135c92dd1f3e83cec8d7fc",
          "blockNumber": "0x55fbe73",
          "transactionHash": "0xdf6270d09786bdd4096e1add8c8f5a449075c9a309e86ef46bd593eaf2275a2d",
          "transactionIndex": "0x2",
          "logIndex": "0x4",
          "removed": false
        },
        {
          "address": "0x6edce65403992e310a62460808c4b910d972f10f",
          "topics": [
            "0x1ab700d4ced0c005b164c0f789fd09fcbb0156d4c2041b8a3bfbcd961cd1567f"
          ],
          "data": "0x000000000000000000000000000000000000000000000000000000000000006000000000000000000000000000000000000000000000000000000000000001400000000000000000000000004f7cd4da19abb31b0ec98b9066b9e857b1bf9c0e00000000000000000000000000000000000000000000000000000000000000b101000000000000000100009d270000000000000000000000001647c455e79dbff1fc6ae3be08235f7f1f455e1200009ce1000000000000000000000000f4e68f7b7acd54947f33e475497bf487489fd14f915c6abc5d3099c9b6904b50e0eb46e38f1bdf65cb5f524c85cfb906458c45f3000000000000000000000000e90f36fde34d237645fc4fbb8bc7474e3de690f600000000000000000000000000000000000000000000000000000000000000000000000000000000000000000000000000000000000000000000000000000000000000000000000000000000000026000301002101000000000000000000000000004c4b400000000000000000002386f26fc100000000000000000000000000000000000000000000000000000000",
          "blockHash": "0x80ab298592bd9736011e29cc759d13d19a1e958df1135c92dd1f3e83cec8d7fc",
          "blockNumber": "0x55fbe73",
          "transactionHash": "0xdf6270d09786bdd4096e1add8c8f5a449075c9a309e86ef46bd593eaf2275a2d",
          "transactionIndex": "0x2",
          "logIndex": "0x5",
          "removed": false
        },
        {
          "address": "0x1647c455e79dbff1fc6ae3be08235f7f1f455e12",
          "topics": [
            "0x2d4dbc7a27a00b43846712fae107e2b01f7bcf769790c313c21214f5c036730c",
            "0x0000000000000000000000000000000000000000000000000000000000000000"
          ],
          "data": "0x0000000000000000000000000000000000000000000000000000000000aa36a70000000000000000000000000000000000000000000000000000000000000001",
          "blockHash": "0x80ab298592bd9736011e29cc759d13d19a1e958df1135c92dd1f3e83cec8d7fc",
          "blockNumber": "0x55fbe73",
          "transactionHash": "0xdf6270d09786bdd4096e1add8c8f5a449075c9a309e86ef46bd593eaf2275a2d",
          "transactionIndex": "0x2",
          "logIndex": "0x6",
          "removed": false
        }
      ],
      "logsBloom": "0x00000000000000002000000000000000010000000000000000000040000000000000000000000000200000000000000000000000008000000000000000000000000000000000000000000000000000000000000000000000000000000000000000000000028000008200000000000800000000000000000000000000000000000000000000000020000000080000000000000400000000010000000000000000000000008000000000102000000000000000000000400000000440000000000000040000000000000000000000000000000000000000000000000000000020000000040000000000000000000000002000000000000000000000000000000000",
      "type": "0x2",
      "transactionHash": "0xdf6270d09786bdd4096e1add8c8f5a449075c9a309e86ef46bd593eaf2275a2d",
      "transactionIndex": "0x2",
      "blockHash": "0x80ab298592bd9736011e29cc759d13d19a1e958df1135c92dd1f3e83cec8d7fc",
      "blockNumber": "0x55fbe73",
      "gasUsed": "0x3dec4",
      "effectiveGasPrice": "0x5f5e100",
      "from": "0x000ef5f21dc574226a06c76aae7060642a30eb74",
      "to": "0xe90f36fde34d237645fc4fbb8bc7474e3de690f6",
      "contractAddress": null,
      "gasUsedForL1": "0x0",
      "l1BlockNumber": "0x696fb5"
    }
  ],
  "libraries": [],
  "pending": [],
  "returns": {},
  "timestamp": 1729422328,
  "chain": 421614,
  "commit": "e0d67c1"
}