{
  "transactions": [
    {
      "hash": "0x7cafa1b6211fad53955a655eab1e41d6dcc41aeb3f8b72a02142c0d9d54a0568",
      "transactionType": "CALL",
      "contractName": null,
      "contractAddress": "0xaf6d8b4577b61a3f389f96d9932156ea9632ccc8",
      "function": "createVault()",
      "arguments": [],
      "transaction": {
        "from": "0x000ef5f21dc574226a06c76aae7060642a30eb74",
        "to": "0xaf6d8b4577b61a3f389f96d9932156ea9632ccc8",
        "gas": "0x2be542",
        "value": "0x0",
        "input": "0x5d12928b",
        "nonce": "0x6e",
        "chainId": "0x66eee"
      },
      "additionalContracts": [],
      "isFixedGasLimit": false
    },
    {
      "hash": "0x1a7fc5aac3c540f2d863a36982a8fae6218c2add2bf0b8952e00d3940167952a",
      "transactionType": "CALL",
      "contractName": null,
      "contractAddress": "0xaf6d8b4577b61a3f389f96d9932156ea9632ccc8",
      "function": "createSpokeChainAccount(uint256,uint256)",
      "arguments": [
        "0",
        "11155420"
      ],
      "transaction": {
        "from": "0x000ef5f21dc574226a06c76aae7060642a30eb74",
        "to": "0xaf6d8b4577b61a3f389f96d9932156ea9632ccc8",
        "gas": "0x57357",
        "value": "0x16345785d8a0000",
        "input": "0x484cd3b200000000000000000000000000000000000000000000000000000000000000000000000000000000000000000000000000000000000000000000000000aa37dc",
        "nonce": "0x6f",
        "chainId": "0x66eee"
      },
      "additionalContracts": [],
      "isFixedGasLimit": false
    }
  ],
  "receipts": [
    {
      "status": "0x1",
      "cumulativeGasUsed": "0x213400",
      "logs": [
        {
          "address": "0xaf6d8b4577b61a3f389f96d9932156ea9632ccc8",
          "topics": [
            "0xddf252ad1be2c89b69c2b068fc378daa952ba7f163c4a11628f55a4df523b3ef",
            "0x0000000000000000000000000000000000000000000000000000000000000000",
            "0x000000000000000000000000af6d8b4577b61a3f389f96d9932156ea9632ccc8",
            "0x0000000000000000000000000000000000000000000000000000000000000000"
          ],
          "data": "0x",
          "blockHash": "0x62777e2c73354cd2635aa7de6f34d241aa16344e98c89324c0a5eb25bb734c01",
          "blockNumber": "0x55d379a",
          "transactionHash": "0x7cafa1b6211fad53955a655eab1e41d6dcc41aeb3f8b72a02142c0d9d54a0568",
          "transactionIndex": "0x1",
          "logIndex": "0x0",
          "removed": false
        },
        {
          "address": "0x92b89b44f944d1d0259a3e06e30caa4c369d0c78",
          "topics": [
            "0x8be0079c531659141344cd1fd0a4f28419497f9722a3daafe3b4186f6b6457e0",
            "0x0000000000000000000000000000000000000000000000000000000000000000",
            "0x000000000000000000000000000ef5f21dc574226a06c76aae7060642a30eb74"
          ],
          "data": "0x",
          "blockHash": "0x62777e2c73354cd2635aa7de6f34d241aa16344e98c89324c0a5eb25bb734c01",
          "blockNumber": "0x55d379a",
          "transactionHash": "0x7cafa1b6211fad53955a655eab1e41d6dcc41aeb3f8b72a02142c0d9d54a0568",
          "transactionIndex": "0x1",
          "logIndex": "0x1",
          "removed": false
        },
        {
          "address": "0x6edce65403992e310a62460808c4b910d972f10f",
          "topics": [
            "0x6ee10e9ed4d6ce9742703a498707862f4b00f1396a87195eb93267b3d7983981"
          ],
          "data": "0x00000000000000000000000092b89b44f944d1d0259a3e06e30caa4c369d0c78000000000000000000000000000ef5f21dc574226a06c76aae7060642a30eb74",
          "blockHash": "0x62777e2c73354cd2635aa7de6f34d241aa16344e98c89324c0a5eb25bb734c01",
          "blockNumber": "0x55d379a",
          "transactionHash": "0x7cafa1b6211fad53955a655eab1e41d6dcc41aeb3f8b72a02142c0d9d54a0568",
          "transactionIndex": "0x1",
          "logIndex": "0x2",
          "removed": false
        },
        {
          "address": "0x92b89b44f944d1d0259a3e06e30caa4c369d0c78",
          "topics": [
            "0x3cd5ec01b1ae7cfec6ca1863e2cd6aa25d6d1702825803ff2b7cc95010fffdc2",
            "0x000000000000000000000000af6d8b4577b61a3f389f96d9932156ea9632ccc8",
            "0x000000000000000000000000bc92755e56894cc1fb2054a56e5939bad1cd3541"
          ],
          "data": "0x",
          "blockHash": "0x62777e2c73354cd2635aa7de6f34d241aa16344e98c89324c0a5eb25bb734c01",
          "blockNumber": "0x55d379a",
          "transactionHash": "0x7cafa1b6211fad53955a655eab1e41d6dcc41aeb3f8b72a02142c0d9d54a0568",
          "transactionIndex": "0x1",
          "logIndex": "0x3",
          "removed": false
        },
        {
          "address": "0xaf6d8b4577b61a3f389f96d9932156ea9632ccc8",
          "topics": [
            "0xddf252ad1be2c89b69c2b068fc378daa952ba7f163c4a11628f55a4df523b3ef",
            "0x000000000000000000000000af6d8b4577b61a3f389f96d9932156ea9632ccc8",
            "0x000000000000000000000000000ef5f21dc574226a06c76aae7060642a30eb74",
            "0x0000000000000000000000000000000000000000000000000000000000000000"
          ],
          "data": "0x",
          "blockHash": "0x62777e2c73354cd2635aa7de6f34d241aa16344e98c89324c0a5eb25bb734c01",
          "blockNumber": "0x55d379a",
          "transactionHash": "0x7cafa1b6211fad53955a655eab1e41d6dcc41aeb3f8b72a02142c0d9d54a0568",
          "transactionIndex": "0x1",
          "logIndex": "0x4",
          "removed": false
        },
        {
          "address": "0xaf6d8b4577b61a3f389f96d9932156ea9632ccc8",
          "topics": [
            "0x019b61d9140f8784f4eed1e66569335630452af2d974ceb13d3e706c07867296",
            "0x000000000000000000000000000ef5f21dc574226a06c76aae7060642a30eb74",
            "0x0000000000000000000000000000000000000000000000000000000000000000",
            "0x00000000000000000000000092b89b44f944d1d0259a3e06e30caa4c369d0c78"
          ],
          "data": "0x",
          "blockHash": "0x62777e2c73354cd2635aa7de6f34d241aa16344e98c89324c0a5eb25bb734c01",
          "blockNumber": "0x55d379a",
          "transactionHash": "0x7cafa1b6211fad53955a655eab1e41d6dcc41aeb3f8b72a02142c0d9d54a0568",
          "transactionIndex": "0x1",
          "logIndex": "0x5",
          "removed": false
        }
      ],
      "logsBloom": "0x000000000000001000000000000000000000000000000000008000000000000000000000000200002000000000000000000200020000000000000010000000004000040000001000000000080000000000010000400000000000000000000000200000000200000002400004000008000000000000000000000000100000004000000000000000204000000000200000000000000000000000000020000000000000000000000000000000080000000080000000000000000000000000000004000000020000000000000000000000004000000000000800040000000400a0000100000000400000000000000000000000000000000000000000000000000000",
      "type": "0x2",
      "transactionHash": "0x7cafa1b6211fad53955a655eab1e41d6dcc41aeb3f8b72a02142c0d9d54a0568",
      "transactionIndex": "0x1",
      "blockHash": "0x62777e2c73354cd2635aa7de6f34d241aa16344e98c89324c0a5eb25bb734c01",
      "blockNumber": "0x55d379a",
      "gasUsed": "0x213400",
      "effectiveGasPrice": "0x5f5e100",
      "from": "0x000ef5f21dc574226a06c76aae7060642a30eb74",
      "to": "0xaf6d8b4577b61a3f389f96d9932156ea9632ccc8",
      "contractAddress": null,
      "gasUsedForL1": "0x0",
      "l1BlockNumber": "0x695fde"
    },
    {
      "status": "0x1",
      "cumulativeGasUsed": "0x3f234",
      "logs": [
        {
          "address": "0x4f7cd4da19abb31b0ec98b9066b9e857b1bf9c0e",
          "topics": [
            "0x61ed099e74a97a1d7f8bb0952a88ca8b7b8ebd00c126ea04671f92a81213318a"
          ],
          "data": "0x0000000000000000000000005df3a1cebbd9c8ba7f8df51fd632a9aef8308897000000000000000000000000000000000000000000000000002af088d8f244d3",
          "blockHash": "0x26c2b8f3f5aff2b9b54aa20cea9528349b1643af48b951528ad81c953c1e4b4c",
          "blockNumber": "0x55d379c",
          "transactionHash": "0x1a7fc5aac3c540f2d863a36982a8fae6218c2add2bf0b8952e00d3940167952a",
          "transactionIndex": "0x1",
          "logIndex": "0x0",
          "removed": false
        },
        {
          "address": "0x4f7cd4da19abb31b0ec98b9066b9e857b1bf9c0e",
          "topics": [
            "0x07ea52d82345d6e838192107d8fd7123d9c2ec8e916cd0aad13fd2b60db24644"
          ],
          "data": "0x000000000000000000000000000000000000000000000000000000000000006000000000000000000000000000000000000000000000000000000000000000a000000000000000000000000000000000000000000000000000000000000000c0000000000000000000000000000000000000000000000000000000000000000100000000000000000000000053f488e93b4f1b60e8e83aa374dbe1780a1ee8a800000000000000000000000000000000000000000000000000000000000000000000000000000000000000000000000000000000000000000000000000000001000000000000000000000000000000000000000000000000000003c9b85033a8",
          "blockHash": "0x26c2b8f3f5aff2b9b54aa20cea9528349b1643af48b951528ad81c953c1e4b4c",
          "blockNumber": "0x55d379c",
          "transactionHash": "0x1a7fc5aac3c540f2d863a36982a8fae6218c2add2bf0b8952e00d3940167952a",
          "transactionIndex": "0x1",
          "logIndex": "0x1",
          "removed": false
        },
        {
          "address": "0x6edce65403992e310a62460808c4b910d972f10f",
          "topics": [
            "0x1ab700d4ced0c005b164c0f789fd09fcbb0156d4c2041b8a3bfbcd961cd1567f"
          ],
          "data": "0x000000000000000000000000000000000000000000000000000000000000006000000000000000000000000000000000000000000000000000000000000001200000000000000000000000004f7cd4da19abb31b0ec98b9066b9e857b1bf9c0e000000000000000000000000000000000000000000000000000000000000009101000000000000000100009d27000000000000000000000000af6d8b4577b61a3f389f96d9932156ea9632ccc800009d28000000000000000000000000cd055c8824ef6e9306b1f707ce2e327ae2145c5da711808b08f10a9216cbd2e0db591056e2ff2d34cf80373af8918966f9f2dca6000000000000000000000000000ef5f21dc574226a06c76aae7060642a30eb740000000000000000000000000000000000000000000000000000000000000000000000000000000000000000000026000301002101000000000000000000000000004c4b400000000000000000002386f26fc100000000000000000000000000000000000000000000000000000000",
          "blockHash": "0x26c2b8f3f5aff2b9b54aa20cea9528349b1643af48b951528ad81c953c1e4b4c",
          "blockNumber": "0x55d379c",
          "transactionHash": "0x1a7fc5aac3c540f2d863a36982a8fae6218c2add2bf0b8952e00d3940167952a",
          "transactionIndex": "0x1",
          "logIndex": "0x2",
          "removed": false
        },
        {
          "address": "0xaf6d8b4577b61a3f389f96d9932156ea9632ccc8",
          "topics": [
            "0x2d4dbc7a27a00b43846712fae107e2b01f7bcf769790c313c21214f5c036730c",
            "0x0000000000000000000000000000000000000000000000000000000000000000"
          ],
          "data": "0x0000000000000000000000000000000000000000000000000000000000aa37dc0000000000000000000000000000000000000000000000000000000000000001",
          "blockHash": "0x26c2b8f3f5aff2b9b54aa20cea9528349b1643af48b951528ad81c953c1e4b4c",
          "blockNumber": "0x55d379c",
          "transactionHash": "0x1a7fc5aac3c540f2d863a36982a8fae6218c2add2bf0b8952e00d3940167952a",
          "transactionIndex": "0x1",
          "logIndex": "0x3",
          "removed": false
        }
      ],
      "logsBloom": "0x000000000000001020000000000000000100000000000000000000400000000000000000000000002000000000000000000000000080000000000000000000000000000000000000000000000000000000000000000000000000000000000000000000000200000082000000000008000000000000000000000000000000000000000000000000204000000800000000000000000000000100000000000000000000000080000000001020000000000000000000004000000004400000000000000000000000000000000000000000000000000000000000000000000000a0000000040000000000000000000000002000000000000000000000000000000000",
      "type": "0x2",
      "transactionHash": "0x1a7fc5aac3c540f2d863a36982a8fae6218c2add2bf0b8952e00d3940167952a",
      "transactionIndex": "0x1",
      "blockHash": "0x26c2b8f3f5aff2b9b54aa20cea9528349b1643af48b951528ad81c953c1e4b4c",
      "blockNumber": "0x55d379c",
      "gasUsed": "0x3f234",
      "effectiveGasPrice": "0x5f5e100",
      "from": "0x000ef5f21dc574226a06c76aae7060642a30eb74",
      "to": "0xaf6d8b4577b61a3f389f96d9932156ea9632ccc8",
      "contractAddress": null,
      "gasUsedForL1": "0x0",
      "l1BlockNumber": "0x695fde"
    }
  ],
  "libraries": [],
  "pending": [],
  "returns": {},
  "timestamp": 1729364338,
  "chain": 421614,
  "commit": "8b6d2b6"
}