{
  "transactions": [
    {
      "hash": "0x0b219ddd59cd643ec4d2e2584766ff25ab64df9733b6d7f9b953fbbbcbc722e4",
      "transactionType": "CALL",
      "contractName": null,
      "contractAddress": "0x5d48ad1c41b32caf687716f871c4e46687605924",
      "function": "createVault(string,address,address)",
      "arguments": [
        "TEST",
        "0x0000000000000000000000000000000000000000",
        "0x0000000000000000000000000000000000000000"
      ],
      "transaction": {
        "from": "0x000ef5f21dc574226a06c76aae7060642a30eb74",
        "to": "0x5d48ad1c41b32caf687716f871c4e46687605924",
        "gas": "0x3bcced",
        "value": "0x0",
        "input": "0x522bfa1100000000000000000000000000000000000000000000000000000000000000600000000000000000000000000000000000000000000000000000000000000000000000000000000000000000000000000000000000000000000000000000000000000000000000000000000000000000000000000000000000000000000000045445535400000000000000000000000000000000000000000000000000000000",
        "nonce": "0x97",
        "chainId": "0x66eee"
      },
      "additionalContracts": [],
      "isFixedGasLimit": false
    },
    {
      "hash": null,
      "transactionType": "CALL",
      "contractName": "QuarkHubChainAccount",
      "contractAddress": "0x59d1f2ecbead222bdd72f4f7a432dabc9319edc0",
      "function": "requestNewSpokeChain(uint256,uint256)",
      "arguments": [
        "2",
        "84532"
      ],
      "transaction": {
        "from": "0x000ef5f21dc574226a06c76aae7060642a30eb74",
        "to": "0x59d1f2ecbead222bdd72f4f7a432dabc9319edc0",
        "gas": "0x6d5a",
        "value": "0x2e7f6ea0cc3b9e",
        "input": "0x3ad8771f00000000000000000000000000000000000000000000000000000000000000020000000000000000000000000000000000000000000000000000000000014a34",
        "nonce": "0x98",
        "chainId": "0x66eee"
      },
      "additionalContracts": [],
      "isFixedGasLimit": false
    }
  ],
  "receipts": [
    {
      "status": "0x1",
      "cumulativeGasUsed": "0x2d9ed9",
      "logs": [
        {
          "address": "0x5d48ad1c41b32caf687716f871c4e46687605924",
          "topics": [
            "0xddf252ad1be2c89b69c2b068fc378daa952ba7f163c4a11628f55a4df523b3ef",
            "0x0000000000000000000000000000000000000000000000000000000000000000",
            "0x0000000000000000000000005d48ad1c41b32caf687716f871c4e46687605924",
            "0x0000000000000000000000000000000000000000000000000000000000000002"
          ],
          "data": "0x",
          "blockHash": "0xd58fe237ee12c61e3ea3ced81806728c36b9ee2e687f66b6093a6772c72305cd",
          "blockNumber": "0x55f7edd",
          "transactionHash": "0x0b219ddd59cd643ec4d2e2584766ff25ab64df9733b6d7f9b953fbbbcbc722e4",
          "transactionIndex": "0x1",
          "logIndex": "0x0",
          "removed": false
        },
        {
          "address": "0x59d1f2ecbead222bdd72f4f7a432dabc9319edc0",
          "topics": [
            "0x8be0079c531659141344cd1fd0a4f28419497f9722a3daafe3b4186f6b6457e0",
            "0x0000000000000000000000000000000000000000000000000000000000000000",
            "0x000000000000000000000000000ef5f21dc574226a06c76aae7060642a30eb74"
          ],
          "data": "0x",
          "blockHash": "0xd58fe237ee12c61e3ea3ced81806728c36b9ee2e687f66b6093a6772c72305cd",
          "blockNumber": "0x55f7edd",
          "transactionHash": "0x0b219ddd59cd643ec4d2e2584766ff25ab64df9733b6d7f9b953fbbbcbc722e4",
          "transactionIndex": "0x1",
          "logIndex": "0x1",
          "removed": false
        },
        {
          "address": "0x6edce65403992e310a62460808c4b910d972f10f",
          "topics": [
            "0x6ee10e9ed4d6ce9742703a498707862f4b00f1396a87195eb93267b3d7983981"
          ],
          "data": "0x00000000000000000000000059d1f2ecbead222bdd72f4f7a432dabc9319edc0000000000000000000000000000ef5f21dc574226a06c76aae7060642a30eb74",
          "blockHash": "0xd58fe237ee12c61e3ea3ced81806728c36b9ee2e687f66b6093a6772c72305cd",
          "blockNumber": "0x55f7edd",
          "transactionHash": "0x0b219ddd59cd643ec4d2e2584766ff25ab64df9733b6d7f9b953fbbbcbc722e4",
          "transactionIndex": "0x1",
          "logIndex": "0x2",
          "removed": false
        },
        {
          "address": "0x59d1f2ecbead222bdd72f4f7a432dabc9319edc0",
          "topics": [
            "0x3cd5ec01b1ae7cfec6ca1863e2cd6aa25d6d1702825803ff2b7cc95010fffdc2",
            "0x0000000000000000000000005d48ad1c41b32caf687716f871c4e46687605924",
            "0x0000000000000000000000007f9a3050a572cf5198b7f61e6d9203b532072692"
          ],
          "data": "0x",
          "blockHash": "0xd58fe237ee12c61e3ea3ced81806728c36b9ee2e687f66b6093a6772c72305cd",
          "blockNumber": "0x55f7edd",
          "transactionHash": "0x0b219ddd59cd643ec4d2e2584766ff25ab64df9733b6d7f9b953fbbbcbc722e4",
          "transactionIndex": "0x1",
          "logIndex": "0x3",
          "removed": false
        },
        {
          "address": "0x5d48ad1c41b32caf687716f871c4e46687605924",
          "topics": [
            "0xddf252ad1be2c89b69c2b068fc378daa952ba7f163c4a11628f55a4df523b3ef",
            "0x0000000000000000000000005d48ad1c41b32caf687716f871c4e46687605924",
            "0x000000000000000000000000000ef5f21dc574226a06c76aae7060642a30eb74",
            "0x0000000000000000000000000000000000000000000000000000000000000002"
          ],
          "data": "0x",
          "blockHash": "0xd58fe237ee12c61e3ea3ced81806728c36b9ee2e687f66b6093a6772c72305cd",
          "blockNumber": "0x55f7edd",
          "transactionHash": "0x0b219ddd59cd643ec4d2e2584766ff25ab64df9733b6d7f9b953fbbbcbc722e4",
          "transactionIndex": "0x1",
          "logIndex": "0x4",
          "removed": false
        },
        {
          "address": "0x5d48ad1c41b32caf687716f871c4e46687605924",
          "topics": [
            "0x019b61d9140f8784f4eed1e66569335630452af2d974ceb13d3e706c07867296",
            "0x000000000000000000000000000ef5f21dc574226a06c76aae7060642a30eb74",
            "0x0000000000000000000000000000000000000000000000000000000000000002",
            "0x00000000000000000000000059d1f2ecbead222bdd72f4f7a432dabc9319edc0"
          ],
          "data": "0x",
          "blockHash": "0xd58fe237ee12c61e3ea3ced81806728c36b9ee2e687f66b6093a6772c72305cd",
          "blockNumber": "0x55f7edd",
          "transactionHash": "0x0b219ddd59cd643ec4d2e2584766ff25ab64df9733b6d7f9b953fbbbcbc722e4",
          "transactionIndex": "0x1",
          "logIndex": "0x5",
          "removed": false
        }
      ],
      "logsBloom": "0x04000000000000000000000000000000000000000000000000800000000000000000000000020040200400000000000000000002000000000000000010000000000004000000000000000008000000000001000040000000000000000000000000000000060000000a00000400800800000000000000002004000010000000400000000000000020000000000020000000840000000000000000000000000000200000000000000000000108000000000000000000020000000000000000000400080002000000000000000000000000000000000000000004040000040020000100000000000000000000000000000000000000008000000800000000000000",
      "type": "0x2",
      "transactionHash": "0x0b219ddd59cd643ec4d2e2584766ff25ab64df9733b6d7f9b953fbbbcbc722e4",
      "transactionIndex": "0x1",
      "blockHash": "0xd58fe237ee12c61e3ea3ced81806728c36b9ee2e687f66b6093a6772c72305cd",
      "blockNumber": "0x55f7edd",
      "gasUsed": "0x2d9ed9",
      "effectiveGasPrice": "0x5f5e100",
      "from": "0x000ef5f21dc574226a06c76aae7060642a30eb74",
      "to": "0x5d48ad1c41b32caf687716f871c4e46687605924",
      "contractAddress": null,
      "gasUsedForL1": "0x0",
      "l1BlockNumber": "0x696e36"
    }
  ],
  "libraries": [],
  "pending": [],
  "returns": {},
  "timestamp": 1729416983,
  "chain": 421614,
  "commit": "5737486"
}