{
  "transactions": [
    {
      "hash": "0x2aa8463bd53fcca6c1a385362e9097a095556b759036c65a345071c55bf33f95",
      "transactionType": "CALL",
      "contractName": null,
      "contractAddress": "0x874d42bd583304f4ec5b98ac549a3ada0f7dcdb5",
      "function": "createVault()",
      "arguments": [],
      "transaction": {
        "from": "0x000ef5f21dc574226a06c76aae7060642a30eb74",
        "to": "0x874d42bd583304f4ec5b98ac549a3ada0f7dcdb5",
        "gas": "0x2bf849",
        "value": "0x0",
        "input": "0x5d12928b",
        "nonce": "0x62",
        "chainId": "0x66eee"
      },
      "additionalContracts": [],
      "isFixedGasLimit": false
    },
    {
      "hash": "0xc9fdde33788226c31cef51baf0a69b1e660825b4ea29c51cf8e831374e229972",
      "transactionType": "CALL",
      "contractName": null,
      "contractAddress": "0x874d42bd583304f4ec5b98ac549a3ada0f7dcdb5",
      "function": "createSpokeChainAccount(uint256,uint256)",
      "arguments": [
        "0",
        "11155420"
      ],
      "transaction": {
        "from": "0x000ef5f21dc574226a06c76aae7060642a30eb74",
        "to": "0x874d42bd583304f4ec5b98ac549a3ada0f7dcdb5",
        "gas": "0x4fb4e",
        "value": "0x16345785d8a0000",
        "input": "0x484cd3b200000000000000000000000000000000000000000000000000000000000000000000000000000000000000000000000000000000000000000000000000aa37dc",
        "nonce": "0x63",
        "chainId": "0x66eee"
      },
      "additionalContracts": [],
      "isFixedGasLimit": false
    }
  ],
  "receipts": [
    {
      "status": "0x1",
      "cumulativeGasUsed": "0x213e5f",
      "logs": [
        {
          "address": "0x874d42bd583304f4ec5b98ac549a3ada0f7dcdb5",
          "topics": [
            "0xddf252ad1be2c89b69c2b068fc378daa952ba7f163c4a11628f55a4df523b3ef",
            "0x0000000000000000000000000000000000000000000000000000000000000000",
            "0x000000000000000000000000874d42bd583304f4ec5b98ac549a3ada0f7dcdb5",
            "0x0000000000000000000000000000000000000000000000000000000000000000"
          ],
          "data": "0x",
          "blockHash": "0x399b20ab0594090f3874891e2b37b98513cb13bd032deeccdf093c65bf2a1a85",
          "blockNumber": "0x55d02a3",
          "transactionHash": "0x2aa8463bd53fcca6c1a385362e9097a095556b759036c65a345071c55bf33f95",
          "transactionIndex": "0x1",
          "logIndex": "0x0",
          "removed": false
        },
        {
          "address": "0x0957b2b230a89dca1c4593796b2d4e1678488499",
          "topics": [
            "0x8be0079c531659141344cd1fd0a4f28419497f9722a3daafe3b4186f6b6457e0",
            "0x0000000000000000000000000000000000000000000000000000000000000000",
            "0x000000000000000000000000000ef5f21dc574226a06c76aae7060642a30eb74"
          ],
          "data": "0x",
          "blockHash": "0x399b20ab0594090f3874891e2b37b98513cb13bd032deeccdf093c65bf2a1a85",
          "blockNumber": "0x55d02a3",
          "transactionHash": "0x2aa8463bd53fcca6c1a385362e9097a095556b759036c65a345071c55bf33f95",
          "transactionIndex": "0x1",
          "logIndex": "0x1",
          "removed": false
        },
        {
          "address": "0x6edce65403992e310a62460808c4b910d972f10f",
          "topics": [
            "0x6ee10e9ed4d6ce9742703a498707862f4b00f1396a87195eb93267b3d7983981"
          ],
          "data": "0x0000000000000000000000000957b2b230a89dca1c4593796b2d4e1678488499000000000000000000000000000ef5f21dc574226a06c76aae7060642a30eb74",
          "blockHash": "0x399b20ab0594090f3874891e2b37b98513cb13bd032deeccdf093c65bf2a1a85",
          "blockNumber": "0x55d02a3",
          "transactionHash": "0x2aa8463bd53fcca6c1a385362e9097a095556b759036c65a345071c55bf33f95",
          "transactionIndex": "0x1",
          "logIndex": "0x2",
          "removed": false
        },
        {
          "address": "0x0957b2b230a89dca1c4593796b2d4e1678488499",
          "topics": [
            "0x3cd5ec01b1ae7cfec6ca1863e2cd6aa25d6d1702825803ff2b7cc95010fffdc2",
            "0x000000000000000000000000874d42bd583304f4ec5b98ac549a3ada0f7dcdb5",
            "0x0000000000000000000000009bc0309f84963588d42bd44fdf8a76e773699249"
          ],
          "data": "0x",
          "blockHash": "0x399b20ab0594090f3874891e2b37b98513cb13bd032deeccdf093c65bf2a1a85",
          "blockNumber": "0x55d02a3",
          "transactionHash": "0x2aa8463bd53fcca6c1a385362e9097a095556b759036c65a345071c55bf33f95",
          "transactionIndex": "0x1",
          "logIndex": "0x3",
          "removed": false
        },
        {
          "address": "0x874d42bd583304f4ec5b98ac549a3ada0f7dcdb5",
          "topics": [
            "0xddf252ad1be2c89b69c2b068fc378daa952ba7f163c4a11628f55a4df523b3ef",
            "0x000000000000000000000000874d42bd583304f4ec5b98ac549a3ada0f7dcdb5",
            "0x000000000000000000000000000ef5f21dc574226a06c76aae7060642a30eb74",
            "0x0000000000000000000000000000000000000000000000000000000000000000"
          ],
          "data": "0x",
          "blockHash": "0x399b20ab0594090f3874891e2b37b98513cb13bd032deeccdf093c65bf2a1a85",
          "blockNumber": "0x55d02a3",
          "transactionHash": "0x2aa8463bd53fcca6c1a385362e9097a095556b759036c65a345071c55bf33f95",
          "transactionIndex": "0x1",
          "logIndex": "0x4",
          "removed": false
        },
        {
          "address": "0x874d42bd583304f4ec5b98ac549a3ada0f7dcdb5",
          "topics": [
            "0x019b61d9140f8784f4eed1e66569335630452af2d974ceb13d3e706c07867296",
            "0x000000000000000000000000000ef5f21dc574226a06c76aae7060642a30eb74",
            "0x0000000000000000000000000000000000000000000000000000000000000000",
            "0x0000000000000000000000000957b2b230a89dca1c4593796b2d4e1678488499"
          ],
          "data": "0x",
          "blockHash": "0x399b20ab0594090f3874891e2b37b98513cb13bd032deeccdf093c65bf2a1a85",
          "blockNumber": "0x55d02a3",
          "transactionHash": "0x2aa8463bd53fcca6c1a385362e9097a095556b759036c65a345071c55bf33f95",
          "transactionIndex": "0x1",
          "logIndex": "0x5",
          "removed": false
        }
      ],
      "logsBloom": "0x00800000000000000000000000000000000000000000000000800000000000000000010000021000200000000000000000000002000000000000000000000000000004000000000000000008000200000001000040000080000000000000000000000000020000000200000c00000800000000000000010000000010000000400000000000000020000001000020000000000004000000000000000000000000000000000000000000000008000000000000000004000000000020000000000400000002000000000000000000000000000000000000000004000000040020000100000000000000000000008000000000000000000040000000000010000000",
      "type": "0x2",
      "transactionHash": "0x2aa8463bd53fcca6c1a385362e9097a095556b759036c65a345071c55bf33f95",
      "transactionIndex": "0x1",
      "blockHash": "0x399b20ab0594090f3874891e2b37b98513cb13bd032deeccdf093c65bf2a1a85",
      "blockNumber": "0x55d02a3",
      "gasUsed": "0x213e5f",
      "effectiveGasPrice": "0x5f5e100",
      "from": "0x000ef5f21dc574226a06c76aae7060642a30eb74",
      "to": "0x874d42bd583304f4ec5b98ac549a3ada0f7dcdb5",
      "contractAddress": null,
      "gasUsedForL1": "0xa75",
      "l1BlockNumber": "0x695e9a"
    },
    {
      "status": "0x1",
      "cumulativeGasUsed": "0x3ac49",
      "logs": [
        {
          "address": "0x4f7cd4da19abb31b0ec98b9066b9e857b1bf9c0e",
          "topics": [
            "0x61ed099e74a97a1d7f8bb0952a88ca8b7b8ebd00c126ea04671f92a81213318a"
          ],
          "data": "0x0000000000000000000000005df3a1cebbd9c8ba7f8df51fd632a9aef8308897000000000000000000000000000000000000000000000000002af088d8f244d3",
          "blockHash": "0x5236b176a7bf760008c130693d023c6cf958770d3fb45febee0753a89f6eb99c",
          "blockNumber": "0x55d02a5",
          "transactionHash": "0xc9fdde33788226c31cef51baf0a69b1e660825b4ea29c51cf8e831374e229972",
          "transactionIndex": "0x1",
          "logIndex": "0x0",
          "removed": false
        },
        {
          "address": "0x4f7cd4da19abb31b0ec98b9066b9e857b1bf9c0e",
          "topics": [
            "0x07ea52d82345d6e838192107d8fd7123d9c2ec8e916cd0aad13fd2b60db24644"
          ],
          "data": "0x000000000000000000000000000000000000000000000000000000000000006000000000000000000000000000000000000000000000000000000000000000a000000000000000000000000000000000000000000000000000000000000000c0000000000000000000000000000000000000000000000000000000000000000100000000000000000000000053f488e93b4f1b60e8e83aa374dbe1780a1ee8a800000000000000000000000000000000000000000000000000000000000000000000000000000000000000000000000000000000000000000000000000000001000000000000000000000000000000000000000000000000000003c9b85033a8",
          "blockHash": "0x5236b176a7bf760008c130693d023c6cf958770d3fb45febee0753a89f6eb99c",
          "blockNumber": "0x55d02a5",
          "transactionHash": "0xc9fdde33788226c31cef51baf0a69b1e660825b4ea29c51cf8e831374e229972",
          "transactionIndex": "0x1",
          "logIndex": "0x1",
          "removed": false
        },
        {
          "address": "0x6edce65403992e310a62460808c4b910d972f10f",
          "topics": [
            "0x1ab700d4ced0c005b164c0f789fd09fcbb0156d4c2041b8a3bfbcd961cd1567f"
          ],
          "data": "0x000000000000000000000000000000000000000000000000000000000000006000000000000000000000000000000000000000000000000000000000000001200000000000000000000000004f7cd4da19abb31b0ec98b9066b9e857b1bf9c0e000000000000000000000000000000000000000000000000000000000000009101000000000000000100009d27000000000000000000000000874d42bd583304f4ec5b98ac549a3ada0f7dcdb500009d2800000000000000000000000026f1b67f7f49626e998d5346db0ddf5117bc2753df926815bb8c20ab13f065222b77370c2b0d7a6fc9ce58e583d237673fb4c731000000000000000000000000000ef5f21dc574226a06c76aae7060642a30eb740000000000000000000000000000000000000000000000000000000000000000000000000000000000000000000026000301002101000000000000000000000000004c4b400000000000000000002386f26fc100000000000000000000000000000000000000000000000000000000",
          "blockHash": "0x5236b176a7bf760008c130693d023c6cf958770d3fb45febee0753a89f6eb99c",
          "blockNumber": "0x55d02a5",
          "transactionHash": "0xc9fdde33788226c31cef51baf0a69b1e660825b4ea29c51cf8e831374e229972",
          "transactionIndex": "0x1",
          "logIndex": "0x2",
          "removed": false
        },
        {
          "address": "0x874d42bd583304f4ec5b98ac549a3ada0f7dcdb5",
          "topics": [
            "0x2d4dbc7a27a00b43846712fae107e2b01f7bcf769790c313c21214f5c036730c",
            "0x0000000000000000000000000000000000000000000000000000000000000000"
          ],
          "data": "0x0000000000000000000000000000000000000000000000000000000000aa37dc0000000000000000000000000000000000000000000000000000000000000001",
          "blockHash": "0x5236b176a7bf760008c130693d023c6cf958770d3fb45febee0753a89f6eb99c",
          "blockNumber": "0x55d02a5",
          "transactionHash": "0xc9fdde33788226c31cef51baf0a69b1e660825b4ea29c51cf8e831374e229972",
          "transactionIndex": "0x1",
          "logIndex": "0x3",
          "removed": false
        }
      ],
      "logsBloom": "0x00800000000000002000000000000000010000000000000000000040000000000000010000000000200000000000000000000000008000000000000000000000000000000000000000000000000200000000000000000000000000000000000000000000020000008200000000000800000000000000000000000000000000000000000000000020000000080000000000000000000000010000000000000000000000008000000000102000000000000000000000400000000440000000000000000000000000000000000000000000000000000000000000000000000020000000040000000000000000000000002000000000000000000000000000000000",
      "type": "0x2",
      "transactionHash": "0xc9fdde33788226c31cef51baf0a69b1e660825b4ea29c51cf8e831374e229972",
      "transactionIndex": "0x1",
      "blockHash": "0x5236b176a7bf760008c130693d023c6cf958770d3fb45febee0753a89f6eb99c",
      "blockNumber": "0x55d02a5",
      "gasUsed": "0x3ac49",
      "effectiveGasPrice": "0x5f5e100",
      "from": "0x000ef5f21dc574226a06c76aae7060642a30eb74",
      "to": "0x874d42bd583304f4ec5b98ac549a3ada0f7dcdb5",
      "contractAddress": null,
      "gasUsedForL1": "0x10fc",
      "l1BlockNumber": "0x695e9a"
    }
  ],
  "libraries": [],
  "pending": [],
  "returns": {},
  "timestamp": 1729359684,
  "chain": 421614,
  "commit": "8b6d2b6"
}