{
  "transactions": [
    {
      "hash": "0xcf6ad0dbd644dae71a01d61ab9134f1dcfa501cb718d76182e31f83034df5004",
      "transactionType": "CALL",
      "contractName": null,
      "contractAddress": "0xbc1334118db099327fb0a2d2a6a3e701af28bf17",
      "function": "createVault()",
      "arguments": [],
      "transaction": {
        "from": "0x000ef5f21dc574226a06c76aae7060642a30eb74",
        "to": "0xbc1334118db099327fb0a2d2a6a3e701af28bf17",
        "gas": "0x2beac7",
        "value": "0x0",
        "input": "0x5d12928b",
        "nonce": "0x68",
        "chainId": "0x66eee"
      },
      "additionalContracts": [],
      "isFixedGasLimit": false
    },
    {
      "hash": "0xce7d756387dd2fb3da23c7d5c1058dff44a56cdea26fb26f610fb785bb3632cc",
      "transactionType": "CALL",
      "contractName": null,
      "contractAddress": "0xbc1334118db099327fb0a2d2a6a3e701af28bf17",
      "function": "createSpokeChainAccount(uint256,uint256)",
      "arguments": [
        "0",
        "11155420"
      ],
      "transaction": {
        "from": "0x000ef5f21dc574226a06c76aae7060642a30eb74",
        "to": "0xbc1334118db099327fb0a2d2a6a3e701af28bf17",
        "gas": "0x57357",
        "value": "0x16345785d8a0000",
        "input": "0x484cd3b200000000000000000000000000000000000000000000000000000000000000000000000000000000000000000000000000000000000000000000000000aa37dc",
        "nonce": "0x69",
        "chainId": "0x66eee"
      },
      "additionalContracts": [],
      "isFixedGasLimit": false
    }
  ],
  "receipts": [
    {
      "status": "0x1",
      "cumulativeGasUsed": "0x5311f0",
      "logs": [
        {
          "address": "0xbc1334118db099327fb0a2d2a6a3e701af28bf17",
          "topics": [
            "0xddf252ad1be2c89b69c2b068fc378daa952ba7f163c4a11628f55a4df523b3ef",
            "0x0000000000000000000000000000000000000000000000000000000000000000",
            "0x000000000000000000000000bc1334118db099327fb0a2d2a6a3e701af28bf17",
            "0x0000000000000000000000000000000000000000000000000000000000000000"
          ],
          "data": "0x",
          "blockHash": "0xbc1e1d4aac7eb70f262d6c8bb46074e438aab0250d7f7719a734d5aefda0f808",
          "blockNumber": "0x55d0bd4",
          "transactionHash": "0xcf6ad0dbd644dae71a01d61ab9134f1dcfa501cb718d76182e31f83034df5004",
          "transactionIndex": "0x2",
          "logIndex": "0x3",
          "removed": false
        },
        {
          "address": "0x289748c20f12d24a49b5469977be8b090721a64a",
          "topics": [
            "0x8be0079c531659141344cd1fd0a4f28419497f9722a3daafe3b4186f6b6457e0",
            "0x0000000000000000000000000000000000000000000000000000000000000000",
            "0x000000000000000000000000000ef5f21dc574226a06c76aae7060642a30eb74"
          ],
          "data": "0x",
          "blockHash": "0xbc1e1d4aac7eb70f262d6c8bb46074e438aab0250d7f7719a734d5aefda0f808",
          "blockNumber": "0x55d0bd4",
          "transactionHash": "0xcf6ad0dbd644dae71a01d61ab9134f1dcfa501cb718d76182e31f83034df5004",
          "transactionIndex": "0x2",
          "logIndex": "0x4",
          "removed": false
        },
        {
          "address": "0x6edce65403992e310a62460808c4b910d972f10f",
          "topics": [
            "0x6ee10e9ed4d6ce9742703a498707862f4b00f1396a87195eb93267b3d7983981"
          ],
          "data": "0x000000000000000000000000289748c20f12d24a49b5469977be8b090721a64a000000000000000000000000000ef5f21dc574226a06c76aae7060642a30eb74",
          "blockHash": "0xbc1e1d4aac7eb70f262d6c8bb46074e438aab0250d7f7719a734d5aefda0f808",
          "blockNumber": "0x55d0bd4",
          "transactionHash": "0xcf6ad0dbd644dae71a01d61ab9134f1dcfa501cb718d76182e31f83034df5004",
          "transactionIndex": "0x2",
          "logIndex": "0x5",
          "removed": false
        },
        {
          "address": "0x289748c20f12d24a49b5469977be8b090721a64a",
          "topics": [
            "0x3cd5ec01b1ae7cfec6ca1863e2cd6aa25d6d1702825803ff2b7cc95010fffdc2",
            "0x000000000000000000000000bc1334118db099327fb0a2d2a6a3e701af28bf17",
            "0x000000000000000000000000eea52e8dbaa9ddd9dcfe349c3e3e299abd549f6d"
          ],
          "data": "0x",
          "blockHash": "0xbc1e1d4aac7eb70f262d6c8bb46074e438aab0250d7f7719a734d5aefda0f808",
          "blockNumber": "0x55d0bd4",
          "transactionHash": "0xcf6ad0dbd644dae71a01d61ab9134f1dcfa501cb718d76182e31f83034df5004",
          "transactionIndex": "0x2",
          "logIndex": "0x6",
          "removed": false
        },
        {
          "address": "0xbc1334118db099327fb0a2d2a6a3e701af28bf17",
          "topics": [
            "0xddf252ad1be2c89b69c2b068fc378daa952ba7f163c4a11628f55a4df523b3ef",
            "0x000000000000000000000000bc1334118db099327fb0a2d2a6a3e701af28bf17",
            "0x000000000000000000000000000ef5f21dc574226a06c76aae7060642a30eb74",
            "0x0000000000000000000000000000000000000000000000000000000000000000"
          ],
          "data": "0x",
          "blockHash": "0xbc1e1d4aac7eb70f262d6c8bb46074e438aab0250d7f7719a734d5aefda0f808",
          "blockNumber": "0x55d0bd4",
          "transactionHash": "0xcf6ad0dbd644dae71a01d61ab9134f1dcfa501cb718d76182e31f83034df5004",
          "transactionIndex": "0x2",
          "logIndex": "0x7",
          "removed": false
        },
        {
          "address": "0xbc1334118db099327fb0a2d2a6a3e701af28bf17",
          "topics": [
            "0x019b61d9140f8784f4eed1e66569335630452af2d974ceb13d3e706c07867296",
            "0x000000000000000000000000000ef5f21dc574226a06c76aae7060642a30eb74",
            "0x0000000000000000000000000000000000000000000000000000000000000000",
            "0x000000000000000000000000289748c20f12d24a49b5469977be8b090721a64a"
          ],
          "data": "0x",
          "blockHash": "0xbc1e1d4aac7eb70f262d6c8bb46074e438aab0250d7f7719a734d5aefda0f808",
          "blockNumber": "0x55d0bd4",
          "transactionHash": "0xcf6ad0dbd644dae71a01d61ab9134f1dcfa501cb718d76182e31f83034df5004",
          "transactionIndex": "0x2",
          "logIndex": "0x8",
          "removed": false
        }
      ],
      "logsBloom": "0x00000000000000000000000000000000000000000000000000800000000000000000000000020000200001000000000000000002000000000000000020000000000004000000000000000008000100000001080050000400000000000000001000080000020000000200000400000800000000000000000000000010000090400000000008000022000000000020000000000000000000000000200000000080000000000000000000000008000000000000000000000000000000000000000400000002000000000000000000000000000000000000000004000000040020000180000000000000000000000000000000000000000000000000000000000000",
      "type": "0x2",
      "transactionHash": "0xcf6ad0dbd644dae71a01d61ab9134f1dcfa501cb718d76182e31f83034df5004",
      "transactionIndex": "0x2",
      "blockHash": "0xbc1e1d4aac7eb70f262d6c8bb46074e438aab0250d7f7719a734d5aefda0f808",
      "blockNumber": "0x55d0bd4",
      "gasUsed": "0x213704",
      "effectiveGasPrice": "0x5f5e100",
      "from": "0x000ef5f21dc574226a06c76aae7060642a30eb74",
      "to": "0xbc1334118db099327fb0a2d2a6a3e701af28bf17",
      "contractAddress": null,
      "gasUsedForL1": "0x304",
      "l1BlockNumber": "0x695ed3"
    },
    {
      "status": "0x1",
      "cumulativeGasUsed": "0x3f71a",
      "logs": [
        {
          "address": "0x4f7cd4da19abb31b0ec98b9066b9e857b1bf9c0e",
          "topics": [
            "0x61ed099e74a97a1d7f8bb0952a88ca8b7b8ebd00c126ea04671f92a81213318a"
          ],
          "data": "0x0000000000000000000000005df3a1cebbd9c8ba7f8df51fd632a9aef8308897000000000000000000000000000000000000000000000000002af088d8f244d3",
          "blockHash": "0x28e2af92e59770e993fef6a88e00c1173019c005949be24ee679cb115fa04151",
          "blockNumber": "0x55d0bd5",
          "transactionHash": "0xce7d756387dd2fb3da23c7d5c1058dff44a56cdea26fb26f610fb785bb3632cc",
          "transactionIndex": "0x1",
          "logIndex": "0x0",
          "removed": false
        },
        {
          "address": "0x4f7cd4da19abb31b0ec98b9066b9e857b1bf9c0e",
          "topics": [
            "0x07ea52d82345d6e838192107d8fd7123d9c2ec8e916cd0aad13fd2b60db24644"
          ],
          "data": "0x000000000000000000000000000000000000000000000000000000000000006000000000000000000000000000000000000000000000000000000000000000a000000000000000000000000000000000000000000000000000000000000000c0000000000000000000000000000000000000000000000000000000000000000100000000000000000000000053f488e93b4f1b60e8e83aa374dbe1780a1ee8a800000000000000000000000000000000000000000000000000000000000000000000000000000000000000000000000000000000000000000000000000000001000000000000000000000000000000000000000000000000000003c9b85033a8",
          "blockHash": "0x28e2af92e59770e993fef6a88e00c1173019c005949be24ee679cb115fa04151",
          "blockNumber": "0x55d0bd5",
          "transactionHash": "0xce7d756387dd2fb3da23c7d5c1058dff44a56cdea26fb26f610fb785bb3632cc",
          "transactionIndex": "0x1",
          "logIndex": "0x1",
          "removed": false
        },
        {
          "address": "0x6edce65403992e310a62460808c4b910d972f10f",
          "topics": [
            "0x1ab700d4ced0c005b164c0f789fd09fcbb0156d4c2041b8a3bfbcd961cd1567f"
          ],
          "data": "0x000000000000000000000000000000000000000000000000000000000000006000000000000000000000000000000000000000000000000000000000000001200000000000000000000000004f7cd4da19abb31b0ec98b9066b9e857b1bf9c0e000000000000000000000000000000000000000000000000000000000000009101000000000000000100009d27000000000000000000000000bc1334118db099327fb0a2d2a6a3e701af28bf1700009d28000000000000000000000000c302e1cb32c01a3449866722cf54e222528726eda67e7e671fbdb7db20732bd2fd32a15376edeb7f0aa4db174717b1765e7458fd000000000000000000000000000ef5f21dc574226a06c76aae7060642a30eb740000000000000000000000000000000000000000000000000000000000000000000000000000000000000000000026000301002101000000000000000000000000004c4b400000000000000000002386f26fc100000000000000000000000000000000000000000000000000000000",
          "blockHash": "0x28e2af92e59770e993fef6a88e00c1173019c005949be24ee679cb115fa04151",
          "blockNumber": "0x55d0bd5",
          "transactionHash": "0xce7d756387dd2fb3da23c7d5c1058dff44a56cdea26fb26f610fb785bb3632cc",
          "transactionIndex": "0x1",
          "logIndex": "0x2",
          "removed": false
        },
        {
          "address": "0xbc1334118db099327fb0a2d2a6a3e701af28bf17",
          "topics": [
            "0x2d4dbc7a27a00b43846712fae107e2b01f7bcf769790c313c21214f5c036730c",
            "0x0000000000000000000000000000000000000000000000000000000000000000"
          ],
          "data": "0x0000000000000000000000000000000000000000000000000000000000aa37dc0000000000000000000000000000000000000000000000000000000000000001",
          "blockHash": "0x28e2af92e59770e993fef6a88e00c1173019c005949be24ee679cb115fa04151",
          "blockNumber": "0x55d0bd5",
          "transactionHash": "0xce7d756387dd2fb3da23c7d5c1058dff44a56cdea26fb26f610fb785bb3632cc",
          "transactionIndex": "0x1",
          "logIndex": "0x3",
          "removed": false
        }
      ],
      "logsBloom": "0x00000000000000002000000000000000010000000000000000000040000000000000000000000000200000000000000000000000008000000000000000000000000000000000000000000000000100000000080000000000000000000000000000000000020000008200000000000800000000000000000000000000000000000000000000000020000000080000000000000000000000010000000000000000000000008000000000102000000000000000000000400000000440000000000000000000000000000000000000000000000000000000000000000000000020000080040000000000000000000000002000000000000000000000000000000000",
      "type": "0x2",
      "transactionHash": "0xce7d756387dd2fb3da23c7d5c1058dff44a56cdea26fb26f610fb785bb3632cc",
      "transactionIndex": "0x1",
      "blockHash": "0x28e2af92e59770e993fef6a88e00c1173019c005949be24ee679cb115fa04151",
      "blockNumber": "0x55d0bd5",
      "gasUsed": "0x3f71a",
      "effectiveGasPrice": "0x5f5e100",
      "from": "0x000ef5f21dc574226a06c76aae7060642a30eb74",
      "to": "0xbc1334118db099327fb0a2d2a6a3e701af28bf17",
      "contractAddress": null,
      "gasUsedForL1": "0x4e6",
      "l1BlockNumber": "0x695ed3"
    }
  ],
  "libraries": [],
  "pending": [],
  "returns": {},
  "timestamp": 1729360467,
  "chain": 421614,
  "commit": "8b6d2b6"
}