{
  "transactions": [
    {
      "hash": "0x7baba86159ac258de208f78125e650ebca06cec924242e130589d8b2c1feffad",
      "transactionType": "CALL",
      "contractName": null,
      "contractAddress": "0x8830a0373699902f8a8a4c1396151ceb2405b9a1",
      "function": "createVault()",
      "arguments": [],
      "transaction": {
        "from": "0x000ef5f21dc574226a06c76aae7060642a30eb74",
        "to": "0x8830a0373699902f8a8a4c1396151ceb2405b9a1",
        "gas": "0x2bf73c",
        "value": "0x0",
        "input": "0x5d12928b",
        "nonce": "0x56",
        "chainId": "0x66eee"
      },
      "additionalContracts": [],
      "isFixedGasLimit": false
    },
    {
      "hash": "0xb7de2520c28aeb95b7d04d1eb28c68e3516b837d37d308cd9208cbac7ac64f43",
      "transactionType": "CALL",
      "contractName": null,
      "contractAddress": "0x8830a0373699902f8a8a4c1396151ceb2405b9a1",
      "function": "createSpokeChainAccount(uint256,uint256)",
      "arguments": [
        "0",
        "84532"
      ],
      "transaction": {
        "from": "0x000ef5f21dc574226a06c76aae7060642a30eb74",
        "to": "0x8830a0373699902f8a8a4c1396151ceb2405b9a1",
        "gas": "0x4fb4e",
        "value": "0x6f05b59d3b20000",
        "input": "0x484cd3b200000000000000000000000000000000000000000000000000000000000000000000000000000000000000000000000000000000000000000000000000014a34",
        "nonce": "0x57",
        "chainId": "0x66eee"
      },
      "additionalContracts": [],
      "isFixedGasLimit": false
    }
  ],
  "receipts": [
    {
      "status": "0x1",
      "cumulativeGasUsed": "0x213dcc",
      "logs": [
        {
          "address": "0x8830a0373699902f8a8a4c1396151ceb2405b9a1",
          "topics": [
            "0xddf252ad1be2c89b69c2b068fc378daa952ba7f163c4a11628f55a4df523b3ef",
            "0x0000000000000000000000000000000000000000000000000000000000000000",
            "0x0000000000000000000000008830a0373699902f8a8a4c1396151ceb2405b9a1",
            "0x0000000000000000000000000000000000000000000000000000000000000000"
          ],
          "data": "0x",
          "blockHash": "0xece7f482c66c344f0f341c544278b3efbc48dcd055ac8a507cae51f54606c150",
          "blockNumber": "0x55cf06e",
          "transactionHash": "0x7baba86159ac258de208f78125e650ebca06cec924242e130589d8b2c1feffad",
          "transactionIndex": "0x1",
          "logIndex": "0x0",
          "removed": false
        },
        {
          "address": "0x3e8a6f996a1a17f211e58e05cf320dfa208dfb06",
          "topics": [
            "0x8be0079c531659141344cd1fd0a4f28419497f9722a3daafe3b4186f6b6457e0",
            "0x0000000000000000000000000000000000000000000000000000000000000000",
            "0x000000000000000000000000000ef5f21dc574226a06c76aae7060642a30eb74"
          ],
          "data": "0x",
          "blockHash": "0xece7f482c66c344f0f341c544278b3efbc48dcd055ac8a507cae51f54606c150",
          "blockNumber": "0x55cf06e",
          "transactionHash": "0x7baba86159ac258de208f78125e650ebca06cec924242e130589d8b2c1feffad",
          "transactionIndex": "0x1",
          "logIndex": "0x1",
          "removed": false
        },
        {
          "address": "0x6edce65403992e310a62460808c4b910d972f10f",
          "topics": [
            "0x6ee10e9ed4d6ce9742703a498707862f4b00f1396a87195eb93267b3d7983981"
          ],
          "data": "0x0000000000000000000000003e8a6f996a1a17f211e58e05cf320dfa208dfb06000000000000000000000000000ef5f21dc574226a06c76aae7060642a30eb74",
          "blockHash": "0xece7f482c66c344f0f341c544278b3efbc48dcd055ac8a507cae51f54606c150",
          "blockNumber": "0x55cf06e",
          "transactionHash": "0x7baba86159ac258de208f78125e650ebca06cec924242e130589d8b2c1feffad",
          "transactionIndex": "0x1",
          "logIndex": "0x2",
          "removed": false
        },
        {
          "address": "0x3e8a6f996a1a17f211e58e05cf320dfa208dfb06",
          "topics": [
            "0x3cd5ec01b1ae7cfec6ca1863e2cd6aa25d6d1702825803ff2b7cc95010fffdc2",
            "0x0000000000000000000000008830a0373699902f8a8a4c1396151ceb2405b9a1",
            "0x0000000000000000000000001cb1e65f9b262f8157c0d0be0544a33565d856b7"
          ],
          "data": "0x",
          "blockHash": "0xece7f482c66c344f0f341c544278b3efbc48dcd055ac8a507cae51f54606c150",
          "blockNumber": "0x55cf06e",
          "transactionHash": "0x7baba86159ac258de208f78125e650ebca06cec924242e130589d8b2c1feffad",
          "transactionIndex": "0x1",
          "logIndex": "0x3",
          "removed": false
        },
        {
          "address": "0x8830a0373699902f8a8a4c1396151ceb2405b9a1",
          "topics": [
            "0xddf252ad1be2c89b69c2b068fc378daa952ba7f163c4a11628f55a4df523b3ef",
            "0x0000000000000000000000008830a0373699902f8a8a4c1396151ceb2405b9a1",
            "0x000000000000000000000000000ef5f21dc574226a06c76aae7060642a30eb74",
            "0x0000000000000000000000000000000000000000000000000000000000000000"
          ],
          "data": "0x",
          "blockHash": "0xece7f482c66c344f0f341c544278b3efbc48dcd055ac8a507cae51f54606c150",
          "blockNumber": "0x55cf06e",
          "transactionHash": "0x7baba86159ac258de208f78125e650ebca06cec924242e130589d8b2c1feffad",
          "transactionIndex": "0x1",
          "logIndex": "0x4",
          "removed": false
        },
        {
          "address": "0x8830a0373699902f8a8a4c1396151ceb2405b9a1",
          "topics": [
            "0x019b61d9140f8784f4eed1e66569335630452af2d974ceb13d3e706c07867296",
            "0x000000000000000000000000000ef5f21dc574226a06c76aae7060642a30eb74",
            "0x0000000000000000000000000000000000000000000000000000000000000000",
            "0x0000000000000000000000003e8a6f996a1a17f211e58e05cf320dfa208dfb06"
          ],
          "data": "0x",
          "blockHash": "0xece7f482c66c344f0f341c544278b3efbc48dcd055ac8a507cae51f54606c150",
          "blockNumber": "0x55cf06e",
          "transactionHash": "0x7baba86159ac258de208f78125e650ebca06cec924242e130589d8b2c1feffad",
          "transactionIndex": "0x1",
          "logIndex": "0x5",
          "removed": false
        }
      ],
      "logsBloom": "0x00000000000000000000000000000000000000000000000000800000000000000000000000020000200000000000000000000002000000000001000000000001000004000000000000000008000000000001000040000000200000000000000000000000220000000200000400000800000010000000000000000010000000400000000000000020010000000020000004000000000000000000000000000000000000000000800000000008000000000000000000000000000000000000000400000002000000000000000000000100000000000000000004000200040020002100080000000080000000000000000000000000000000000000000012000000",
      "type": "0x2",
      "transactionHash": "0x7baba86159ac258de208f78125e650ebca06cec924242e130589d8b2c1feffad",
      "transactionIndex": "0x1",
      "blockHash": "0xece7f482c66c344f0f341c544278b3efbc48dcd055ac8a507cae51f54606c150",
      "blockNumber": "0x55cf06e",
      "gasUsed": "0x213dcc",
      "effectiveGasPrice": "0x5f5e100",
      "from": "0x000ef5f21dc574226a06c76aae7060642a30eb74",
      "to": "0x8830a0373699902f8a8a4c1396151ceb2405b9a1",
      "contractAddress": null,
      "gasUsedForL1": "0x9e2",
      "l1BlockNumber": "0x695e2c"
    },
    {
      "status": "0x1",
      "cumulativeGasUsed": "0x3ab59",
      "logs": [
        {
          "address": "0x4f7cd4da19abb31b0ec98b9066b9e857b1bf9c0e",
          "topics": [
            "0x61ed099e74a97a1d7f8bb0952a88ca8b7b8ebd00c126ea04671f92a81213318a"
          ],
          "data": "0x0000000000000000000000005df3a1cebbd9c8ba7f8df51fd632a9aef8308897000000000000000000000000000000000000000000000000002af0c6577d9a8b",
          "blockHash": "0x06d11f2914ce1d591c216ecb3b46ab1c47301ce809060ee326a2fa8f81c3e177",
          "blockNumber": "0x55cf071",
          "transactionHash": "0xb7de2520c28aeb95b7d04d1eb28c68e3516b837d37d308cd9208cbac7ac64f43",
          "transactionIndex": "0x1",
          "logIndex": "0x0",
          "removed": false
        },
        {
          "address": "0x4f7cd4da19abb31b0ec98b9066b9e857b1bf9c0e",
          "topics": [
            "0x07ea52d82345d6e838192107d8fd7123d9c2ec8e916cd0aad13fd2b60db24644"
          ],
          "data": "0x000000000000000000000000000000000000000000000000000000000000006000000000000000000000000000000000000000000000000000000000000000a000000000000000000000000000000000000000000000000000000000000000c0000000000000000000000000000000000000000000000000000000000000000100000000000000000000000053f488e93b4f1b60e8e83aa374dbe1780a1ee8a800000000000000000000000000000000000000000000000000000000000000000000000000000000000000000000000000000000000000000000000000000001000000000000000000000000000000000000000000000000000003cae878a9d8",
          "blockHash": "0x06d11f2914ce1d591c216ecb3b46ab1c47301ce809060ee326a2fa8f81c3e177",
          "blockNumber": "0x55cf071",
          "transactionHash": "0xb7de2520c28aeb95b7d04d1eb28c68e3516b837d37d308cd9208cbac7ac64f43",
          "transactionIndex": "0x1",
          "logIndex": "0x1",
          "removed": false
        },
        {
          "address": "0x6edce65403992e310a62460808c4b910d972f10f",
          "topics": [
            "0x1ab700d4ced0c005b164c0f789fd09fcbb0156d4c2041b8a3bfbcd961cd1567f"
          ],
          "data": "0x000000000000000000000000000000000000000000000000000000000000006000000000000000000000000000000000000000000000000000000000000001200000000000000000000000004f7cd4da19abb31b0ec98b9066b9e857b1bf9c0e000000000000000000000000000000000000000000000000000000000000009101000000000000000100009d270000000000000000000000008830a0373699902f8a8a4c1396151ceb2405b9a100009d35000000000000000000000000dc66edb808c3643a16f756bcc27b239d0ca55b234d24b49b9fad32c1754cb16715c32a4e48dd5a29b5b632e4d4b39a343cba11b7000000000000000000000000000ef5f21dc574226a06c76aae7060642a30eb740000000000000000000000000000000000000000000000000000000000000000000000000000000000000000000026000301002101000000000000000000000000004c4b400000000000000000002386f26fc100000000000000000000000000000000000000000000000000000000",
          "blockHash": "0x06d11f2914ce1d591c216ecb3b46ab1c47301ce809060ee326a2fa8f81c3e177",
          "blockNumber": "0x55cf071",
          "transactionHash": "0xb7de2520c28aeb95b7d04d1eb28c68e3516b837d37d308cd9208cbac7ac64f43",
          "transactionIndex": "0x1",
          "logIndex": "0x2",
          "removed": false
        },
        {
          "address": "0x8830a0373699902f8a8a4c1396151ceb2405b9a1",
          "topics": [
            "0x2d4dbc7a27a00b43846712fae107e2b01f7bcf769790c313c21214f5c036730c",
            "0x0000000000000000000000000000000000000000000000000000000000000000"
          ],
          "data": "0x0000000000000000000000000000000000000000000000000000000000014a340000000000000000000000000000000000000000000000000000000000000001",
          "blockHash": "0x06d11f2914ce1d591c216ecb3b46ab1c47301ce809060ee326a2fa8f81c3e177",
          "blockNumber": "0x55cf071",
          "transactionHash": "0xb7de2520c28aeb95b7d04d1eb28c68e3516b837d37d308cd9208cbac7ac64f43",
          "transactionIndex": "0x1",
          "logIndex": "0x3",
          "removed": false
        }
      ],
      "logsBloom": "0x00000000000000002000000000000000010000000000000000000040000000000000000000000000200000000000000000000000008000000000000000000000000000000000000000000000000000000000000000000000000000000000000000000000220000008200000000000800000000000000000000000000000000000000000000000020000000080000000004000000000000010000000000000000000000008000000000102000000000000000000000400000000440000000000000000000000000000000000000000000000000000000000000000200000020000000040000000000000000000000002000000000000000000000000000000000",
      "type": "0x2",
      "transactionHash": "0xb7de2520c28aeb95b7d04d1eb28c68e3516b837d37d308cd9208cbac7ac64f43",
      "transactionIndex": "0x1",
      "blockHash": "0x06d11f2914ce1d591c216ecb3b46ab1c47301ce809060ee326a2fa8f81c3e177",
      "blockNumber": "0x55cf071",
      "gasUsed": "0x3ab59",
      "effectiveGasPrice": "0x5f5e100",
      "from": "0x000ef5f21dc574226a06c76aae7060642a30eb74",
      "to": "0x8830a0373699902f8a8a4c1396151ceb2405b9a1",
      "contractAddress": null,
      "gasUsedForL1": "0x100c",
      "l1BlockNumber": "0x695e2c"
    }
  ],
  "libraries": [],
  "pending": [],
  "returns": {},
  "timestamp": 1729358096,
  "chain": 421614,
  "commit": "8b6d2b6"
}