{
  "transactions": [
    {
      "hash": "0x53be19ec58c51210a7711ba36f224cca69351aa6d618b99d355b5874b2207d5e",
      "transactionType": "CALL",
      "contractName": null,
      "contractAddress": "0x5d48ad1c41b32caf687716f871c4e46687605924",
      "function": "createVault(string,address,address)",
      "arguments": [
        "TEST",
        "0x0000000000000000000000000000000000000000",
        "0x0000000000000000000000000000000000000000"
      ],
      "transaction": {
        "from": "0x000ef5f21dc574226a06c76aae7060642a30eb74",
        "to": "0x5d48ad1c41b32caf687716f871c4e46687605924",
        "gas": "0x3bcced",
        "value": "0x0",
        "input": "0x522bfa1100000000000000000000000000000000000000000000000000000000000000600000000000000000000000000000000000000000000000000000000000000000000000000000000000000000000000000000000000000000000000000000000000000000000000000000000000000000000000000000000000000000000000045445535400000000000000000000000000000000000000000000000000000000",
        "nonce": "0x98",
        "chainId": "0x66eee"
      },
      "additionalContracts": [],
      "isFixedGasLimit": false
    },
    {
      "hash": null,
      "transactionType": "CALL",
      "contractName": "QuarkHubChainAccount",
      "contractAddress": "0x1d082d48c6f4cd51a277eb1467951923d0867fdc",
      "function": "requestNewSpokeChain(uint256,uint256)",
      "arguments": [
        "3",
        "84532"
      ],
      "transaction": {
        "from": "0x000ef5f21dc574226a06c76aae7060642a30eb74",
        "to": "0x1d082d48c6f4cd51a277eb1467951923d0867fdc",
        "gas": "0x6d5a",
        "value": "0x2e7f6ea0cc3b9e",
        "input": "0x3ad8771f00000000000000000000000000000000000000000000000000000000000000030000000000000000000000000000000000000000000000000000000000014a34",
        "nonce": "0x99",
        "chainId": "0x66eee"
      },
      "additionalContracts": [],
      "isFixedGasLimit": false
    }
  ],
  "receipts": [
    {
      "status": "0x1",
      "cumulativeGasUsed": "0x2d9ed9",
      "logs": [
        {
          "address": "0x5d48ad1c41b32caf687716f871c4e46687605924",
          "topics": [
            "0xddf252ad1be2c89b69c2b068fc378daa952ba7f163c4a11628f55a4df523b3ef",
            "0x0000000000000000000000000000000000000000000000000000000000000000",
            "0x0000000000000000000000005d48ad1c41b32caf687716f871c4e46687605924",
            "0x0000000000000000000000000000000000000000000000000000000000000003"
          ],
          "data": "0x",
          "blockHash": "0x0473f999c2c62d480c66109aa9dc6ff736f3eabd98d1c3663861722d1d8a511d",
          "blockNumber": "0x55f7f15",
          "transactionHash": "0x53be19ec58c51210a7711ba36f224cca69351aa6d618b99d355b5874b2207d5e",
          "transactionIndex": "0x1",
          "logIndex": "0x0",
          "removed": false
        },
        {
          "address": "0x1d082d48c6f4cd51a277eb1467951923d0867fdc",
          "topics": [
            "0x8be0079c531659141344cd1fd0a4f28419497f9722a3daafe3b4186f6b6457e0",
            "0x0000000000000000000000000000000000000000000000000000000000000000",
            "0x000000000000000000000000000ef5f21dc574226a06c76aae7060642a30eb74"
          ],
          "data": "0x",
          "blockHash": "0x0473f999c2c62d480c66109aa9dc6ff736f3eabd98d1c3663861722d1d8a511d",
          "blockNumber": "0x55f7f15",
          "transactionHash": "0x53be19ec58c51210a7711ba36f224cca69351aa6d618b99d355b5874b2207d5e",
          "transactionIndex": "0x1",
          "logIndex": "0x1",
          "removed": false
        },
        {
          "address": "0x6edce65403992e310a62460808c4b910d972f10f",
          "topics": [
            "0x6ee10e9ed4d6ce9742703a498707862f4b00f1396a87195eb93267b3d7983981"
          ],
          "data": "0x0000000000000000000000001d082d48c6f4cd51a277eb1467951923d0867fdc000000000000000000000000000ef5f21dc574226a06c76aae7060642a30eb74",
          "blockHash": "0x0473f999c2c62d480c66109aa9dc6ff736f3eabd98d1c3663861722d1d8a511d",
          "blockNumber": "0x55f7f15",
          "transactionHash": "0x53be19ec58c51210a7711ba36f224cca69351aa6d618b99d355b5874b2207d5e",
          "transactionIndex": "0x1",
          "logIndex": "0x2",
          "removed": false
        },
        {
          "address": "0x1d082d48c6f4cd51a277eb1467951923d0867fdc",
          "topics": [
            "0x3cd5ec01b1ae7cfec6ca1863e2cd6aa25d6d1702825803ff2b7cc95010fffdc2",
            "0x0000000000000000000000005d48ad1c41b32caf687716f871c4e46687605924",
            "0x0000000000000000000000007f9a3050a572cf5198b7f61e6d9203b532072692"
          ],
          "data": "0x",
          "blockHash": "0x0473f999c2c62d480c66109aa9dc6ff736f3eabd98d1c3663861722d1d8a511d",
          "blockNumber": "0x55f7f15",
          "transactionHash": "0x53be19ec58c51210a7711ba36f224cca69351aa6d618b99d355b5874b2207d5e",
          "transactionIndex": "0x1",
          "logIndex": "0x3",
          "removed": false
        },
        {
          "address": "0x5d48ad1c41b32caf687716f871c4e46687605924",
          "topics": [
            "0xddf252ad1be2c89b69c2b068fc378daa952ba7f163c4a11628f55a4df523b3ef",
            "0x0000000000000000000000005d48ad1c41b32caf687716f871c4e46687605924",
            "0x000000000000000000000000000ef5f21dc574226a06c76aae7060642a30eb74",
            "0x0000000000000000000000000000000000000000000000000000000000000003"
          ],
          "data": "0x",
          "blockHash": "0x0473f999c2c62d480c66109aa9dc6ff736f3eabd98d1c3663861722d1d8a511d",
          "blockNumber": "0x55f7f15",
          "transactionHash": "0x53be19ec58c51210a7711ba36f224cca69351aa6d618b99d355b5874b2207d5e",
          "transactionIndex": "0x1",
          "logIndex": "0x4",
          "removed": false
        },
        {
          "address": "0x5d48ad1c41b32caf687716f871c4e46687605924",
          "topics": [
            "0x019b61d9140f8784f4eed1e66569335630452af2d974ceb13d3e706c07867296",
            "0x000000000000000000000000000ef5f21dc574226a06c76aae7060642a30eb74",
            "0x0000000000000000000000000000000000000000000000000000000000000003",
            "0x0000000000000000000000001d082d48c6f4cd51a277eb1467951923d0867fdc"
          ],
          "data": "0x",
          "blockHash": "0x0473f999c2c62d480c66109aa9dc6ff736f3eabd98d1c3663861722d1d8a511d",
          "blockNumber": "0x55f7f15",
          "transactionHash": "0x53be19ec58c51210a7711ba36f224cca69351aa6d618b99d355b5874b2207d5e",
          "transactionIndex": "0x1",
          "logIndex": "0x5",
          "removed": false
        }
      ],
      "logsBloom": "0x00000000000000000000000000000000000000000000000000800000000000000000000000020000200400000000000000000002020000000000000010000000000004000000000000000008000000000001000040000000000002000000000000020000020000000a00000400800800000000000000002000000010000000400000000000000020000040000020000000840000000000000000000000000000000000000000000000000008000000000000000008800000000000000000400400000002000000000000000000000000100000000000000004042000040020000100000000000000000000000000000000000000000000000800000000000000",
      "type": "0x2",
      "transactionHash": "0x53be19ec58c51210a7711ba36f224cca69351aa6d618b99d355b5874b2207d5e",
      "transactionIndex": "0x1",
      "blockHash": "0x0473f999c2c62d480c66109aa9dc6ff736f3eabd98d1c3663861722d1d8a511d",
      "blockNumber": "0x55f7f15",
      "gasUsed": "0x2d9ed9",
      "effectiveGasPrice": "0x5f5e100",
      "from": "0x000ef5f21dc574226a06c76aae7060642a30eb74",
      "to": "0x5d48ad1c41b32caf687716f871c4e46687605924",
      "contractAddress": null,
      "gasUsedForL1": "0x0",
      "l1BlockNumber": "0x696e37"
    }
  ],
  "libraries": [],
  "pending": [],
  "returns": {},
  "timestamp": 1729417000,
  "chain": 421614,
  "commit": "5737486"
}