{
  "transactions": [
    {
      "hash": "0x8fb2e2adc36c426a8c41988a13ed98cca3e0c6532cbeccd4c196cc7c2cd6d44d",
      "transactionType": "CALL",
      "contractName": null,
      "contractAddress": "0x1647c455e79dbff1fc6ae3be08235f7f1f455e12",
      "function": "createVault(string,address,address)",
      "arguments": [
        "TEST",
        "0x0000000000000000000000000000000000000000",
        "0x0000000000000000000000000000000000000000"
      ],
      "transaction": {
        "from": "0x000ef5f21dc574226a06c76aae7060642a30eb74",
        "to": "0x1647c455e79dbff1fc6ae3be08235f7f1f455e12",
        "gas": "0x3c7bf9",
        "value": "0x0",
        "input": "0x522bfa1100000000000000000000000000000000000000000000000000000000000000600000000000000000000000000000000000000000000000000000000000000000000000000000000000000000000000000000000000000000000000000000000000000000000000000000000000000000000000000000000000000000000000045445535400000000000000000000000000000000000000000000000000000000",
        "nonce": "0xa1",
        "chainId": "0x66eee"
      },
      "additionalContracts": [],
      "isFixedGasLimit": false
    },
    {
      "hash": null,
      "transactionType": "CALL",
      "contractName": "QuarkHubChainAccount",
      "contractAddress": "0xe90f36fde34d237645fc4fbb8bc7474e3de690f6",
      "function": "requestNewSpokeChain(uint256,uint256)",
      "arguments": [
        "0",
        "11155111"
      ],
      "transaction": {
        "from": "0x000ef5f21dc574226a06c76aae7060642a30eb74",
        "to": "0xe90f36fde34d237645fc4fbb8bc7474e3de690f6",
        "gas": "0x6d4a",
        "value": "0x2e7f6ea0cc3b9e",
        "input": "0x3ad8771f00000000000000000000000000000000000000000000000000000000000000000000000000000000000000000000000000000000000000000000000000aa36a7",
        "nonce": "0xa2",
        "chainId": "0x66eee"
      },
      "additionalContracts": [],
      "isFixedGasLimit": false
    }
  ],
  "receipts": [
    {
      "status": "0x1",
      "cumulativeGasUsed": "0x2e2471",
      "logs": [
        {
          "address": "0x1647c455e79dbff1fc6ae3be08235f7f1f455e12",
          "topics": [
            "0xddf252ad1be2c89b69c2b068fc378daa952ba7f163c4a11628f55a4df523b3ef",
            "0x0000000000000000000000000000000000000000000000000000000000000000",
            "0x0000000000000000000000001647c455e79dbff1fc6ae3be08235f7f1f455e12",
            "0x0000000000000000000000000000000000000000000000000000000000000000"
          ],
          "data": "0x",
          "blockHash": "0x463b8ee3646a21d6f070fcb1a81274d7d7d4509ddb59637d408c39a19f994404",
          "blockNumber": "0x55fbdf4",
          "transactionHash": "0x8fb2e2adc36c426a8c41988a13ed98cca3e0c6532cbeccd4c196cc7c2cd6d44d",
          "transactionIndex": "0x1",
          "logIndex": "0x0",
          "removed": false
        },
        {
          "address": "0xe90f36fde34d237645fc4fbb8bc7474e3de690f6",
          "topics": [
            "0x8be0079c531659141344cd1fd0a4f28419497f9722a3daafe3b4186f6b6457e0",
            "0x0000000000000000000000000000000000000000000000000000000000000000",
            "0x000000000000000000000000000ef5f21dc574226a06c76aae7060642a30eb74"
          ],
          "data": "0x",
          "blockHash": "0x463b8ee3646a21d6f070fcb1a81274d7d7d4509ddb59637d408c39a19f994404",
          "blockNumber": "0x55fbdf4",
          "transactionHash": "0x8fb2e2adc36c426a8c41988a13ed98cca3e0c6532cbeccd4c196cc7c2cd6d44d",
          "transactionIndex": "0x1",
          "logIndex": "0x1",
          "removed": false
        },
        {
          "address": "0x6edce65403992e310a62460808c4b910d972f10f",
          "topics": [
            "0x6ee10e9ed4d6ce9742703a498707862f4b00f1396a87195eb93267b3d7983981"
          ],
          "data": "0x000000000000000000000000e90f36fde34d237645fc4fbb8bc7474e3de690f6000000000000000000000000000ef5f21dc574226a06c76aae7060642a30eb74",
          "blockHash": "0x463b8ee3646a21d6f070fcb1a81274d7d7d4509ddb59637d408c39a19f994404",
          "blockNumber": "0x55fbdf4",
          "transactionHash": "0x8fb2e2adc36c426a8c41988a13ed98cca3e0c6532cbeccd4c196cc7c2cd6d44d",
          "transactionIndex": "0x1",
          "logIndex": "0x2",
          "removed": false
        },
        {
          "address": "0xe90f36fde34d237645fc4fbb8bc7474e3de690f6",
          "topics": [
            "0x3cd5ec01b1ae7cfec6ca1863e2cd6aa25d6d1702825803ff2b7cc95010fffdc2",
            "0x0000000000000000000000001647c455e79dbff1fc6ae3be08235f7f1f455e12",
            "0x00000000000000000000000046758807a94bef96aa144cac2f33a23a0ad68d0c"
          ],
          "data": "0x",
          "blockHash": "0x463b8ee3646a21d6f070fcb1a81274d7d7d4509ddb59637d408c39a19f994404",
          "blockNumber": "0x55fbdf4",
          "transactionHash": "0x8fb2e2adc36c426a8c41988a13ed98cca3e0c6532cbeccd4c196cc7c2cd6d44d",
          "transactionIndex": "0x1",
          "logIndex": "0x3",
          "removed": false
        },
        {
          "address": "0x1647c455e79dbff1fc6ae3be08235f7f1f455e12",
          "topics": [
            "0xddf252ad1be2c89b69c2b068fc378daa952ba7f163c4a11628f55a4df523b3ef",
            "0x0000000000000000000000001647c455e79dbff1fc6ae3be08235f7f1f455e12",
            "0x000000000000000000000000000ef5f21dc574226a06c76aae7060642a30eb74",
            "0x0000000000000000000000000000000000000000000000000000000000000000"
          ],
          "data": "0x",
          "blockHash": "0x463b8ee3646a21d6f070fcb1a81274d7d7d4509ddb59637d408c39a19f994404",
          "blockNumber": "0x55fbdf4",
          "transactionHash": "0x8fb2e2adc36c426a8c41988a13ed98cca3e0c6532cbeccd4c196cc7c2cd6d44d",
          "transactionIndex": "0x1",
          "logIndex": "0x4",
          "removed": false
        },
        {
          "address": "0x1647c455e79dbff1fc6ae3be08235f7f1f455e12",
          "topics": [
            "0x019b61d9140f8784f4eed1e66569335630452af2d974ceb13d3e706c07867296",
            "0x000000000000000000000000000ef5f21dc574226a06c76aae7060642a30eb74",
            "0x0000000000000000000000000000000000000000000000000000000000000000",
            "0x000000000000000000000000e90f36fde34d237645fc4fbb8bc7474e3de690f6"
          ],
          "data": "0x",
          "blockHash": "0x463b8ee3646a21d6f070fcb1a81274d7d7d4509ddb59637d408c39a19f994404",
          "blockNumber": "0x55fbdf4",
          "transactionHash": "0x8fb2e2adc36c426a8c41988a13ed98cca3e0c6532cbeccd4c196cc7c2cd6d44d",
          "transactionIndex": "0x1",
          "logIndex": "0x5",
          "removed": false
        }
      ],
      "logsBloom": "0x00000000000000000000000000000000000000000000000000c0800000000000000000040002000020000000000000000002000200000000000000000000000000000400800000000000000800000000000100004000000000000000000000000000000802800000020000040000080000000000000000000000001000000040000000001000002000000000002000000000040000000000000000000000010000000000000000000000000800000000000000000000000020000000000000040004000200000000000000000000000000000000000000000c000000040020000110000000000000000000200000000000000000000000000000000000000000",
      "type": "0x2",
      "transactionHash": "0x8fb2e2adc36c426a8c41988a13ed98cca3e0c6532cbeccd4c196cc7c2cd6d44d",
      "transactionIndex": "0x1",
      "blockHash": "0x463b8ee3646a21d6f070fcb1a81274d7d7d4509ddb59637d408c39a19f994404",
      "blockNumber": "0x55fbdf4",
      "gasUsed": "0x2e2471",
      "effectiveGasPrice": "0x5f5e100",
      "from": "0x000ef5f21dc574226a06c76aae7060642a30eb74",
      "to": "0x1647c455e79dbff1fc6ae3be08235f7f1f455e12",
      "contractAddress": null,
      "gasUsedForL1": "0x0",
      "l1BlockNumber": "0x696fb3"
    }
  ],
  "libraries": [],
  "pending": [],
  "returns": {},
  "timestamp": 1729422280,
  "chain": 421614,
  "commit": "e0d67c1"
}