{
  "transactions": [
    {
      "hash": "0xd76ce9c4f937b48510eab8225661a7ae99cbc80a3697cdec134c2e80a69230ac",
      "transactionType": "CALL",
      "contractName": null,
      "contractAddress": "0xcd055c8824ef6e9306b1f707ce2e327ae2145c5d",
      "function": "createVault(string,address,address)",
      "arguments": [
        "TEST",
        "0x0000000000000000000000000000000000000000",
        "0x0000000000000000000000000000000000000000"
      ],
      "transaction": {
        "from": "0x000ef5f21dc574226a06c76aae7060642a30eb74",
        "to": "0xcd055c8824ef6e9306b1f707ce2e327ae2145c5d",
        "gas": "0x4029d9",
        "value": "0x0",
        "input": "0x522bfa1100000000000000000000000000000000000000000000000000000000000000600000000000000000000000000000000000000000000000000000000000000000000000000000000000000000000000000000000000000000000000000000000000000000000000000000000000000000000000000000000000000000000000045445535400000000000000000000000000000000000000000000000000000000",
        "nonce": "0x16",
        "chainId": "0x515"
      },
      "additionalContracts": [],
      "isFixedGasLimit": false
    }
  ],
  "receipts": [
    {
      "status": "0x1",
      "cumulativeGasUsed": "0x2f22f1",
      "logs": [
        {
          "address": "0xcd055c8824ef6e9306b1f707ce2e327ae2145c5d",
          "topics": [
            "0xddf252ad1be2c89b69c2b068fc378daa952ba7f163c4a11628f55a4df523b3ef",
            "0x0000000000000000000000000000000000000000000000000000000000000000",
            "0x000000000000000000000000cd055c8824ef6e9306b1f707ce2e327ae2145c5d",
            "0x0000000000000000000000000000000000000000000000000000000000000000"
          ],
          "data": "0x",
          "blockHash": "0x3751a416031bb11c074aaeafd6366e8c577e54356f7f9252c2358f4874ff18d1",
          "blockNumber": "0x27700c",
          "transactionHash": "0xd76ce9c4f937b48510eab8225661a7ae99cbc80a3697cdec134c2e80a69230ac",
          "transactionIndex": "0x1",
          "logIndex": "0x0",
          "removed": false
        },
        {
          "address": "0xf8584818b85c5c1346daca62ffdc9d03f935fac1",
          "topics": [
            "0x8be0079c531659141344cd1fd0a4f28419497f9722a3daafe3b4186f6b6457e0",
            "0x0000000000000000000000000000000000000000000000000000000000000000",
            "0x000000000000000000000000000ef5f21dc574226a06c76aae7060642a30eb74"
          ],
          "data": "0x",
          "blockHash": "0x3751a416031bb11c074aaeafd6366e8c577e54356f7f9252c2358f4874ff18d1",
          "blockNumber": "0x27700c",
          "transactionHash": "0xd76ce9c4f937b48510eab8225661a7ae99cbc80a3697cdec134c2e80a69230ac",
          "transactionIndex": "0x1",
          "logIndex": "0x1",
          "removed": false
        },
        {
          "address": "0xb8815f3f882614048cbe201a67ef9c6f10fe5035",
          "topics": [
            "0x6ee10e9ed4d6ce9742703a498707862f4b00f1396a87195eb93267b3d7983981"
          ],
          "data": "0x000000000000000000000000f8584818b85c5c1346daca62ffdc9d03f935fac1000000000000000000000000000ef5f21dc574226a06c76aae7060642a30eb74",
          "blockHash": "0x3751a416031bb11c074aaeafd6366e8c577e54356f7f9252c2358f4874ff18d1",
          "blockNumber": "0x27700c",
          "transactionHash": "0xd76ce9c4f937b48510eab8225661a7ae99cbc80a3697cdec134c2e80a69230ac",
          "transactionIndex": "0x1",
          "logIndex": "0x2",
          "removed": false
        },
        {
          "address": "0xf8584818b85c5c1346daca62ffdc9d03f935fac1",
          "topics": [
            "0x3cd5ec01b1ae7cfec6ca1863e2cd6aa25d6d1702825803ff2b7cc95010fffdc2",
            "0x000000000000000000000000cd055c8824ef6e9306b1f707ce2e327ae2145c5d",
            "0x000000000000000000000000c302e1cb32c01a3449866722cf54e222528726ed"
          ],
          "data": "0x",
          "blockHash": "0x3751a416031bb11c074aaeafd6366e8c577e54356f7f9252c2358f4874ff18d1",
          "blockNumber": "0x27700c",
          "transactionHash": "0xd76ce9c4f937b48510eab8225661a7ae99cbc80a3697cdec134c2e80a69230ac",
          "transactionIndex": "0x1",
          "logIndex": "0x3",
          "removed": false
        },
        {
          "address": "0xcd055c8824ef6e9306b1f707ce2e327ae2145c5d",
          "topics": [
            "0xddf252ad1be2c89b69c2b068fc378daa952ba7f163c4a11628f55a4df523b3ef",
            "0x000000000000000000000000cd055c8824ef6e9306b1f707ce2e327ae2145c5d",
            "0x000000000000000000000000000ef5f21dc574226a06c76aae7060642a30eb74",
            "0x0000000000000000000000000000000000000000000000000000000000000000"
          ],
          "data": "0x",
          "blockHash": "0x3751a416031bb11c074aaeafd6366e8c577e54356f7f9252c2358f4874ff18d1",
          "blockNumber": "0x27700c",
          "transactionHash": "0xd76ce9c4f937b48510eab8225661a7ae99cbc80a3697cdec134c2e80a69230ac",
          "transactionIndex": "0x1",
          "logIndex": "0x4",
          "removed": false
        },
        {
          "address": "0xcd055c8824ef6e9306b1f707ce2e327ae2145c5d",
          "topics": [
            "0x019b61d9140f8784f4eed1e66569335630452af2d974ceb13d3e706c07867296",
            "0x000000000000000000000000000ef5f21dc574226a06c76aae7060642a30eb74",
            "0x0000000000000000000000000000000000000000000000000000000000000000",
            "0x000000000000000000000000f8584818b85c5c1346daca62ffdc9d03f935fac1"
          ],
          "data": "0x",
          "blockHash": "0x3751a416031bb11c074aaeafd6366e8c577e54356f7f9252c2358f4874ff18d1",
          "blockNumber": "0x27700c",
          "transactionHash": "0xd76ce9c4f937b48510eab8225661a7ae99cbc80a3697cdec134c2e80a69230ac",
          "transactionIndex": "0x1",
          "logIndex": "0x5",
          "removed": false
        }
      ],
      "logsBloom": "0x00000008000000000000000000000000000000000000000000800000020000000000000000020000000000000000000000000002000800000000800000000000000004000008000000000008000000000001800040000000000000000000000000000000020000000000000400000800000800000000100000000030000000400000000000000004000000000024000000000000000000000000000000000000000008000000000800008008000000000000000000000000000000000000000400000002000000000000000000000000000000000000000004000000840228000100000000000040000000000000000000000000000000000000000000000000",
      "type": "0x2",
      "transactionHash": "0xd76ce9c4f937b48510eab8225661a7ae99cbc80a3697cdec134c2e80a69230ac",
      "transactionIndex": "0x1",
      "blockHash": "0x3751a416031bb11c074aaeafd6366e8c577e54356f7f9252c2358f4874ff18d1",
      "blockNumber": "0x27700c",
      "gasUsed": "0x2e778b",
      "effectiveGasPrice": "0xf433c",
      "from": "0x000ef5f21dc574226a06c76aae7060642a30eb74",
      "to": "0xcd055c8824ef6e9306b1f707ce2e327ae2145c5d",
      "contractAddress": null,
      "l1BaseFeeScalar": "0x7d0",
      "l1BlobBaseFee": "0x1",
      "l1BlobBaseFeeScalar": "0xdbba0",
      "l1Fee": "0x22b8cf673",
      "l1GasPrice": "0xad9c0ce8",
      "l1GasUsed": "0x640"
    }
  ],
  "libraries": [],
  "pending": [],
  "returns": {},
  "timestamp": 1729437025,
  "chain": 1301,
  "commit": "2c26584"
}