{
  "transactions": [
    {
      "hash": "0x4653f2020bfe602cac25d0ae7d3540aa68481b6cd0aeff392d3c3032fd723fa8",
      "transactionType": "CALL",
      "contractName": null,
      "contractAddress": "0x9f0a79c5a1fb5f7e2221ddda85362f97ff847f66",
      "function": "createVault(string,address,address)",
      "arguments": [
        "TEST",
        "0x0000000000000000000000000000000000000000",
        "0x0000000000000000000000000000000000000000"
      ],
      "transaction": {
        "from": "0x000ef5f21dc574226a06c76aae7060642a30eb74",
        "to": "0x9f0a79c5a1fb5f7e2221ddda85362f97ff847f66",
        "gas": "0x437693",
        "value": "0x0",
        "input": "0x522bfa1100000000000000000000000000000000000000000000000000000000000000600000000000000000000000000000000000000000000000000000000000000000000000000000000000000000000000000000000000000000000000000000000000000000000000000000000000000000000000000000000000000000000000045445535400000000000000000000000000000000000000000000000000000000",
        "nonce": "0x10",
        "chainId": "0x515"
      },
      "additionalContracts": [],
      "isFixedGasLimit": false
    },
    {
      "hash": "0xa35565af614266ae8c433cc2f224963e5705b6ce190efa58f35087a6f4238f1f",
      "transactionType": "CALL",
      "contractName": "QuarkHubChainAccount",
      "contractAddress": "0xa3cc6b7d5381de6e41e41d1afd352981dc1597c3",
      "function": "requestNewSpokeChain(uint256,uint256)",
      "arguments": [
        "0",
        "11155111"
      ],
      "transaction": {
        "from": "0x000ef5f21dc574226a06c76aae7060642a30eb74",
        "to": "0xa3cc6b7d5381de6e41e41d1afd352981dc1597c3",
        "gas": "0x553c2",
        "value": "0x2e7f6ea0cc3b9e",
        "input": "0x3ad8771f00000000000000000000000000000000000000000000000000000000000000000000000000000000000000000000000000000000000000000000000000aa36a7",
        "nonce": "0x11",
        "chainId": "0x515"
      },
      "additionalContracts": [],
      "isFixedGasLimit": false
    }
  ],
  "receipts": [
    {
      "status": "0x1",
      "cumulativeGasUsed": "0x313f38",
      "logs": [
        {
          "address": "0x9f0a79c5a1fb5f7e2221ddda85362f97ff847f66",
          "topics": [
            "0xddf252ad1be2c89b69c2b068fc378daa952ba7f163c4a11628f55a4df523b3ef",
            "0x0000000000000000000000000000000000000000000000000000000000000000",
            "0x0000000000000000000000009f0a79c5a1fb5f7e2221ddda85362f97ff847f66",
            "0x0000000000000000000000000000000000000000000000000000000000000000"
          ],
          "data": "0x",
          "blockHash": "0x80f182846e7e8d79453ab36713605a41280b0f47f3804457427774a30d047996",
          "blockNumber": "0x2743e0",
          "transactionHash": "0x4653f2020bfe602cac25d0ae7d3540aa68481b6cd0aeff392d3c3032fd723fa8",
          "transactionIndex": "0x5",
          "logIndex": "0x2",
          "removed": false
        },
        {
          "address": "0xa3cc6b7d5381de6e41e41d1afd352981dc1597c3",
          "topics": [
            "0x8be0079c531659141344cd1fd0a4f28419497f9722a3daafe3b4186f6b6457e0",
            "0x0000000000000000000000000000000000000000000000000000000000000000",
            "0x000000000000000000000000000ef5f21dc574226a06c76aae7060642a30eb74"
          ],
          "data": "0x",
          "blockHash": "0x80f182846e7e8d79453ab36713605a41280b0f47f3804457427774a30d047996",
          "blockNumber": "0x2743e0",
          "transactionHash": "0x4653f2020bfe602cac25d0ae7d3540aa68481b6cd0aeff392d3c3032fd723fa8",
          "transactionIndex": "0x5",
          "logIndex": "0x3",
          "removed": false
        },
        {
          "address": "0xb8815f3f882614048cbe201a67ef9c6f10fe5035",
          "topics": [
            "0x6ee10e9ed4d6ce9742703a498707862f4b00f1396a87195eb93267b3d7983981"
          ],
          "data": "0x000000000000000000000000a3cc6b7d5381de6e41e41d1afd352981dc1597c3000000000000000000000000000ef5f21dc574226a06c76aae7060642a30eb74",
          "blockHash": "0x80f182846e7e8d79453ab36713605a41280b0f47f3804457427774a30d047996",
          "blockNumber": "0x2743e0",
          "transactionHash": "0x4653f2020bfe602cac25d0ae7d3540aa68481b6cd0aeff392d3c3032fd723fa8",
          "transactionIndex": "0x5",
          "logIndex": "0x4",
          "removed": false
        },
        {
          "address": "0xa3cc6b7d5381de6e41e41d1afd352981dc1597c3",
          "topics": [
            "0x3cd5ec01b1ae7cfec6ca1863e2cd6aa25d6d1702825803ff2b7cc95010fffdc2",
            "0x0000000000000000000000009f0a79c5a1fb5f7e2221ddda85362f97ff847f66",
            "0x00000000000000000000000068a4ac5f5942744bcbd51482f9b81e9fa3408139"
          ],
          "data": "0x",
          "blockHash": "0x80f182846e7e8d79453ab36713605a41280b0f47f3804457427774a30d047996",
          "blockNumber": "0x2743e0",
          "transactionHash": "0x4653f2020bfe602cac25d0ae7d3540aa68481b6cd0aeff392d3c3032fd723fa8",
          "transactionIndex": "0x5",
          "logIndex": "0x5",
          "removed": false
        },
        {
          "address": "0x9f0a79c5a1fb5f7e2221ddda85362f97ff847f66",
          "topics": [
            "0xddf252ad1be2c89b69c2b068fc378daa952ba7f163c4a11628f55a4df523b3ef",
            "0x0000000000000000000000009f0a79c5a1fb5f7e2221ddda85362f97ff847f66",
            "0x000000000000000000000000000ef5f21dc574226a06c76aae7060642a30eb74",
            "0x0000000000000000000000000000000000000000000000000000000000000000"
          ],
          "data": "0x",
          "blockHash": "0x80f182846e7e8d79453ab36713605a41280b0f47f3804457427774a30d047996",
          "blockNumber": "0x2743e0",
          "transactionHash": "0x4653f2020bfe602cac25d0ae7d3540aa68481b6cd0aeff392d3c3032fd723fa8",
          "transactionIndex": "0x5",
          "logIndex": "0x6",
          "removed": false
        },
        {
          "address": "0x9f0a79c5a1fb5f7e2221ddda85362f97ff847f66",
          "topics": [
            "0x019b61d9140f8784f4eed1e66569335630452af2d974ceb13d3e706c07867296",
            "0x000000000000000000000000000ef5f21dc574226a06c76aae7060642a30eb74",
            "0x0000000000000000000000000000000000000000000000000000000000000000",
            "0x000000000000000000000000a3cc6b7d5381de6e41e41d1afd352981dc1597c3"
          ],
          "data": "0x",
          "blockHash": "0x80f182846e7e8d79453ab36713605a41280b0f47f3804457427774a30d047996",
          "blockNumber": "0x2743e0",
          "transactionHash": "0x4653f2020bfe602cac25d0ae7d3540aa68481b6cd0aeff392d3c3032fd723fa8",
          "transactionIndex": "0x5",
          "logIndex": "0x7",
          "removed": false
        }
      ],
      "logsBloom": "0x00000000000000000000000000000000000000000000000000800000000000001000000000020020000000000000100000000002000020000000000000000000000004000008000000000008000000000001000040000000000000000000000000000000020000200010000400000800000000000000000000000010000000400000080000000004000000000020000000000000000000000000000000000000000000000000000000000008000000000000000080000000000000000000000400000042000000000000000000000000000000000000004004000000040028202100000000000000000000000000000000000000000000044000000000000010",
      "type": "0x2",
      "transactionHash": "0x4653f2020bfe602cac25d0ae7d3540aa68481b6cd0aeff392d3c3032fd723fa8",
      "transactionIndex": "0x5",
      "blockHash": "0x80f182846e7e8d79453ab36713605a41280b0f47f3804457427774a30d047996",
      "blockNumber": "0x2743e0",
      "gasUsed": "0x2e2471",
      "effectiveGasPrice": "0xf433c",
      "from": "0x000ef5f21dc574226a06c76aae7060642a30eb74",
      "to": "0x9f0a79c5a1fb5f7e2221ddda85362f97ff847f66",
      "contractAddress": null,
      "l1BaseFeeScalar": "0x7d0",
      "l1BlobBaseFee": "0x1",
      "l1BlobBaseFeeScalar": "0xdbba0",
      "l1Fee": "0x2c0d089a3",
      "l1GasPrice": "0xdc412ae7",
      "l1GasUsed": "0x640"
    },
    {
      "status": "0x1",
      "cumulativeGasUsed": "0x369bee",
      "logs": [
        {
          "address": "0x72e34f44eb09058bddaf1aeeebdec062f1844b00",
          "topics": [
            "0x61ed099e74a97a1d7f8bb0952a88ca8b7b8ebd00c126ea04671f92a81213318a"
          ],
          "data": "0x0000000000000000000000008548b148800bb00c6e4039aa9c20ebb36a36a600000000000000000000000000000000000000000000000000002bba8055299a64",
          "blockHash": "0x80f182846e7e8d79453ab36713605a41280b0f47f3804457427774a30d047996",
          "blockNumber": "0x2743e0",
          "transactionHash": "0xa35565af614266ae8c433cc2f224963e5705b6ce190efa58f35087a6f4238f1f",
          "transactionIndex": "0x7",
          "logIndex": "0x8",
          "removed": false
        },
        {
          "address": "0x72e34f44eb09058bddaf1aeeebdec062f1844b00",
          "topics": [
            "0x07ea52d82345d6e838192107d8fd7123d9c2ec8e916cd0aad13fd2b60db24644"
          ],
          "data": "0x000000000000000000000000000000000000000000000000000000000000006000000000000000000000000000000000000000000000000000000000000000a000000000000000000000000000000000000000000000000000000000000000c000000000000000000000000000000000000000000000000000000000000000010000000000000000000000006236072727ae3dfe29bafe9606e41827be8c6341000000000000000000000000000000000000000000000000000000000000000000000000000000000000000000000000000000000000000000000000000000010000000000000000000000000000000000000000000000000000078290ff04a2",
          "blockHash": "0x80f182846e7e8d79453ab36713605a41280b0f47f3804457427774a30d047996",
          "blockNumber": "0x2743e0",
          "transactionHash": "0xa35565af614266ae8c433cc2f224963e5705b6ce190efa58f35087a6f4238f1f",
          "transactionIndex": "0x7",
          "logIndex": "0x9",
          "removed": false
        },
        {
          "address": "0xb8815f3f882614048cbe201a67ef9c6f10fe5035",
          "topics": [
            "0x1ab700d4ced0c005b164c0f789fd09fcbb0156d4c2041b8a3bfbcd961cd1567f"
          ],
          "data": "0x0000000000000000000000000000000000000000000000000000000000000060000000000000000000000000000000000000000000000000000000000000014000000000000000000000000072e34f44eb09058bddaf1aeeebdec062f1844b0000000000000000000000000000000000000000000000000000000000000000b101000000000000000100009d8d0000000000000000000000009f0a79c5a1fb5f7e2221ddda85362f97ff847f6600009ce1000000000000000000000000c8db794088542f878a734c4f23e22b04f498b80fd8ff7025f01bdc2a4e13710983a180607ffb14b47d6acba2ddbfcbbbe03f1f53000000000000000000000000a3cc6b7d5381de6e41e41d1afd352981dc1597c300000000000000000000000000000000000000000000000000000000000000000000000000000000000000000000000000000000000000000000000000000000000000000000000000000000000026000301002101000000000000000000000000004c4b400000000000000000002386f26fc100000000000000000000000000000000000000000000000000000000",
          "blockHash": "0x80f182846e7e8d79453ab36713605a41280b0f47f3804457427774a30d047996",
          "blockNumber": "0x2743e0",
          "transactionHash": "0xa35565af614266ae8c433cc2f224963e5705b6ce190efa58f35087a6f4238f1f",
          "transactionIndex": "0x7",
          "logIndex": "0xa",
          "removed": false
        },
        {
          "address": "0x9f0a79c5a1fb5f7e2221ddda85362f97ff847f66",
          "topics": [
            "0x2d4dbc7a27a00b43846712fae107e2b01f7bcf769790c313c21214f5c036730c",
            "0x0000000000000000000000000000000000000000000000000000000000000000"
          ],
          "data": "0x0000000000000000000000000000000000000000000000000000000000aa36a70000000000000000000000000000000000000000000000000000000000000001",
          "blockHash": "0x80f182846e7e8d79453ab36713605a41280b0f47f3804457427774a30d047996",
          "blockNumber": "0x2743e0",
          "transactionHash": "0xa35565af614266ae8c433cc2f224963e5705b6ce190efa58f35087a6f4238f1f",
          "transactionIndex": "0x7",
          "logIndex": "0xb",
          "removed": false
        }
      ],
      "logsBloom": "0x00000000000000002000000000000000010000000000000000000040000000000000000000000000000000004000000000000000000000000000000000000000000000000008000000000000000000000000000000000000000000000000000000000000060000208000000020000800000000000000000000000000000000000000080000000004000000080000000000000000000000000000000000000000000000008000000000100000000000000000000000400000000440000000000000000000000000000000000000000000000000000000000000000000000028000000040000000000000000000000002000000000000000040000000000000000",
      "type": "0x2",
      "transactionHash": "0xa35565af614266ae8c433cc2f224963e5705b6ce190efa58f35087a6f4238f1f",
      "transactionIndex": "0x7",
      "blockHash": "0x80f182846e7e8d79453ab36713605a41280b0f47f3804457427774a30d047996",
      "blockNumber": "0x2743e0",
      "gasUsed": "0x3db57",
      "effectiveGasPrice": "0xf433c",
      "from": "0x000ef5f21dc574226a06c76aae7060642a30eb74",
      "to": "0xa3cc6b7d5381de6e41e41d1afd352981dc1597c3",
      "contractAddress": null,
      "l1BaseFeeScalar": "0x7d0",
      "l1BlobBaseFee": "0x1",
      "l1BlobBaseFeeScalar": "0xdbba0",
      "l1Fee": "0x2c0d089a3",
      "l1GasPrice": "0xdc412ae7",
      "l1GasUsed": "0x640"
    }
  ],
  "libraries": [],
  "pending": [],
  "returns": {},
  "timestamp": 1729425709,
  "chain": 1301,
  "commit": "feb3b05"
}