{
  "transactions": [
    {
      "hash": "0xeda4ce7bde9c76f4bb33f686bcaab46f5ae55942e324fc56d09ffbfc76b120e5",
      "transactionType": "CALL",
      "contractName": null,
      "contractAddress": "0xccd1984030e6078d2082cb7a035910c530e58080",
      "function": "createVault(string,address,address)",
      "arguments": [
        "TEST",
        "0x0000000000000000000000000000000000000000",
        "0x0000000000000000000000000000000000000000"
      ],
      "transaction": {
        "from": "0x000ef5f21dc574226a06c76aae7060642a30eb74",
        "to": "0xccd1984030e6078d2082cb7a035910c530e58080",
        "gas": "0x437693",
        "value": "0x0",
        "input": "0x522bfa1100000000000000000000000000000000000000000000000000000000000000600000000000000000000000000000000000000000000000000000000000000000000000000000000000000000000000000000000000000000000000000000000000000000000000000000000000000000000000000000000000000000000000045445535400000000000000000000000000000000000000000000000000000000",
        "nonce": "0xa",
        "chainId": "0x515"
      },
      "additionalContracts": [],
      "isFixedGasLimit": false
    },
    {
      "hash": "0x7be31c2f36e2804d68db5b3db870b397d61d99c816f84e344afdecd4bd42151c",
      "transactionType": "CALL",
      "contractName": "QuarkHubChainAccount",
      "contractAddress": "0xcf533df026d20aca3bdf49b7a2dab79a675780fc",
      "function": "requestNewSpokeChain(uint256,uint256)",
      "arguments": [
        "0",
        "84532"
      ],
      "transaction": {
        "from": "0x000ef5f21dc574226a06c76aae7060642a30eb74",
        "to": "0xcf533df026d20aca3bdf49b7a2dab79a675780fc",
        "gas": "0x553c2",
        "value": "0x2e7f6ea0cc3b9e",
        "input": "0x3ad8771f00000000000000000000000000000000000000000000000000000000000000000000000000000000000000000000000000000000000000000000000000014a34",
        "nonce": "0xb",
        "chainId": "0x515"
      },
      "additionalContracts": [],
      "isFixedGasLimit": false
    }
  ],
  "receipts": [
    {
      "status": "0x1",
      "cumulativeGasUsed": "0x307dce",
      "logs": [
        {
          "address": "0xccd1984030e6078d2082cb7a035910c530e58080",
          "topics": [
            "0xddf252ad1be2c89b69c2b068fc378daa952ba7f163c4a11628f55a4df523b3ef",
            "0x0000000000000000000000000000000000000000000000000000000000000000",
            "0x000000000000000000000000ccd1984030e6078d2082cb7a035910c530e58080",
            "0x0000000000000000000000000000000000000000000000000000000000000000"
          ],
          "data": "0x",
          "blockHash": "0xd975ddea53779e4b333c26152d187b9bf9161cc335b1c66c04b2a2f7098e628f",
          "blockNumber": "0x2719a1",
          "transactionHash": "0xeda4ce7bde9c76f4bb33f686bcaab46f5ae55942e324fc56d09ffbfc76b120e5",
          "transactionIndex": "0x4",
          "logIndex": "0x2",
          "removed": false
        },
        {
          "address": "0xcf533df026d20aca3bdf49b7a2dab79a675780fc",
          "topics": [
            "0x8be0079c531659141344cd1fd0a4f28419497f9722a3daafe3b4186f6b6457e0",
            "0x0000000000000000000000000000000000000000000000000000000000000000",
            "0x000000000000000000000000000ef5f21dc574226a06c76aae7060642a30eb74"
          ],
          "data": "0x",
          "blockHash": "0xd975ddea53779e4b333c26152d187b9bf9161cc335b1c66c04b2a2f7098e628f",
          "blockNumber": "0x2719a1",
          "transactionHash": "0xeda4ce7bde9c76f4bb33f686bcaab46f5ae55942e324fc56d09ffbfc76b120e5",
          "transactionIndex": "0x4",
          "logIndex": "0x3",
          "removed": false
        },
        {
          "address": "0xb8815f3f882614048cbe201a67ef9c6f10fe5035",
          "topics": [
            "0x6ee10e9ed4d6ce9742703a498707862f4b00f1396a87195eb93267b3d7983981"
          ],
          "data": "0x000000000000000000000000cf533df026d20aca3bdf49b7a2dab79a675780fc000000000000000000000000000ef5f21dc574226a06c76aae7060642a30eb74",
          "blockHash": "0xd975ddea53779e4b333c26152d187b9bf9161cc335b1c66c04b2a2f7098e628f",
          "blockNumber": "0x2719a1",
          "transactionHash": "0xeda4ce7bde9c76f4bb33f686bcaab46f5ae55942e324fc56d09ffbfc76b120e5",
          "transactionIndex": "0x4",
          "logIndex": "0x4",
          "removed": false
        },
        {
          "address": "0xcf533df026d20aca3bdf49b7a2dab79a675780fc",
          "topics": [
            "0x3cd5ec01b1ae7cfec6ca1863e2cd6aa25d6d1702825803ff2b7cc95010fffdc2",
            "0x000000000000000000000000ccd1984030e6078d2082cb7a035910c530e58080",
            "0x0000000000000000000000007ab14fbc0d7790c78a48afe5ae99f6ef27c390d5"
          ],
          "data": "0x",
          "blockHash": "0xd975ddea53779e4b333c26152d187b9bf9161cc335b1c66c04b2a2f7098e628f",
          "blockNumber": "0x2719a1",
          "transactionHash": "0xeda4ce7bde9c76f4bb33f686bcaab46f5ae55942e324fc56d09ffbfc76b120e5",
          "transactionIndex": "0x4",
          "logIndex": "0x5",
          "removed": false
        },
        {
          "address": "0xccd1984030e6078d2082cb7a035910c530e58080",
          "topics": [
            "0xddf252ad1be2c89b69c2b068fc378daa952ba7f163c4a11628f55a4df523b3ef",
            "0x000000000000000000000000ccd1984030e6078d2082cb7a035910c530e58080",
            "0x000000000000000000000000000ef5f21dc574226a06c76aae7060642a30eb74",
            "0x0000000000000000000000000000000000000000000000000000000000000000"
          ],
          "data": "0x",
          "blockHash": "0xd975ddea53779e4b333c26152d187b9bf9161cc335b1c66c04b2a2f7098e628f",
          "blockNumber": "0x2719a1",
          "transactionHash": "0xeda4ce7bde9c76f4bb33f686bcaab46f5ae55942e324fc56d09ffbfc76b120e5",
          "transactionIndex": "0x4",
          "logIndex": "0x6",
          "removed": false
        },
        {
          "address": "0xccd1984030e6078d2082cb7a035910c530e58080",
          "topics": [
            "0x019b61d9140f8784f4eed1e66569335630452af2d974ceb13d3e706c07867296",
            "0x000000000000000000000000000ef5f21dc574226a06c76aae7060642a30eb74",
            "0x0000000000000000000000000000000000000000000000000000000000000000",
            "0x000000000000000000000000cf533df026d20aca3bdf49b7a2dab79a675780fc"
          ],
          "data": "0x",
          "blockHash": "0xd975ddea53779e4b333c26152d187b9bf9161cc335b1c66c04b2a2f7098e628f",
          "blockNumber": "0x2719a1",
          "transactionHash": "0xeda4ce7bde9c76f4bb33f686bcaab46f5ae55942e324fc56d09ffbfc76b120e5",
          "transactionIndex": "0x4",
          "logIndex": "0x7",
          "removed": false
        }
      ],
      "logsBloom": "0x00000000000000000000000200000000000000000000000000800000000000000000000000020000000200000000000000000002000000000000000000000000000004000008000000000008001000000001000040000000000000000000000000000000020000000000000400000800200000000000000000000010000000400000080000000004000000001020000000000000000000000000000000000001000000000000000100000008000000000020000000000000004000000000000400000002400000000000000000000000000000000000000014000000040028000100000000000000000008000000020000000000000000000000000000000000",
      "type": "0x2",
      "transactionHash": "0xeda4ce7bde9c76f4bb33f686bcaab46f5ae55942e324fc56d09ffbfc76b120e5",
      "transactionIndex": "0x4",
      "blockHash": "0xd975ddea53779e4b333c26152d187b9bf9161cc335b1c66c04b2a2f7098e628f",
      "blockNumber": "0x2719a1",
      "gasUsed": "0x2e2471",
      "effectiveGasPrice": "0xf433c",
      "from": "0x000ef5f21dc574226a06c76aae7060642a30eb74",
      "to": "0xccd1984030e6078d2082cb7a035910c530e58080",
      "contractAddress": null,
      "l1BaseFeeScalar": "0x7d0",
      "l1BlobBaseFee": "0x1",
      "l1BlobBaseFeeScalar": "0xdbba0",
      "l1Fee": "0x7a4c3e0",
      "l1GasPrice": "0x2637d1a",
      "l1GasUsed": "0x640"
    },
    {
      "status": "0x1",
      "cumulativeGasUsed": "0x345925",
      "logs": [
        {
          "address": "0x72e34f44eb09058bddaf1aeeebdec062f1844b00",
          "topics": [
            "0x61ed099e74a97a1d7f8bb0952a88ca8b7b8ebd00c126ea04671f92a81213318a"
          ],
          "data": "0x0000000000000000000000008548b148800bb00c6e4039aa9c20ebb36a36a600000000000000000000000000000000000000000000000000002aee704ed936e4",
          "blockHash": "0xd975ddea53779e4b333c26152d187b9bf9161cc335b1c66c04b2a2f7098e628f",
          "blockNumber": "0x2719a1",
          "transactionHash": "0x7be31c2f36e2804d68db5b3db870b397d61d99c816f84e344afdecd4bd42151c",
          "transactionIndex": "0x5",
          "logIndex": "0x8",
          "removed": false
        },
        {
          "address": "0x72e34f44eb09058bddaf1aeeebdec062f1844b00",
          "topics": [
            "0x07ea52d82345d6e838192107d8fd7123d9c2ec8e916cd0aad13fd2b60db24644"
          ],
          "data": "0x000000000000000000000000000000000000000000000000000000000000006000000000000000000000000000000000000000000000000000000000000000a000000000000000000000000000000000000000000000000000000000000000c000000000000000000000000000000000000000000000000000000000000000010000000000000000000000006236072727ae3dfe29bafe9606e41827be8c6341000000000000000000000000000000000000000000000000000000000000000000000000000000000000000000000000000000000000000000000000000000010000000000000000000000000000000000000000000000000000037fad2c84ba",
          "blockHash": "0xd975ddea53779e4b333c26152d187b9bf9161cc335b1c66c04b2a2f7098e628f",
          "blockNumber": "0x2719a1",
          "transactionHash": "0x7be31c2f36e2804d68db5b3db870b397d61d99c816f84e344afdecd4bd42151c",
          "transactionIndex": "0x5",
          "logIndex": "0x9",
          "removed": false
        },
        {
          "address": "0xb8815f3f882614048cbe201a67ef9c6f10fe5035",
          "topics": [
            "0x1ab700d4ced0c005b164c0f789fd09fcbb0156d4c2041b8a3bfbcd961cd1567f"
          ],
          "data": "0x0000000000000000000000000000000000000000000000000000000000000060000000000000000000000000000000000000000000000000000000000000014000000000000000000000000072e34f44eb09058bddaf1aeeebdec062f1844b0000000000000000000000000000000000000000000000000000000000000000b101000000000000000100009d8d000000000000000000000000ccd1984030e6078d2082cb7a035910c530e5808000009d35000000000000000000000000260700a15458a1769fe128860e8444beafa8371da6ab3f64b59d1d4a06852e82c02b41a8e91c61f8be527c9e39ab5476ae03d03a000000000000000000000000cf533df026d20aca3bdf49b7a2dab79a675780fc00000000000000000000000000000000000000000000000000000000000000000000000000000000000000000000000000000000000000000000000000000000000000000000000000000000000026000301002101000000000000000000000000004c4b400000000000000000002386f26fc100000000000000000000000000000000000000000000000000000000",
          "blockHash": "0xd975ddea53779e4b333c26152d187b9bf9161cc335b1c66c04b2a2f7098e628f",
          "blockNumber": "0x2719a1",
          "transactionHash": "0x7be31c2f36e2804d68db5b3db870b397d61d99c816f84e344afdecd4bd42151c",
          "transactionIndex": "0x5",
          "logIndex": "0xa",
          "removed": false
        },
        {
          "address": "0xccd1984030e6078d2082cb7a035910c530e58080",
          "topics": [
            "0x2d4dbc7a27a00b43846712fae107e2b01f7bcf769790c313c21214f5c036730c",
            "0x0000000000000000000000000000000000000000000000000000000000000000"
          ],
          "data": "0x0000000000000000000000000000000000000000000000000000000000014a340000000000000000000000000000000000000000000000000000000000000001",
          "blockHash": "0xd975ddea53779e4b333c26152d187b9bf9161cc335b1c66c04b2a2f7098e628f",
          "blockNumber": "0x2719a1",
          "transactionHash": "0x7be31c2f36e2804d68db5b3db870b397d61d99c816f84e344afdecd4bd42151c",
          "transactionIndex": "0x5",
          "logIndex": "0xb",
          "removed": false
        }
      ],
      "logsBloom": "0x00000000000000002000000000000000010000000000000000000040000000000000000000000000000000004000000000000000000000000000000000000000000000000008000000000000000000000000000000000000000000000000000000000000060000008000000020000800200000000000000000000000000000000000000000000004000000080000000000000000000000000000000000000000000000008000000100100000000000000000000000400000000440000000000000000000400000000000000000000000000000000000000000000000000028000000040000000000000000000000002000000000000000000000000000000000",
      "type": "0x2",
      "transactionHash": "0x7be31c2f36e2804d68db5b3db870b397d61d99c816f84e344afdecd4bd42151c",
      "transactionIndex": "0x5",
      "blockHash": "0xd975ddea53779e4b333c26152d187b9bf9161cc335b1c66c04b2a2f7098e628f",
      "blockNumber": "0x2719a1",
      "gasUsed": "0x3db57",
      "effectiveGasPrice": "0xf433c",
      "from": "0x000ef5f21dc574226a06c76aae7060642a30eb74",
      "to": "0xcf533df026d20aca3bdf49b7a2dab79a675780fc",
      "contractAddress": null,
      "l1BaseFeeScalar": "0x7d0",
      "l1BlobBaseFee": "0x1",
      "l1BlobBaseFeeScalar": "0xdbba0",
      "l1Fee": "0x7a4c3e0",
      "l1GasPrice": "0x2637d1a",
      "l1GasUsed": "0x640"
    }
  ],
  "libraries": [],
  "pending": [],
  "returns": {},
  "timestamp": 1729414900,
  "chain": 1301,
  "commit": "5737486"
}