{
  "transactions": [
    {
      "hash": "0xc6848a36145c9c730e8b3dc93cf7d37c7bbcf3f1ed93e1300647bde72800c0e0",
      "transactionType": "CALL",
      "contractName": null,
      "contractAddress": "0x0fee4c356deef6567e95b6394420583ca1d1feea",
      "function": "createVault(string,address,address)",
      "arguments": [
        "TEST",
        "0x0000000000000000000000000000000000000000",
        "0x0000000000000000000000000000000000000000"
      ],
      "transaction": {
        "from": "0x000ef5f21dc574226a06c76aae7060642a30eb74",
        "to": "0x0fee4c356deef6567e95b6394420583ca1d1feea",
        "gas": "0x437693",
        "value": "0x0",
        "input": "0x522bfa1100000000000000000000000000000000000000000000000000000000000000600000000000000000000000000000000000000000000000000000000000000000000000000000000000000000000000000000000000000000000000000000000000000000000000000000000000000000000000000000000000000000000000045445535400000000000000000000000000000000000000000000000000000000",
        "nonce": "0x4",
        "chainId": "0x515"
      },
      "additionalContracts": [],
      "isFixedGasLimit": false
    },
    {
      "hash": "0x0a351e931a14a57f1bb779685e9088eb6a50621bdd2df262b040c7e797edbe60",
      "transactionType": "CALL",
      "contractName": "QuarkHubChainAccount",
      "contractAddress": "0x84ec15067e53f70cf7b8827d7cdd6e0dcbfb0cf6",
      "function": "requestNewSpokeChain(uint256,uint256)",
      "arguments": [
        "0",
        "84532"
      ],
      "transaction": {
        "from": "0x000ef5f21dc574226a06c76aae7060642a30eb74",
        "to": "0x84ec15067e53f70cf7b8827d7cdd6e0dcbfb0cf6",
        "gas": "0x553c2",
        "value": "0x11c37937e08000",
        "input": "0x3ad8771f00000000000000000000000000000000000000000000000000000000000000000000000000000000000000000000000000000000000000000000000000014a34",
        "nonce": "0x5",
        "chainId": "0x515"
      },
      "additionalContracts": [],
      "isFixedGasLimit": false
    }
  ],
  "receipts": [
    {
      "status": "0x1",
      "cumulativeGasUsed": "0x2ecfd7",
      "logs": [
        {
          "address": "0x0fee4c356deef6567e95b6394420583ca1d1feea",
          "topics": [
            "0xddf252ad1be2c89b69c2b068fc378daa952ba7f163c4a11628f55a4df523b3ef",
            "0x0000000000000000000000000000000000000000000000000000000000000000",
            "0x0000000000000000000000000fee4c356deef6567e95b6394420583ca1d1feea",
            "0x0000000000000000000000000000000000000000000000000000000000000000"
          ],
          "data": "0x",
          "blockHash": "0x870db92dcb5472a904773b88effe69f9fcaed2dcaae10c2686075b6f6e8009bd",
          "blockNumber": "0x271785",
          "transactionHash": "0xc6848a36145c9c730e8b3dc93cf7d37c7bbcf3f1ed93e1300647bde72800c0e0",
          "transactionIndex": "0x1",
          "logIndex": "0x0",
          "removed": false
        },
        {
          "address": "0x84ec15067e53f70cf7b8827d7cdd6e0dcbfb0cf6",
          "topics": [
            "0x8be0079c531659141344cd1fd0a4f28419497f9722a3daafe3b4186f6b6457e0",
            "0x0000000000000000000000000000000000000000000000000000000000000000",
            "0x000000000000000000000000000ef5f21dc574226a06c76aae7060642a30eb74"
          ],
          "data": "0x",
          "blockHash": "0x870db92dcb5472a904773b88effe69f9fcaed2dcaae10c2686075b6f6e8009bd",
          "blockNumber": "0x271785",
          "transactionHash": "0xc6848a36145c9c730e8b3dc93cf7d37c7bbcf3f1ed93e1300647bde72800c0e0",
          "transactionIndex": "0x1",
          "logIndex": "0x1",
          "removed": false
        },
        {
          "address": "0xb8815f3f882614048cbe201a67ef9c6f10fe5035",
          "topics": [
            "0x6ee10e9ed4d6ce9742703a498707862f4b00f1396a87195eb93267b3d7983981"
          ],
          "data": "0x00000000000000000000000084ec15067e53f70cf7b8827d7cdd6e0dcbfb0cf6000000000000000000000000000ef5f21dc574226a06c76aae7060642a30eb74",
          "blockHash": "0x870db92dcb5472a904773b88effe69f9fcaed2dcaae10c2686075b6f6e8009bd",
          "blockNumber": "0x271785",
          "transactionHash": "0xc6848a36145c9c730e8b3dc93cf7d37c7bbcf3f1ed93e1300647bde72800c0e0",
          "transactionIndex": "0x1",
          "logIndex": "0x2",
          "removed": false
        },
        {
          "address": "0x84ec15067e53f70cf7b8827d7cdd6e0dcbfb0cf6",
          "topics": [
            "0x3cd5ec01b1ae7cfec6ca1863e2cd6aa25d6d1702825803ff2b7cc95010fffdc2",
            "0x0000000000000000000000000fee4c356deef6567e95b6394420583ca1d1feea",
            "0x0000000000000000000000000944830916cecb637613c9fd0e8f6c21ccffb4ef"
          ],
          "data": "0x",
          "blockHash": "0x870db92dcb5472a904773b88effe69f9fcaed2dcaae10c2686075b6f6e8009bd",
          "blockNumber": "0x271785",
          "transactionHash": "0xc6848a36145c9c730e8b3dc93cf7d37c7bbcf3f1ed93e1300647bde72800c0e0",
          "transactionIndex": "0x1",
          "logIndex": "0x3",
          "removed": false
        },
        {
          "address": "0x0fee4c356deef6567e95b6394420583ca1d1feea",
          "topics": [
            "0xddf252ad1be2c89b69c2b068fc378daa952ba7f163c4a11628f55a4df523b3ef",
            "0x0000000000000000000000000fee4c356deef6567e95b6394420583ca1d1feea",
            "0x000000000000000000000000000ef5f21dc574226a06c76aae7060642a30eb74",
            "0x0000000000000000000000000000000000000000000000000000000000000000"
          ],
          "data": "0x",
          "blockHash": "0x870db92dcb5472a904773b88effe69f9fcaed2dcaae10c2686075b6f6e8009bd",
          "blockNumber": "0x271785",
          "transactionHash": "0xc6848a36145c9c730e8b3dc93cf7d37c7bbcf3f1ed93e1300647bde72800c0e0",
          "transactionIndex": "0x1",
          "logIndex": "0x4",
          "removed": false
        },
        {
          "address": "0x0fee4c356deef6567e95b6394420583ca1d1feea",
          "topics": [
            "0x019b61d9140f8784f4eed1e66569335630452af2d974ceb13d3e706c07867296",
            "0x000000000000000000000000000ef5f21dc574226a06c76aae7060642a30eb74",
            "0x0000000000000000000000000000000000000000000000000000000000000000",
            "0x00000000000000000000000084ec15067e53f70cf7b8827d7cdd6e0dcbfb0cf6"
          ],
          "data": "0x",
          "blockHash": "0x870db92dcb5472a904773b88effe69f9fcaed2dcaae10c2686075b6f6e8009bd",
          "blockNumber": "0x271785",
          "transactionHash": "0xc6848a36145c9c730e8b3dc93cf7d37c7bbcf3f1ed93e1300647bde72800c0e0",
          "transactionIndex": "0x1",
          "logIndex": "0x5",
          "removed": false
        }
      ],
      "logsBloom": "0x00000000000000000000000000000000000000000000000000800000000000000000000010020000000000000000000000000002000000000000001008000000000004000008000000000008000000000001000040000000000000000000000000000000020000000000000400000800004000000000000000000010000000400000000000000004000000000020000000000000000000008000000000000000000000000000000000060008004000000000000040000000000000000000000400000002800000000000000000800000000000000000000004000000040028000100000000000010000000000000000000000000008000000008000000000080",
      "type": "0x2",
      "transactionHash": "0xc6848a36145c9c730e8b3dc93cf7d37c7bbcf3f1ed93e1300647bde72800c0e0",
      "transactionIndex": "0x1",
      "blockHash": "0x870db92dcb5472a904773b88effe69f9fcaed2dcaae10c2686075b6f6e8009bd",
      "blockNumber": "0x271785",
      "gasUsed": "0x2e2471",
      "effectiveGasPrice": "0x2cbbb99c",
      "from": "0x000ef5f21dc574226a06c76aae7060642a30eb74",
      "to": "0x0fee4c356deef6567e95b6394420583ca1d1feea",
      "contractAddress": null,
      "l1BaseFeeScalar": "0x7d0",
      "l1BlobBaseFee": "0x1",
      "l1BlobBaseFeeScalar": "0xdbba0",
      "l1Fee": "0x7c70bfd",
      "l1GasPrice": "0x26e33a3",
      "l1GasUsed": "0x640"
    },
    {
      "status": "0x1",
      "cumulativeGasUsed": "0x32ab2e",
      "logs": [
        {
          "address": "0x72e34f44eb09058bddaf1aeeebdec062f1844b00",
          "topics": [
            "0x61ed099e74a97a1d7f8bb0952a88ca8b7b8ebd00c126ea04671f92a81213318a"
          ],
          "data": "0x0000000000000000000000008548b148800bb00c6e4039aa9c20ebb36a36a600000000000000000000000000000000000000000000000000000051f40149adc8",
          "blockHash": "0x870db92dcb5472a904773b88effe69f9fcaed2dcaae10c2686075b6f6e8009bd",
          "blockNumber": "0x271785",
          "transactionHash": "0x0a351e931a14a57f1bb779685e9088eb6a50621bdd2df262b040c7e797edbe60",
          "transactionIndex": "0x2",
          "logIndex": "0x6",
          "removed": false
        },
        {
          "address": "0x72e34f44eb09058bddaf1aeeebdec062f1844b00",
          "topics": [
            "0x07ea52d82345d6e838192107d8fd7123d9c2ec8e916cd0aad13fd2b60db24644"
          ],
          "data": "0x000000000000000000000000000000000000000000000000000000000000006000000000000000000000000000000000000000000000000000000000000000a000000000000000000000000000000000000000000000000000000000000000c000000000000000000000000000000000000000000000000000000000000000010000000000000000000000006236072727ae3dfe29bafe9606e41827be8c6341000000000000000000000000000000000000000000000000000000000000000000000000000000000000000000000000000000000000000000000000000000010000000000000000000000000000000000000000000000000000037fad2c84ba",
          "blockHash": "0x870db92dcb5472a904773b88effe69f9fcaed2dcaae10c2686075b6f6e8009bd",
          "blockNumber": "0x271785",
          "transactionHash": "0x0a351e931a14a57f1bb779685e9088eb6a50621bdd2df262b040c7e797edbe60",
          "transactionIndex": "0x2",
          "logIndex": "0x7",
          "removed": false
        },
        {
          "address": "0xb8815f3f882614048cbe201a67ef9c6f10fe5035",
          "topics": [
            "0x1ab700d4ced0c005b164c0f789fd09fcbb0156d4c2041b8a3bfbcd961cd1567f"
          ],
          "data": "0x0000000000000000000000000000000000000000000000000000000000000060000000000000000000000000000000000000000000000000000000000000014000000000000000000000000072e34f44eb09058bddaf1aeeebdec062f1844b0000000000000000000000000000000000000000000000000000000000000000b101000000000000000100009d8d0000000000000000000000000fee4c356deef6567e95b6394420583ca1d1feea00009d3500000000000000000000000015418e0bec0e6df1703deccac49236b7203d1b42031a72433aadb0940b88bec5bcb1181c01424d936c26d5d01140d0498beba72600000000000000000000000084ec15067e53f70cf7b8827d7cdd6e0dcbfb0cf600000000000000000000000000000000000000000000000000000000000000000000000000000000000000000000000000000000000000000000000000000000000000000000000000000000000026000301002101000000000000000000000000002dc6c00000000000000000000009184e72a0000000000000000000000000000000000000000000000000000000",
          "blockHash": "0x870db92dcb5472a904773b88effe69f9fcaed2dcaae10c2686075b6f6e8009bd",
          "blockNumber": "0x271785",
          "transactionHash": "0x0a351e931a14a57f1bb779685e9088eb6a50621bdd2df262b040c7e797edbe60",
          "transactionIndex": "0x2",
          "logIndex": "0x8",
          "removed": false
        },
        {
          "address": "0x0fee4c356deef6567e95b6394420583ca1d1feea",
          "topics": [
            "0x2d4dbc7a27a00b43846712fae107e2b01f7bcf769790c313c21214f5c036730c",
            "0x0000000000000000000000000000000000000000000000000000000000000000"
          ],
          "data": "0x0000000000000000000000000000000000000000000000000000000000014a340000000000000000000000000000000000000000000000000000000000000001",
          "blockHash": "0x870db92dcb5472a904773b88effe69f9fcaed2dcaae10c2686075b6f6e8009bd",
          "blockNumber": "0x271785",
          "transactionHash": "0x0a351e931a14a57f1bb779685e9088eb6a50621bdd2df262b040c7e797edbe60",
          "transactionIndex": "0x2",
          "logIndex": "0x9",
          "removed": false
        }
      ],
      "logsBloom": "0x00000000000000002000000000000000010000000000000000000040000000000000000000000000000000004000000000000000000000000000000008000000000000000008000000000000000000000000000000000000000000000000000000000000060000008000000020000800000000000000000000000000000000000000000000000004000000080000000000000000000000000000000000000000000000008000000000100000000000000000000000400000000440000000000000000000000000000000000000800000000000000000000000000000000028000000040000000010000000000000002000000000000000000000000000000000",
      "type": "0x2",
      "transactionHash": "0x0a351e931a14a57f1bb779685e9088eb6a50621bdd2df262b040c7e797edbe60",
      "transactionIndex": "0x2",
      "blockHash": "0x870db92dcb5472a904773b88effe69f9fcaed2dcaae10c2686075b6f6e8009bd",
      "blockNumber": "0x271785",
      "gasUsed": "0x3db57",
      "effectiveGasPrice": "0x2cbbb99c",
      "from": "0x000ef5f21dc574226a06c76aae7060642a30eb74",
      "to": "0x84ec15067e53f70cf7b8827d7cdd6e0dcbfb0cf6",
      "contractAddress": null,
      "l1BaseFeeScalar": "0x7d0",
      "l1BlobBaseFee": "0x1",
      "l1BlobBaseFeeScalar": "0xdbba0",
      "l1Fee": "0x7c70bfd",
      "l1GasPrice": "0x26e33a3",
      "l1GasUsed": "0x640"
    }
  ],
  "libraries": [],
  "pending": [],
  "returns": {},
  "timestamp": 1729414359,
  "chain": 1301,
  "commit": "5737486"
}