{
  "transactions": [
    {
      "hash": "0xe3c4fae5b6207485b1934a1941da7b132bb499aa375d5fdde05d765e8c631d98",
      "transactionType": "CREATE",
      "contractName": "StoryPolicy",
      "contractAddress": "0x2b449bad90e95df8e910c1031cdc763f07d96721",
      "function": null,
      "arguments": null,
      "transaction": {
        "from": "0x000ef5f21dc574226a06c76aae7060642a30eb74",
        "gas": "0x2edd7",
        "value": "0x0",
        "input": "0x608060405234801561001057600080fd5b506101b0806100206000396000f3fe608060405234801561001057600080fd5b506004361061004c5760003560e01c80634dbda6a8146100515780635391a5b314610051578063611241d014610081578063a33b9c57146100a4575b600080fd5b61006461005f3660046100f1565b6100c6565b6040516001600160a01b0390911681526020015b60405180910390f35b61009461008f366004610113565b6100cf565b6040519015158152602001610078565b6100b86100b2366004610161565b50600090565b604051908152602001610078565b60005b92915050565b60008263ffffffff16619d7b036100e8575060016100c9565b50600092915050565b6000806040838503121561010457600080fd5b50508035926020909101359150565b6000806040838503121561012657600080fd5b823563ffffffff8116811461013a57600080fd5b915060208301356001600160a01b038116811461015657600080fd5b809150509250929050565b60006020828403121561017357600080fd5b503591905056fea26469706673582212203fc6a69a8296952814b1afc07c568d076a723d28b660fda37a756aa54bfcd35064736f6c63430008160033",
        "nonce": "0x7a",
        "chainId": "0x66eee"
      },
      "additionalContracts": [],
      "isFixedGasLimit": false
    },
    {
      "hash": "0xbf850f7fe2f23f96dd592c26086a8dc6a824a9872b7504b5085c927cd1e08974",
      "transactionType": "CALL",
      "contractName": null,
      "contractAddress": "0x35698b8cfcfdec9ab873c4c18e5e4af1249dd775",
      "function": "createVault(string,address,address)",
      "arguments": [
        "TEST",
        "0x2B449BAD90e95Df8E910c1031CdC763f07d96721",
        "0x0000000000000000000000000000000000000000"
      ],
      "transaction": {
        "from": "0x000ef5f21dc574226a06c76aae7060642a30eb74",
        "to": "0x35698b8cfcfdec9ab873c4c18e5e4af1249dd775",
        "gas": "0x3ce31b",
        "value": "0x0",
        "input": "0x522bfa1100000000000000000000000000000000000000000000000000000000000000600000000000000000000000002b449bad90e95df8e910c1031cdc763f07d96721000000000000000000000000000000000000000000000000000000000000000000000000000000000000000000000000000000000000000000000000000000045445535400000000000000000000000000000000000000000000000000000000",
        "nonce": "0x7b",
        "chainId": "0x66eee"
      },
      "additionalContracts": [],
      "isFixedGasLimit": false
    },
    {
      "hash": "0xa0ec2d3deaf0a822f4f1839124f61258730bffa8c8c0f605e8a98ba2679a043d",
      "transactionType": "CALL",
      "contractName": "QuarkHubChainAccount",
      "contractAddress": "0x5161b92b358f7ab4d892b0f89783b8f2e5f0ec83",
      "function": "requestNewSpokeChain(uint256,uint256)",
      "arguments": [
        "0",
        "1513"
      ],
      "transaction": {
        "from": "0x000ef5f21dc574226a06c76aae7060642a30eb74",
        "to": "0x5161b92b358f7ab4d892b0f89783b8f2e5f0ec83",
        "gas": "0x6d3b",
        "value": "0x16345785d8a0000",
        "input": "0x3ad8771f000000000000000000000000000000000000000000000000000000000000000000000000000000000000000000000000000000000000000000000000000005e9",
        "nonce": "0x7c",
        "chainId": "0x66eee"
      },
      "additionalContracts": [],
      "isFixedGasLimit": false
    }
  ],
  "receipts": [
    {
      "status": "0x1",
      "cumulativeGasUsed": "0x23c41",
      "logs": [],
      "logsBloom": "0x00000000000000000000000000000000000000000000000000000000000000000000000000000000000000000000000000000000000000000000000000000000000000000000000000000000000000000000000000000000000000000000000000000000000000000000000000000000000000000000000000000000000000000000000000000000000000000000000000000000000000000000000000000000000000000000000000000000000000000000000000000000000000000000000000000000000000000000000000000000000000000000000000000000000000000000000000000000000000000000000000000000000000000000000000000000",
      "type": "0x2",
      "transactionHash": "0xe3c4fae5b6207485b1934a1941da7b132bb499aa375d5fdde05d765e8c631d98",
      "transactionIndex": "0x1",
      "blockHash": "0xffa5a699c2e0fa197c367c96e8d35cfd61094b82918253212a7c86b5643dc4c5",
      "blockNumber": "0x55f2466",
      "gasUsed": "0x23c41",
      "effectiveGasPrice": "0x5f5e100",
      "from": "0x000ef5f21dc574226a06c76aae7060642a30eb74",
      "to": null,
      "contractAddress": "0x2b449bad90e95df8e910c1031cdc763f07d96721",
      "gasUsedForL1": "0x0",
      "l1BlockNumber": "0x696c14"
    },
    {
      "status": "0x1",
      "cumulativeGasUsed": "0x2e7326",
      "logs": [
        {
          "address": "0x35698b8cfcfdec9ab873c4c18e5e4af1249dd775",
          "topics": [
            "0xddf252ad1be2c89b69c2b068fc378daa952ba7f163c4a11628f55a4df523b3ef",
            "0x0000000000000000000000000000000000000000000000000000000000000000",
            "0x00000000000000000000000035698b8cfcfdec9ab873c4c18e5e4af1249dd775",
            "0x0000000000000000000000000000000000000000000000000000000000000000"
          ],
          "data": "0x",
          "blockHash": "0x1d911c5b5411774d6f44413e20373c07395a8d45ad44a90608fff5838acb3f98",
          "blockNumber": "0x55f2468",
          "transactionHash": "0xbf850f7fe2f23f96dd592c26086a8dc6a824a9872b7504b5085c927cd1e08974",
          "transactionIndex": "0x1",
          "logIndex": "0x0",
          "removed": false
        },
        {
          "address": "0x5161b92b358f7ab4d892b0f89783b8f2e5f0ec83",
          "topics": [
            "0x8be0079c531659141344cd1fd0a4f28419497f9722a3daafe3b4186f6b6457e0",
            "0x0000000000000000000000000000000000000000000000000000000000000000",
            "0x000000000000000000000000000ef5f21dc574226a06c76aae7060642a30eb74"
          ],
          "data": "0x",
          "blockHash": "0x1d911c5b5411774d6f44413e20373c07395a8d45ad44a90608fff5838acb3f98",
          "blockNumber": "0x55f2468",
          "transactionHash": "0xbf850f7fe2f23f96dd592c26086a8dc6a824a9872b7504b5085c927cd1e08974",
          "transactionIndex": "0x1",
          "logIndex": "0x1",
          "removed": false
        },
        {
          "address": "0x6edce65403992e310a62460808c4b910d972f10f",
          "topics": [
            "0x6ee10e9ed4d6ce9742703a498707862f4b00f1396a87195eb93267b3d7983981"
          ],
          "data": "0x0000000000000000000000005161b92b358f7ab4d892b0f89783b8f2e5f0ec83000000000000000000000000000ef5f21dc574226a06c76aae7060642a30eb74",
          "blockHash": "0x1d911c5b5411774d6f44413e20373c07395a8d45ad44a90608fff5838acb3f98",
          "blockNumber": "0x55f2468",
          "transactionHash": "0xbf850f7fe2f23f96dd592c26086a8dc6a824a9872b7504b5085c927cd1e08974",
          "transactionIndex": "0x1",
          "logIndex": "0x2",
          "removed": false
        },
        {
          "address": "0x5161b92b358f7ab4d892b0f89783b8f2e5f0ec83",
          "topics": [
            "0x3cd5ec01b1ae7cfec6ca1863e2cd6aa25d6d1702825803ff2b7cc95010fffdc2",
            "0x00000000000000000000000035698b8cfcfdec9ab873c4c18e5e4af1249dd775",
            "0x00000000000000000000000095b55020f9ad8705f7d7d9a3827d664813473d96"
          ],
          "data": "0x",
          "blockHash": "0x1d911c5b5411774d6f44413e20373c07395a8d45ad44a90608fff5838acb3f98",
          "blockNumber": "0x55f2468",
          "transactionHash": "0xbf850f7fe2f23f96dd592c26086a8dc6a824a9872b7504b5085c927cd1e08974",
          "transactionIndex": "0x1",
          "logIndex": "0x3",
          "removed": false
        },
        {
          "address": "0x35698b8cfcfdec9ab873c4c18e5e4af1249dd775",
          "topics": [
            "0xddf252ad1be2c89b69c2b068fc378daa952ba7f163c4a11628f55a4df523b3ef",
            "0x00000000000000000000000035698b8cfcfdec9ab873c4c18e5e4af1249dd775",
            "0x000000000000000000000000000ef5f21dc574226a06c76aae7060642a30eb74",
            "0x0000000000000000000000000000000000000000000000000000000000000000"
          ],
          "data": "0x",
          "blockHash": "0x1d911c5b5411774d6f44413e20373c07395a8d45ad44a90608fff5838acb3f98",
          "blockNumber": "0x55f2468",
          "transactionHash": "0xbf850f7fe2f23f96dd592c26086a8dc6a824a9872b7504b5085c927cd1e08974",
          "transactionIndex": "0x1",
          "logIndex": "0x4",
          "removed": false
        },
        {
          "address": "0x35698b8cfcfdec9ab873c4c18e5e4af1249dd775",
          "topics": [
            "0x019b61d9140f8784f4eed1e66569335630452af2d974ceb13d3e706c07867296",
            "0x000000000000000000000000000ef5f21dc574226a06c76aae7060642a30eb74",
            "0x0000000000000000000000000000000000000000000000000000000000000000",
            "0x0000000000000000000000005161b92b358f7ab4d892b0f89783b8f2e5f0ec83"
          ],
          "data": "0x",
          "blockHash": "0x1d911c5b5411774d6f44413e20373c07395a8d45ad44a90608fff5838acb3f98",
          "blockNumber": "0x55f2468",
          "transactionHash": "0xbf850f7fe2f23f96dd592c26086a8dc6a824a9872b7504b5085c927cd1e08974",
          "transactionIndex": "0x1",
          "logIndex": "0x5",
          "removed": false
        }
      ],
      "logsBloom": "0x000000000000000000000000400000000000000000000000008200400000000000000000000a0000200000000000000000000002020000000000000000000000000004000000000000000008000000000001000040000000000000010000000000000000020000000200000400000800000000000400000000000010000000400000000000000020000000000020000000000000040040000000000000000000040000000000000000000008000000000000000000000000000004000000000400000002000200000000000000000000000000000000000004000000040020000100400008000000000000000000000000000000200000000000000000000000",
      "type": "0x2",
      "transactionHash": "0xbf850f7fe2f23f96dd592c26086a8dc6a824a9872b7504b5085c927cd1e08974",
      "transactionIndex": "0x1",
      "blockHash": "0x1d911c5b5411774d6f44413e20373c07395a8d45ad44a90608fff5838acb3f98",
      "blockNumber": "0x55f2468",
      "gasUsed": "0x2e7326",
      "effectiveGasPrice": "0x5f5e100",
      "from": "0x000ef5f21dc574226a06c76aae7060642a30eb74",
      "to": "0x35698b8cfcfdec9ab873c4c18e5e4af1249dd775",
      "contractAddress": null,
      "gasUsedForL1": "0x0",
      "l1BlockNumber": "0x696c14"
    },
    {
      "status": "0x1",
      "cumulativeGasUsed": "0x3deae",
      "logs": [
        {
          "address": "0x4f7cd4da19abb31b0ec98b9066b9e857b1bf9c0e",
          "topics": [
            "0x61ed099e74a97a1d7f8bb0952a88ca8b7b8ebd00c126ea04671f92a81213318a"
          ],
          "data": "0x0000000000000000000000005df3a1cebbd9c8ba7f8df51fd632a9aef830889700000000000000000000000000000000000000000000000000005638c9b412fa",
          "blockHash": "0xa70a36bc1a50d1cf6cc0597210e99309c62baa6a78ef6ecaa49fb9cc87afcd57",
          "blockNumber": "0x55f2469",
          "transactionHash": "0xa0ec2d3deaf0a822f4f1839124f61258730bffa8c8c0f605e8a98ba2679a043d",
          "transactionIndex": "0x1",
          "logIndex": "0x0",
          "removed": false
        },
        {
          "address": "0x4f7cd4da19abb31b0ec98b9066b9e857b1bf9c0e",
          "topics": [
            "0x07ea52d82345d6e838192107d8fd7123d9c2ec8e916cd0aad13fd2b60db24644"
          ],
          "data": "0x000000000000000000000000000000000000000000000000000000000000006000000000000000000000000000000000000000000000000000000000000000a000000000000000000000000000000000000000000000000000000000000000c0000000000000000000000000000000000000000000000000000000000000000100000000000000000000000053f488e93b4f1b60e8e83aa374dbe1780a1ee8a800000000000000000000000000000000000000000000000000000000000000000000000000000000000000000000000000000000000000000000000000000001000000000000000000000000000000000000000000000000000003e7d5813890",
          "blockHash": "0xa70a36bc1a50d1cf6cc0597210e99309c62baa6a78ef6ecaa49fb9cc87afcd57",
          "blockNumber": "0x55f2469",
          "transactionHash": "0xa0ec2d3deaf0a822f4f1839124f61258730bffa8c8c0f605e8a98ba2679a043d",
          "transactionIndex": "0x1",
          "logIndex": "0x1",
          "removed": false
        },
        {
          "address": "0x6edce65403992e310a62460808c4b910d972f10f",
          "topics": [
            "0x1ab700d4ced0c005b164c0f789fd09fcbb0156d4c2041b8a3bfbcd961cd1567f"
          ],
          "data": "0x000000000000000000000000000000000000000000000000000000000000006000000000000000000000000000000000000000000000000000000000000001400000000000000000000000004f7cd4da19abb31b0ec98b9066b9e857b1bf9c0e00000000000000000000000000000000000000000000000000000000000000b101000000000000000100009d2700000000000000000000000035698b8cfcfdec9ab873c4c18e5e4af1249dd77500009d7b0000000000000000000000000fee4c356deef6567e95b6394420583ca1d1feea306faa9705f0d2bd92ae012419385f03a978fa36289c62808a95f4714c5bff6e0000000000000000000000005161b92b358f7ab4d892b0f89783b8f2e5f0ec8300000000000000000000000000000000000000000000000000000000000000000000000000000000000000000000000000000000000000000000000000000000000000000000000000000000000026000301002101000000000000000000000000004c4b400000000000000000002386f26fc100000000000000000000000000000000000000000000000000000000",
          "blockHash": "0xa70a36bc1a50d1cf6cc0597210e99309c62baa6a78ef6ecaa49fb9cc87afcd57",
          "blockNumber": "0x55f2469",
          "transactionHash": "0xa0ec2d3deaf0a822f4f1839124f61258730bffa8c8c0f605e8a98ba2679a043d",
          "transactionIndex": "0x1",
          "logIndex": "0x2",
          "removed": false
        },
        {
          "address": "0x35698b8cfcfdec9ab873c4c18e5e4af1249dd775",
          "topics": [
            "0x2d4dbc7a27a00b43846712fae107e2b01f7bcf769790c313c21214f5c036730c",
            "0x0000000000000000000000000000000000000000000000000000000000000000"
          ],
          "data": "0x00000000000000000000000000000000000000000000000000000000000005e90000000000000000000000000000000000000000000000000000000000000001",
          "blockHash": "0xa70a36bc1a50d1cf6cc0597210e99309c62baa6a78ef6ecaa49fb9cc87afcd57",
          "blockNumber": "0x55f2469",
          "transactionHash": "0xa0ec2d3deaf0a822f4f1839124f61258730bffa8c8c0f605e8a98ba2679a043d",
          "transactionIndex": "0x1",
          "logIndex": "0x3",
          "removed": false
        }
      ],
      "logsBloom": "0x00000000000000002000000000000000010000000000000000000040000000000000000000000000200000000000000000000000008000000000000000000000000000000000000000000000000000000000000000000000000000000000000000000000020000008200000000000800000000000400000000000000000000000000000000000020000000080000000000000000040000010000000000000000000000008000000000102000000000000000000000400000000444000000000000000000000000000000000000000000000000000000000000000000000020000000040000000000000000000000002000000000000000000000000000000000",
      "type": "0x2",
      "transactionHash": "0xa0ec2d3deaf0a822f4f1839124f61258730bffa8c8c0f605e8a98ba2679a043d",
      "transactionIndex": "0x1",
      "blockHash": "0xa70a36bc1a50d1cf6cc0597210e99309c62baa6a78ef6ecaa49fb9cc87afcd57",
      "blockNumber": "0x55f2469",
      "gasUsed": "0x3deae",
      "effectiveGasPrice": "0x5f5e100",
      "from": "0x000ef5f21dc574226a06c76aae7060642a30eb74",
      "to": "0x5161b92b358f7ab4d892b0f89783b8f2e5f0ec83",
      "contractAddress": null,
      "gasUsedForL1": "0x0",
      "l1BlockNumber": "0x696c14"
    }
  ],
  "libraries": [],
  "pending": [],
  "returns": {},
  "timestamp": 1729409147,
  "chain": 421614,
  "commit": "5737486"
}