{
  "transactions": [
    {
      "hash": "0xd5d472663a8212784c33fb1da8350f8dddc4c3216d7e525687ee48a9aa3750fd",
      "transactionType": "CREATE",
      "contractName": "StoryPolicy",
      "contractAddress": "0xda2ed3a92c10d58cdd9f33a69771761ff8aff165",
      "function": null,
      "arguments": null,
      "transaction": {
        "from": "0x000ef5f21dc574226a06c76aae7060642a30eb74",
        "gas": "0x2edd7",
        "value": "0x0",
        "input": "0x608060405234801561001057600080fd5b506101b0806100206000396000f3fe608060405234801561001057600080fd5b506004361061004c5760003560e01c80634dbda6a8146100515780635391a5b314610051578063611241d014610081578063a33b9c57146100a4575b600080fd5b61006461005f3660046100f1565b6100c6565b6040516001600160a01b0390911681526020015b60405180910390f35b61009461008f366004610113565b6100cf565b6040519015158152602001610078565b6100b86100b2366004610161565b50600090565b604051908152602001610078565b60005b92915050565b60008263ffffffff16619d7b036100e8575060016100c9565b50600092915050565b6000806040838503121561010457600080fd5b50508035926020909101359150565b6000806040838503121561012657600080fd5b823563ffffffff8116811461013a57600080fd5b915060208301356001600160a01b038116811461015657600080fd5b809150509250929050565b60006020828403121561017357600080fd5b503591905056fea26469706673582212203fc6a69a8296952814b1afc07c568d076a723d28b660fda37a756aa54bfcd35064736f6c63430008160033",
        "nonce": "0x8b",
        "chainId": "0x66eee"
      },
      "additionalContracts": [],
      "isFixedGasLimit": false
    },
    {
      "hash": null,
      "transactionType": "CALL",
      "contractName": null,
      "contractAddress": "0x1129200518c3e3a99fd3ec5ffb93a0b66ffbd991",
      "function": "createVault(string,address,address)",
      "arguments": [
        "TEST",
        "0xda2Ed3A92c10D58cdd9f33a69771761fF8afF165",
        "0x0000000000000000000000000000000000000000"
      ],
      "transaction": {
        "from": "0x000ef5f21dc574226a06c76aae7060642a30eb74",
        "to": "0x1129200518c3e3a99fd3ec5ffb93a0b66ffbd991",
        "gas": "0x3ce30f",
        "value": "0x0",
        "input": "0x522bfa110000000000000000000000000000000000000000000000000000000000000060000000000000000000000000da2ed3a92c10d58cdd9f33a69771761ff8aff165000000000000000000000000000000000000000000000000000000000000000000000000000000000000000000000000000000000000000000000000000000045445535400000000000000000000000000000000000000000000000000000000",
        "nonce": "0x8c",
        "chainId": "0x66eee"
      },
      "additionalContracts": [],
      "isFixedGasLimit": false
    },
    {
      "hash": null,
      "transactionType": "CALL",
      "contractName": "QuarkHubChainAccount",
      "contractAddress": "0xec0fba2790f5272d78a93cfee9a3a669239ab8e3",
      "function": "requestNewSpokeChain(uint256,uint256)",
      "arguments": [
        "0",
        "1513"
      ],
      "transaction": {
        "from": "0x000ef5f21dc574226a06c76aae7060642a30eb74",
        "to": "0xec0fba2790f5272d78a93cfee9a3a669239ab8e3",
        "gas": "0x6d3b",
        "value": "0x16345785d8a0000",
        "input": "0x3ad8771f000000000000000000000000000000000000000000000000000000000000000000000000000000000000000000000000000000000000000000000000000005e9",
        "nonce": "0x8d",
        "chainId": "0x66eee"
      },
      "additionalContracts": [],
      "isFixedGasLimit": false
    }
  ],
  "receipts": [
    {
      "status": "0x1",
      "cumulativeGasUsed": "0x23c41",
      "logs": [],
      "logsBloom": "0x00000000000000000000000000000000000000000000000000000000000000000000000000000000000000000000000000000000000000000000000000000000000000000000000000000000000000000000000000000000000000000000000000000000000000000000000000000000000000000000000000000000000000000000000000000000000000000000000000000000000000000000000000000000000000000000000000000000000000000000000000000000000000000000000000000000000000000000000000000000000000000000000000000000000000000000000000000000000000000000000000000000000000000000000000000000",
      "type": "0x2",
      "transactionHash": "0xd5d472663a8212784c33fb1da8350f8dddc4c3216d7e525687ee48a9aa3750fd",
      "transactionIndex": "0x1",
      "blockHash": "0xf623a51e93e2ca07ccdee52765ddc3ee30f4f59e75ac58d37203544d10bb3e52",
      "blockNumber": "0x55f54fe",
      "gasUsed": "0x23c41",
      "effectiveGasPrice": "0x5f5e100",
      "from": "0x000ef5f21dc574226a06c76aae7060642a30eb74",
      "to": null,
      "contractAddress": "0xda2ed3a92c10d58cdd9f33a69771761ff8aff165",
      "gasUsedForL1": "0x0",
      "l1BlockNumber": "0x696d36"
    }
  ],
  "libraries": [],
  "pending": [],
  "returns": {},
  "timestamp": 1729413377,
  "chain": 421614,
  "commit": "5737486"
}