{
  "transactions": [
    {
      "hash": "0x43b611f83170e3abdc893e7822adc01cc5e118173d01be3e59476a4480fd15d2",
      "transactionType": "CREATE",
      "contractName": "StoryPolicy",
      "contractAddress": "0x88e93946c347ea74938b33c3dc185c1d84ae3d18",
      "function": null,
      "arguments": null,
      "transaction": {
        "from": "0x000ef5f21dc574226a06c76aae7060642a30eb74",
        "gas": "0x2edd7",
        "value": "0x0",
        "input": "0x608060405234801561001057600080fd5b506101b0806100206000396000f3fe608060405234801561001057600080fd5b506004361061004c5760003560e01c80634dbda6a8146100515780635391a5b314610051578063611241d014610081578063a33b9c57146100a4575b600080fd5b61006461005f3660046100f1565b6100c6565b6040516001600160a01b0390911681526020015b60405180910390f35b61009461008f366004610113565b6100cf565b6040519015158152602001610078565b6100b86100b2366004610161565b50600090565b604051908152602001610078565b60005b92915050565b60008263ffffffff16619d7b036100e8575060016100c9565b50600092915050565b6000806040838503121561010457600080fd5b50508035926020909101359150565b6000806040838503121561012657600080fd5b823563ffffffff8116811461013a57600080fd5b915060208301356001600160a01b038116811461015657600080fd5b809150509250929050565b60006020828403121561017357600080fd5b503591905056fea26469706673582212203fc6a69a8296952814b1afc07c568d076a723d28b660fda37a756aa54bfcd35064736f6c63430008160033",
        "nonce": "0x7d",
        "chainId": "0x66eee"
      },
      "additionalContracts": [],
      "isFixedGasLimit": false
    },
    {
      "hash": "0xbb7b22696f29e4373450d9dac019823378cb2835dfc29c63f09223de212769b5",
      "transactionType": "CALL",
      "contractName": null,
      "contractAddress": "0x35698b8cfcfdec9ab873c4c18e5e4af1249dd775",
      "function": "createVault(string,address,address)",
      "arguments": [
        "TEST",
        "0x88E93946C347ea74938b33c3DC185C1d84ae3d18",
        "0x0000000000000000000000000000000000000000"
      ],
      "transaction": {
        "from": "0x000ef5f21dc574226a06c76aae7060642a30eb74",
        "to": "0x35698b8cfcfdec9ab873c4c18e5e4af1249dd775",
        "gas": "0x3c340f",
        "value": "0x0",
        "input": "0x522bfa11000000000000000000000000000000000000000000000000000000000000006000000000000000000000000088e93946c347ea74938b33c3dc185c1d84ae3d18000000000000000000000000000000000000000000000000000000000000000000000000000000000000000000000000000000000000000000000000000000045445535400000000000000000000000000000000000000000000000000000000",
        "nonce": "0x7e",
        "chainId": "0x66eee"
      },
      "additionalContracts": [],
      "isFixedGasLimit": false
    },
    {
      "hash": "0xd52b9120916970fb52dcf85d3673e936288b9cffed3c22a4cccf4e5b62f509e9",
      "transactionType": "CALL",
      "contractName": "QuarkHubChainAccount",
      "contractAddress": "0xd1c2478a3b9164c43ea23c10f0b94493347297d3",
      "function": "requestNewSpokeChain(uint256,uint256)",
      "arguments": [
        "1",
        "1513"
      ],
      "transaction": {
        "from": "0x000ef5f21dc574226a06c76aae7060642a30eb74",
        "to": "0xd1c2478a3b9164c43ea23c10f0b94493347297d3",
        "gas": "0x6d4a",
        "value": "0x16345785d8a0000",
        "input": "0x3ad8771f000000000000000000000000000000000000000000000000000000000000000100000000000000000000000000000000000000000000000000000000000005e9",
        "nonce": "0x7f",
        "chainId": "0x66eee"
      },
      "additionalContracts": [],
      "isFixedGasLimit": false
    }
  ],
  "receipts": [
    {
      "status": "0x1",
      "cumulativeGasUsed": "0x23c41",
      "logs": [],
      "logsBloom": "0x00000000000000000000000000000000000000000000000000000000000000000000000000000000000000000000000000000000000000000000000000000000000000000000000000000000000000000000000000000000000000000000000000000000000000000000000000000000000000000000000000000000000000000000000000000000000000000000000000000000000000000000000000000000000000000000000000000000000000000000000000000000000000000000000000000000000000000000000000000000000000000000000000000000000000000000000000000000000000000000000000000000000000000000000000000000",
      "type": "0x2",
      "transactionHash": "0x43b611f83170e3abdc893e7822adc01cc5e118173d01be3e59476a4480fd15d2",
      "transactionIndex": "0x1",
      "blockHash": "0x20c784c39086ab405a5bcbcbeefcdbb0868d7f253889932840c6fa3addfa885a",
      "blockNumber": "0x55f4914",
      "gasUsed": "0x23c41",
      "effectiveGasPrice": "0x5f5e100",
      "from": "0x000ef5f21dc574226a06c76aae7060642a30eb74",
      "to": null,
      "contractAddress": "0x88e93946c347ea74938b33c3dc185c1d84ae3d18",
      "gasUsedForL1": "0x0",
      "l1BlockNumber": "0x696cec"
    },
    {
      "status": "0x1",
      "cumulativeGasUsed": "0x2ded8e",
      "logs": [
        {
          "address": "0x35698b8cfcfdec9ab873c4c18e5e4af1249dd775",
          "topics": [
            "0xddf252ad1be2c89b69c2b068fc378daa952ba7f163c4a11628f55a4df523b3ef",
            "0x0000000000000000000000000000000000000000000000000000000000000000",
            "0x00000000000000000000000035698b8cfcfdec9ab873c4c18e5e4af1249dd775",
            "0x0000000000000000000000000000000000000000000000000000000000000001"
          ],
          "data": "0x",
          "blockHash": "0xd1225ebd2ddf24a68927f326a9c0117dae7074c41d9cee6edb304655f6a2871b",
          "blockNumber": "0x55f4915",
          "transactionHash": "0xbb7b22696f29e4373450d9dac019823378cb2835dfc29c63f09223de212769b5",
          "transactionIndex": "0x1",
          "logIndex": "0x0",
          "removed": false
        },
        {
          "address": "0xd1c2478a3b9164c43ea23c10f0b94493347297d3",
          "topics": [
            "0x8be0079c531659141344cd1fd0a4f28419497f9722a3daafe3b4186f6b6457e0",
            "0x0000000000000000000000000000000000000000000000000000000000000000",
            "0x000000000000000000000000000ef5f21dc574226a06c76aae7060642a30eb74"
          ],
          "data": "0x",
          "blockHash": "0xd1225ebd2ddf24a68927f326a9c0117dae7074c41d9cee6edb304655f6a2871b",
          "blockNumber": "0x55f4915",
          "transactionHash": "0xbb7b22696f29e4373450d9dac019823378cb2835dfc29c63f09223de212769b5",
          "transactionIndex": "0x1",
          "logIndex": "0x1",
          "removed": false
        },
        {
          "address": "0x6edce65403992e310a62460808c4b910d972f10f",
          "topics": [
            "0x6ee10e9ed4d6ce9742703a498707862f4b00f1396a87195eb93267b3d7983981"
          ],
          "data": "0x000000000000000000000000d1c2478a3b9164c43ea23c10f0b94493347297d3000000000000000000000000000ef5f21dc574226a06c76aae7060642a30eb74",
          "blockHash": "0xd1225ebd2ddf24a68927f326a9c0117dae7074c41d9cee6edb304655f6a2871b",
          "blockNumber": "0x55f4915",
          "transactionHash": "0xbb7b22696f29e4373450d9dac019823378cb2835dfc29c63f09223de212769b5",
          "transactionIndex": "0x1",
          "logIndex": "0x2",
          "removed": false
        },
        {
          "address": "0xd1c2478a3b9164c43ea23c10f0b94493347297d3",
          "topics": [
            "0x3cd5ec01b1ae7cfec6ca1863e2cd6aa25d6d1702825803ff2b7cc95010fffdc2",
            "0x00000000000000000000000035698b8cfcfdec9ab873c4c18e5e4af1249dd775",
            "0x00000000000000000000000095b55020f9ad8705f7d7d9a3827d664813473d96"
          ],
          "data": "0x",
          "blockHash": "0xd1225ebd2ddf24a68927f326a9c0117dae7074c41d9cee6edb304655f6a2871b",
          "blockNumber": "0x55f4915",
          "transactionHash": "0xbb7b22696f29e4373450d9dac019823378cb2835dfc29c63f09223de212769b5",
          "transactionIndex": "0x1",
          "logIndex": "0x3",
          "removed": false
        },
        {
          "address": "0x35698b8cfcfdec9ab873c4c18e5e4af1249dd775",
          "topics": [
            "0xddf252ad1be2c89b69c2b068fc378daa952ba7f163c4a11628f55a4df523b3ef",
            "0x00000000000000000000000035698b8cfcfdec9ab873c4c18e5e4af1249dd775",
            "0x000000000000000000000000000ef5f21dc574226a06c76aae7060642a30eb74",
            "0x0000000000000000000000000000000000000000000000000000000000000001"
          ],
          "data": "0x",
          "blockHash": "0xd1225ebd2ddf24a68927f326a9c0117dae7074c41d9cee6edb304655f6a2871b",
          "blockNumber": "0x55f4915",
          "transactionHash": "0xbb7b22696f29e4373450d9dac019823378cb2835dfc29c63f09223de212769b5",
          "transactionIndex": "0x1",
          "logIndex": "0x4",
          "removed": false
        },
        {
          "address": "0x35698b8cfcfdec9ab873c4c18e5e4af1249dd775",
          "topics": [
            "0x019b61d9140f8784f4eed1e66569335630452af2d974ceb13d3e706c07867296",
            "0x000000000000000000000000000ef5f21dc574226a06c76aae7060642a30eb74",
            "0x0000000000000000000000000000000000000000000000000000000000000001",
            "0x000000000000000000000000d1c2478a3b9164c43ea23c10f0b94493347297d3"
          ],
          "data": "0x",
          "blockHash": "0xd1225ebd2ddf24a68927f326a9c0117dae7074c41d9cee6edb304655f6a2871b",
          "blockNumber": "0x55f4915",
          "transactionHash": "0xbb7b22696f29e4373450d9dac019823378cb2835dfc29c63f09223de212769b5",
          "transactionIndex": "0x1",
          "logIndex": "0x5",
          "removed": false
        }
      ],
      "logsBloom": "0x000000000000000000000000000000000000000000000000008000000000000000000000200a0000200000000000000000000002000000000000000000040000000004000000000000000008000000000001000040040000000000010000000000000000020000000200000400000800000000000400000000000010000000400800000000000020000000000020000000000000040000000000000000000000040000001000000000000018000000000000000000000000000004000000000400000002000200000000000000000080000000000000000004000000040060000100000008000000000000000000000000000000200000000000000000020000",
      "type": "0x2",
      "transactionHash": "0xbb7b22696f29e4373450d9dac019823378cb2835dfc29c63f09223de212769b5",
      "transactionIndex": "0x1",
      "blockHash": "0xd1225ebd2ddf24a68927f326a9c0117dae7074c41d9cee6edb304655f6a2871b",
      "blockNumber": "0x55f4915",
      "gasUsed": "0x2ded8e",
      "effectiveGasPrice": "0x5f5e100",
      "from": "0x000ef5f21dc574226a06c76aae7060642a30eb74",
      "to": "0x35698b8cfcfdec9ab873c4c18e5e4af1249dd775",
      "contractAddress": null,
      "gasUsedForL1": "0x0",
      "l1BlockNumber": "0x696cec"
    },
    {
      "status": "0x1",
      "cumulativeGasUsed": "0x9fcde",
      "logs": [
        {
          "address": "0x4f7cd4da19abb31b0ec98b9066b9e857b1bf9c0e",
          "topics": [
            "0x61ed099e74a97a1d7f8bb0952a88ca8b7b8ebd00c126ea04671f92a81213318a"
          ],
          "data": "0x0000000000000000000000005df3a1cebbd9c8ba7f8df51fd632a9aef830889700000000000000000000000000000000000000000000000000005638c9b412fa",
          "blockHash": "0x528826111112757230c5746315c46bbdb3039fcc0e76b3d969a1a2abf2b0bdbf",
          "blockNumber": "0x55f4918",
          "transactionHash": "0xd52b9120916970fb52dcf85d3673e936288b9cffed3c22a4cccf4e5b62f509e9",
          "transactionIndex": "0x3",
          "logIndex": "0x3",
          "removed": false
        },
        {
          "address": "0x4f7cd4da19abb31b0ec98b9066b9e857b1bf9c0e",
          "topics": [
            "0x07ea52d82345d6e838192107d8fd7123d9c2ec8e916cd0aad13fd2b60db24644"
          ],
          "data": "0x000000000000000000000000000000000000000000000000000000000000006000000000000000000000000000000000000000000000000000000000000000a000000000000000000000000000000000000000000000000000000000000000c0000000000000000000000000000000000000000000000000000000000000000100000000000000000000000053f488e93b4f1b60e8e83aa374dbe1780a1ee8a800000000000000000000000000000000000000000000000000000000000000000000000000000000000000000000000000000000000000000000000000000001000000000000000000000000000000000000000000000000000003e7d5813890",
          "blockHash": "0x528826111112757230c5746315c46bbdb3039fcc0e76b3d969a1a2abf2b0bdbf",
          "blockNumber": "0x55f4918",
          "transactionHash": "0xd52b9120916970fb52dcf85d3673e936288b9cffed3c22a4cccf4e5b62f509e9",
          "transactionIndex": "0x3",
          "logIndex": "0x4",
          "removed": false
        },
        {
          "address": "0x6edce65403992e310a62460808c4b910d972f10f",
          "topics": [
            "0x1ab700d4ced0c005b164c0f789fd09fcbb0156d4c2041b8a3bfbcd961cd1567f"
          ],
          "data": "0x000000000000000000000000000000000000000000000000000000000000006000000000000000000000000000000000000000000000000000000000000001400000000000000000000000004f7cd4da19abb31b0ec98b9066b9e857b1bf9c0e00000000000000000000000000000000000000000000000000000000000000b101000000000000000200009d2700000000000000000000000035698b8cfcfdec9ab873c4c18e5e4af1249dd77500009d7b0000000000000000000000000fee4c356deef6567e95b6394420583ca1d1feea8049783b2abc25671dc540bbcc77e3bef1340071f31eb5f2ec77c81c25ff6b60000000000000000000000000d1c2478a3b9164c43ea23c10f0b94493347297d300000000000000000000000000000000000000000000000000000000000000010000000000000000000000000000000000000000000000000000000000000000000000000000000000000000000026000301002101000000000000000000000000004c4b400000000000000000002386f26fc100000000000000000000000000000000000000000000000000000000",
          "blockHash": "0x528826111112757230c5746315c46bbdb3039fcc0e76b3d969a1a2abf2b0bdbf",
          "blockNumber": "0x55f4918",
          "transactionHash": "0xd52b9120916970fb52dcf85d3673e936288b9cffed3c22a4cccf4e5b62f509e9",
          "transactionIndex": "0x3",
          "logIndex": "0x5",
          "removed": false
        },
        {
          "address": "0x35698b8cfcfdec9ab873c4c18e5e4af1249dd775",
          "topics": [
            "0x2d4dbc7a27a00b43846712fae107e2b01f7bcf769790c313c21214f5c036730c",
            "0x0000000000000000000000000000000000000000000000000000000000000001"
          ],
          "data": "0x00000000000000000000000000000000000000000000000000000000000005e90000000000000000000000000000000000000000000000000000000000000002",
          "blockHash": "0x528826111112757230c5746315c46bbdb3039fcc0e76b3d969a1a2abf2b0bdbf",
          "blockNumber": "0x55f4918",
          "transactionHash": "0xd52b9120916970fb52dcf85d3673e936288b9cffed3c22a4cccf4e5b62f509e9",
          "transactionIndex": "0x3",
          "logIndex": "0x6",
          "removed": false
        }
      ],
      "logsBloom": "0x00000000000000002000000000000000010000000000000000000040000000000000000000000000200000000000000000000000008000000000000000040000000000000000000000000000000000000000000000040000000000000000000000000000000000008200000000000000000000000400000000000000000000000000000000000020000000080000000000000000040000010000000000000000000000008000000000102000000000000000000000400000000444000000000000000000000000000000000000000000000000000000000000000000000040000000040000000000000000000000002000000000000000000000000000000000",
      "type": "0x2",
      "transactionHash": "0xd52b9120916970fb52dcf85d3673e936288b9cffed3c22a4cccf4e5b62f509e9",
      "transactionIndex": "0x3",
      "blockHash": "0x528826111112757230c5746315c46bbdb3039fcc0e76b3d969a1a2abf2b0bdbf",
      "blockNumber": "0x55f4918",
      "gasUsed": "0x39bee",
      "effectiveGasPrice": "0x5f5e100",
      "from": "0x000ef5f21dc574226a06c76aae7060642a30eb74",
      "to": "0xd1c2478a3b9164c43ea23c10f0b94493347297d3",
      "contractAddress": null,
      "gasUsedForL1": "0x0",
      "l1BlockNumber": "0x696cec"
    }
  ],
  "libraries": [],
  "pending": [],
  "returns": {},
  "timestamp": 1729412318,
  "chain": 421614,
  "commit": "5737486"
}