{
  "transactions": [
    {
      "hash": "0x59b90784ecd494df84ae5e81c3ba017cd6dd8abfd725d73faff4c7b9bf21824d",
      "transactionType": "CREATE",
      "contractName": "StoryPolicy",
      "contractAddress": "0xb05972f1193c2f5f3d031370c21a3d4db06cb95e",
      "function": null,
      "arguments": null,
      "transaction": {
        "from": "0x000ef5f21dc574226a06c76aae7060642a30eb74",
        "gas": "0x2edd7",
        "value": "0x0",
        "input": "0x608060405234801561001057600080fd5b506101b0806100206000396000f3fe608060405234801561001057600080fd5b506004361061004c5760003560e01c80634dbda6a8146100515780635391a5b314610051578063611241d014610081578063a33b9c57146100a4575b600080fd5b61006461005f3660046100f1565b6100c6565b6040516001600160a01b0390911681526020015b60405180910390f35b61009461008f366004610113565b6100cf565b6040519015158152602001610078565b6100b86100b2366004610161565b50600090565b604051908152602001610078565b60005b92915050565b60008263ffffffff16619d7b036100e8575060016100c9565b50600092915050565b6000806040838503121561010457600080fd5b50508035926020909101359150565b6000806040838503121561012657600080fd5b823563ffffffff8116811461013a57600080fd5b915060208301356001600160a01b038116811461015657600080fd5b809150509250929050565b60006020828403121561017357600080fd5b503591905056fea26469706673582212203fc6a69a8296952814b1afc07c568d076a723d28b660fda37a756aa54bfcd35064736f6c63430008160033",
        "nonce": "0x8c",
        "chainId": "0x66eee"
      },
      "additionalContracts": [],
      "isFixedGasLimit": false
    },
    {
      "hash": "0xc797704a4d052e3d78fc0b315e5e0776e1db0d6a49c1229b0315bc138345dadb",
      "transactionType": "CALL",
      "contractName": null,
      "contractAddress": "0x1129200518c3e3a99fd3ec5ffb93a0b66ffbd991",
      "function": "createVault(string,address,address)",
      "arguments": [
        "TEST",
        "0xB05972f1193C2F5F3d031370c21a3d4DB06Cb95E",
        "0x0000000000000000000000000000000000000000"
      ],
      "transaction": {
        "from": "0x000ef5f21dc574226a06c76aae7060642a30eb74",
        "to": "0x1129200518c3e3a99fd3ec5ffb93a0b66ffbd991",
        "gas": "0x3ce30f",
        "value": "0x0",
        "input": "0x522bfa110000000000000000000000000000000000000000000000000000000000000060000000000000000000000000b05972f1193c2f5f3d031370c21a3d4db06cb95e000000000000000000000000000000000000000000000000000000000000000000000000000000000000000000000000000000000000000000000000000000045445535400000000000000000000000000000000000000000000000000000000",
        "nonce": "0x8d",
        "chainId": "0x66eee"
      },
      "additionalContracts": [],
      "isFixedGasLimit": false
    },
    {
      "hash": "0x09bb4527a5cb8f78e27654d3aae342369b32a59da7ba40f635d78972afbfd088",
      "transactionType": "CALL",
      "contractName": "QuarkHubChainAccount",
      "contractAddress": "0xec0fba2790f5272d78a93cfee9a3a669239ab8e3",
      "function": "requestNewSpokeChain(uint256,uint256)",
      "arguments": [
        "0",
        "1513"
      ],
      "transaction": {
        "from": "0x000ef5f21dc574226a06c76aae7060642a30eb74",
        "to": "0xec0fba2790f5272d78a93cfee9a3a669239ab8e3",
        "gas": "0x6d3b",
        "value": "0x16345785d8a0000",
        "input": "0x3ad8771f000000000000000000000000000000000000000000000000000000000000000000000000000000000000000000000000000000000000000000000000000005e9",
        "nonce": "0x8e",
        "chainId": "0x66eee"
      },
      "additionalContracts": [],
      "isFixedGasLimit": false
    }
  ],
  "receipts": [
    {
      "status": "0x1",
      "cumulativeGasUsed": "0x23c41",
      "logs": [],
      "logsBloom": "0x00000000000000000000000000000000000000000000000000000000000000000000000000000000000000000000000000000000000000000000000000000000000000000000000000000000000000000000000000000000000000000000000000000000000000000000000000000000000000000000000000000000000000000000000000000000000000000000000000000000000000000000000000000000000000000000000000000000000000000000000000000000000000000000000000000000000000000000000000000000000000000000000000000000000000000000000000000000000000000000000000000000000000000000000000000000",
      "type": "0x2",
      "transactionHash": "0x59b90784ecd494df84ae5e81c3ba017cd6dd8abfd725d73faff4c7b9bf21824d",
      "transactionIndex": "0x1",
      "blockHash": "0x0c4a1fab05b78a31f48075c034520e690510ed9abc968b5d064d34f4ef57c1de",
      "blockNumber": "0x55f553a",
      "gasUsed": "0x23c41",
      "effectiveGasPrice": "0x5f5e100",
      "from": "0x000ef5f21dc574226a06c76aae7060642a30eb74",
      "to": null,
      "contractAddress": "0xb05972f1193c2f5f3d031370c21a3d4db06cb95e",
      "gasUsedForL1": "0x0",
      "l1BlockNumber": "0x696d38"
    },
    {
      "status": "0x1",
      "cumulativeGasUsed": "0x30683d",
      "logs": [
        {
          "address": "0x1129200518c3e3a99fd3ec5ffb93a0b66ffbd991",
          "topics": [
            "0xddf252ad1be2c89b69c2b068fc378daa952ba7f163c4a11628f55a4df523b3ef",
            "0x0000000000000000000000000000000000000000000000000000000000000000",
            "0x0000000000000000000000001129200518c3e3a99fd3ec5ffb93a0b66ffbd991",
            "0x0000000000000000000000000000000000000000000000000000000000000000"
          ],
          "data": "0x",
          "blockHash": "0x983bf62f7dd12dc46e1aa04d96f12fdd145dc56ba1d33e2dd71829e258781886",
          "blockNumber": "0x55f553d",
          "transactionHash": "0xc797704a4d052e3d78fc0b315e5e0776e1db0d6a49c1229b0315bc138345dadb",
          "transactionIndex": "0x2",
          "logIndex": "0x3",
          "removed": false
        },
        {
          "address": "0xec0fba2790f5272d78a93cfee9a3a669239ab8e3",
          "topics": [
            "0x8be0079c531659141344cd1fd0a4f28419497f9722a3daafe3b4186f6b6457e0",
            "0x0000000000000000000000000000000000000000000000000000000000000000",
            "0x000000000000000000000000000ef5f21dc574226a06c76aae7060642a30eb74"
          ],
          "data": "0x",
          "blockHash": "0x983bf62f7dd12dc46e1aa04d96f12fdd145dc56ba1d33e2dd71829e258781886",
          "blockNumber": "0x55f553d",
          "transactionHash": "0xc797704a4d052e3d78fc0b315e5e0776e1db0d6a49c1229b0315bc138345dadb",
          "transactionIndex": "0x2",
          "logIndex": "0x4",
          "removed": false
        },
        {
          "address": "0x6edce65403992e310a62460808c4b910d972f10f",
          "topics": [
            "0x6ee10e9ed4d6ce9742703a498707862f4b00f1396a87195eb93267b3d7983981"
          ],
          "data": "0x000000000000000000000000ec0fba2790f5272d78a93cfee9a3a669239ab8e3000000000000000000000000000ef5f21dc574226a06c76aae7060642a30eb74",
          "blockHash": "0x983bf62f7dd12dc46e1aa04d96f12fdd145dc56ba1d33e2dd71829e258781886",
          "blockNumber": "0x55f553d",
          "transactionHash": "0xc797704a4d052e3d78fc0b315e5e0776e1db0d6a49c1229b0315bc138345dadb",
          "transactionIndex": "0x2",
          "logIndex": "0x5",
          "removed": false
        },
        {
          "address": "0xec0fba2790f5272d78a93cfee9a3a669239ab8e3",
          "topics": [
            "0x3cd5ec01b1ae7cfec6ca1863e2cd6aa25d6d1702825803ff2b7cc95010fffdc2",
            "0x0000000000000000000000001129200518c3e3a99fd3ec5ffb93a0b66ffbd991",
            "0x0000000000000000000000001c17c155aed95663dd7cf470c472b8b68a0d9f1e"
          ],
          "data": "0x",
          "blockHash": "0x983bf62f7dd12dc46e1aa04d96f12fdd145dc56ba1d33e2dd71829e258781886",
          "blockNumber": "0x55f553d",
          "transactionHash": "0xc797704a4d052e3d78fc0b315e5e0776e1db0d6a49c1229b0315bc138345dadb",
          "transactionIndex": "0x2",
          "logIndex": "0x6",
          "removed": false
        },
        {
          "address": "0x1129200518c3e3a99fd3ec5ffb93a0b66ffbd991",
          "topics": [
            "0xddf252ad1be2c89b69c2b068fc378daa952ba7f163c4a11628f55a4df523b3ef",
            "0x0000000000000000000000001129200518c3e3a99fd3ec5ffb93a0b66ffbd991",
            "0x000000000000000000000000000ef5f21dc574226a06c76aae7060642a30eb74",
            "0x0000000000000000000000000000000000000000000000000000000000000000"
          ],
          "data": "0x",
          "blockHash": "0x983bf62f7dd12dc46e1aa04d96f12fdd145dc56ba1d33e2dd71829e258781886",
          "blockNumber": "0x55f553d",
          "transactionHash": "0xc797704a4d052e3d78fc0b315e5e0776e1db0d6a49c1229b0315bc138345dadb",
          "transactionIndex": "0x2",
          "logIndex": "0x7",
          "removed": false
        },
        {
          "address": "0x1129200518c3e3a99fd3ec5ffb93a0b66ffbd991",
          "topics": [
            "0x019b61d9140f8784f4eed1e66569335630452af2d974ceb13d3e706c07867296",
            "0x000000000000000000000000000ef5f21dc574226a06c76aae7060642a30eb74",
            "0x0000000000000000000000000000000000000000000000000000000000000000",
            "0x000000000000000000000000ec0fba2790f5272d78a93cfee9a3a669239ab8e3"
          ],
          "data": "0x",
          "blockHash": "0x983bf62f7dd12dc46e1aa04d96f12fdd145dc56ba1d33e2dd71829e258781886",
          "blockNumber": "0x55f553d",
          "transactionHash": "0xc797704a4d052e3d78fc0b315e5e0776e1db0d6a49c1229b0315bc138345dadb",
          "transactionIndex": "0x2",
          "logIndex": "0x8",
          "removed": false
        }
      ],
      "logsBloom": "0x00000000000000000000000000000000000000000002000000800000000000000000000000020000200000000000000000000002000000400000000000000000000004000004000000000008000008001001000040000000000000000000000000000010020000000200000400000800000000000000000000000010000000400000000000000020000000000020000000000000000000000000020800000000100000000000000000080008000000000000000000000000000000000000000400000002000000000000000000000200000000000000008004000000040020000100000000000000000400040000000000000000000080000000000000000000",
      "type": "0x2",
      "transactionHash": "0xc797704a4d052e3d78fc0b315e5e0776e1db0d6a49c1229b0315bc138345dadb",
      "transactionIndex": "0x2",
      "blockHash": "0x983bf62f7dd12dc46e1aa04d96f12fdd145dc56ba1d33e2dd71829e258781886",
      "blockNumber": "0x55f553d",
      "gasUsed": "0x2e731d",
      "effectiveGasPrice": "0x5f5e100",
      "from": "0x000ef5f21dc574226a06c76aae7060642a30eb74",
      "to": "0x1129200518c3e3a99fd3ec5ffb93a0b66ffbd991",
      "contractAddress": null,
      "gasUsedForL1": "0x0",
      "l1BlockNumber": "0x696d38"
    },
    {
      "status": "0x1",
      "cumulativeGasUsed": "0xb1be4",
      "logs": [
        {
          "address": "0x4f7cd4da19abb31b0ec98b9066b9e857b1bf9c0e",
          "topics": [
            "0x61ed099e74a97a1d7f8bb0952a88ca8b7b8ebd00c126ea04671f92a81213318a"
          ],
          "data": "0x0000000000000000000000005df3a1cebbd9c8ba7f8df51fd632a9aef830889700000000000000000000000000000000000000000000000000005079aaa72014",
          "blockHash": "0x17aa0671f443ce7c6affa795ae5733253d46c041587ec4c4f9ec162d293f1402",
          "blockNumber": "0x55f553f",
          "transactionHash": "0x09bb4527a5cb8f78e27654d3aae342369b32a59da7ba40f635d78972afbfd088",
          "transactionIndex": "0x4",
          "logIndex": "0x4",
          "removed": false
        },
        {
          "address": "0x4f7cd4da19abb31b0ec98b9066b9e857b1bf9c0e",
          "topics": [
            "0x07ea52d82345d6e838192107d8fd7123d9c2ec8e916cd0aad13fd2b60db24644"
          ],
          "data": "0x000000000000000000000000000000000000000000000000000000000000006000000000000000000000000000000000000000000000000000000000000000a000000000000000000000000000000000000000000000000000000000000000c0000000000000000000000000000000000000000000000000000000000000000100000000000000000000000053f488e93b4f1b60e8e83aa374dbe1780a1ee8a800000000000000000000000000000000000000000000000000000000000000000000000000000000000000000000000000000000000000000000000000000001000000000000000000000000000000000000000000000000000003e7d5813890",
          "blockHash": "0x17aa0671f443ce7c6affa795ae5733253d46c041587ec4c4f9ec162d293f1402",
          "blockNumber": "0x55f553f",
          "transactionHash": "0x09bb4527a5cb8f78e27654d3aae342369b32a59da7ba40f635d78972afbfd088",
          "transactionIndex": "0x4",
          "logIndex": "0x5",
          "removed": false
        },
        {
          "address": "0x6edce65403992e310a62460808c4b910d972f10f",
          "topics": [
            "0x1ab700d4ced0c005b164c0f789fd09fcbb0156d4c2041b8a3bfbcd961cd1567f"
          ],
          "data": "0x000000000000000000000000000000000000000000000000000000000000006000000000000000000000000000000000000000000000000000000000000001400000000000000000000000004f7cd4da19abb31b0ec98b9066b9e857b1bf9c0e00000000000000000000000000000000000000000000000000000000000000b101000000000000000100009d270000000000000000000000001129200518c3e3a99fd3ec5ffb93a0b66ffbd99100009d7b0000000000000000000000007ab14fbc0d7790c78a48afe5ae99f6ef27c390d5660497f2e466f4fa1bc39b72c1bc26afd99d5c0f8850267d25031bd929bc36e2000000000000000000000000ec0fba2790f5272d78a93cfee9a3a669239ab8e300000000000000000000000000000000000000000000000000000000000000000000000000000000000000000000000000000000000000000000000000000000000000000000000000000000000026000301002101000000000000000000000000002dc6c00000000000000000000009184e72a0000000000000000000000000000000000000000000000000000000",
          "blockHash": "0x17aa0671f443ce7c6affa795ae5733253d46c041587ec4c4f9ec162d293f1402",
          "blockNumber": "0x55f553f",
          "transactionHash": "0x09bb4527a5cb8f78e27654d3aae342369b32a59da7ba40f635d78972afbfd088",
          "transactionIndex": "0x4",
          "logIndex": "0x6",
          "removed": false
        },
        {
          "address": "0x1129200518c3e3a99fd3ec5ffb93a0b66ffbd991",
          "topics": [
            "0x2d4dbc7a27a00b43846712fae107e2b01f7bcf769790c313c21214f5c036730c",
            "0x0000000000000000000000000000000000000000000000000000000000000000"
          ],
          "data": "0x00000000000000000000000000000000000000000000000000000000000005e90000000000000000000000000000000000000000000000000000000000000001",
          "blockHash": "0x17aa0671f443ce7c6affa795ae5733253d46c041587ec4c4f9ec162d293f1402",
          "blockNumber": "0x55f553f",
          "transactionHash": "0x09bb4527a5cb8f78e27654d3aae342369b32a59da7ba40f635d78972afbfd088",
          "transactionIndex": "0x4",
          "logIndex": "0x7",
          "removed": false
        }
      ],
      "logsBloom": "0x00000000000000002000000000000000010000000000000000000040000000000000000000000000200000000000000000000000008000000000000000000000000000000000000000000000000000000000000000000000000000000000000000000010020000008200000000000800000000000000000000000000000000000000000000000020000000080000000000000000000000010000000000000000000000008000000000182000000000000000000000400000000440000000000000000000000000000000000000000000000000000000000000000000000020000000040000000000000000040000002000000000000000000000000000000000",
      "type": "0x2",
      "transactionHash": "0x09bb4527a5cb8f78e27654d3aae342369b32a59da7ba40f635d78972afbfd088",
      "transactionIndex": "0x4",
      "blockHash": "0x17aa0671f443ce7c6affa795ae5733253d46c041587ec4c4f9ec162d293f1402",
      "blockNumber": "0x55f553f",
      "gasUsed": "0x3deae",
      "effectiveGasPrice": "0x5f5e100",
      "from": "0x000ef5f21dc574226a06c76aae7060642a30eb74",
      "to": "0xec0fba2790f5272d78a93cfee9a3a669239ab8e3",
      "contractAddress": null,
      "gasUsedForL1": "0x0",
      "l1BlockNumber": "0x696d38"
    }
  ],
  "libraries": [],
  "pending": [],
  "returns": {},
  "timestamp": 1729413396,
  "chain": 421614,
  "commit": "5737486"
}