{
  "transactions": [
    {
      "hash": "0x61ff3c6c9e049a82abe853cbc22fef6dc05cd845b84fc21460fe3c4ee2b7daae",
      "transactionType": "CREATE",
      "contractName": "StoryPolicy",
      "contractAddress": "0x3ce22d98795c84973f152afdb12578606254cc31",
      "function": null,
      "arguments": null,
      "transaction": {
        "from": "0x000ef5f21dc574226a06c76aae7060642a30eb74",
        "gas": "0x2edd7",
        "value": "0x0",
        "input": "0x608060405234801561001057600080fd5b506101b0806100206000396000f3fe608060405234801561001057600080fd5b506004361061004c5760003560e01c80634dbda6a8146100515780635391a5b314610051578063611241d014610081578063a33b9c57146100a4575b600080fd5b61006461005f3660046100f1565b6100c6565b6040516001600160a01b0390911681526020015b60405180910390f35b61009461008f366004610113565b6100cf565b6040519015158152602001610078565b6100b86100b2366004610161565b50600090565b604051908152602001610078565b60005b92915050565b60008263ffffffff16619d7b036100e8575060016100c9565b50600092915050565b6000806040838503121561010457600080fd5b50508035926020909101359150565b6000806040838503121561012657600080fd5b823563ffffffff8116811461013a57600080fd5b915060208301356001600160a01b038116811461015657600080fd5b809150509250929050565b60006020828403121561017357600080fd5b503591905056fea26469706673582212203fc6a69a8296952814b1afc07c568d076a723d28b660fda37a756aa54bfcd35064736f6c63430008160033",
        "nonce": "0x84",
        "chainId": "0x66eee"
      },
      "additionalContracts": [],
      "isFixedGasLimit": false
    },
    {
      "hash": "0x6d154872b2a9bd71f2eefe526192da27ac83b350f29b82955427880ca282717f",
      "transactionType": "CALL",
      "contractName": null,
      "contractAddress": "0x67ccd953a5b531a99ab31e9408d18e70ef9d8fb8",
      "function": "createVault(string,address,address)",
      "arguments": [
        "TEST",
        "0x3cE22D98795c84973f152afdB12578606254cC31",
        "0x0000000000000000000000000000000000000000"
      ],
      "transaction": {
        "from": "0x000ef5f21dc574226a06c76aae7060642a30eb74",
        "to": "0x67ccd953a5b531a99ab31e9408d18e70ef9d8fb8",
        "gas": "0x3ce30f",
        "value": "0x0",
        "input": "0x522bfa1100000000000000000000000000000000000000000000000000000000000000600000000000000000000000003ce22d98795c84973f152afdb12578606254cc31000000000000000000000000000000000000000000000000000000000000000000000000000000000000000000000000000000000000000000000000000000045445535400000000000000000000000000000000000000000000000000000000",
        "nonce": "0x85",
        "chainId": "0x66eee"
      },
      "additionalContracts": [],
      "isFixedGasLimit": false
    },
    {
      "hash": "0x11c2c91b8f8ef61ab5375bcf2395fa9f53d232230e5e4ff187a21979a1ba2e0f",
      "transactionType": "CALL",
      "contractName": "QuarkHubChainAccount",
      "contractAddress": "0x6842ab762299082682eaf1c05a541dacee9b91f1",
      "function": "requestNewSpokeChain(uint256,uint256)",
      "arguments": [
        "0",
        "1513"
      ],
      "transaction": {
        "from": "0x000ef5f21dc574226a06c76aae7060642a30eb74",
        "to": "0x6842ab762299082682eaf1c05a541dacee9b91f1",
        "gas": "0x6d3b",
        "value": "0x16345785d8a0000",
        "input": "0x3ad8771f000000000000000000000000000000000000000000000000000000000000000000000000000000000000000000000000000000000000000000000000000005e9",
        "nonce": "0x86",
        "chainId": "0x66eee"
      },
      "additionalContracts": [],
      "isFixedGasLimit": false
    }
  ],
  "receipts": [
    {
      "status": "0x1",
      "cumulativeGasUsed": "0x23c41",
      "logs": [],
      "logsBloom": "0x00000000000000000000000000000000000000000000000000000000000000000000000000000000000000000000000000000000000000000000000000000000000000000000000000000000000000000000000000000000000000000000000000000000000000000000000000000000000000000000000000000000000000000000000000000000000000000000000000000000000000000000000000000000000000000000000000000000000000000000000000000000000000000000000000000000000000000000000000000000000000000000000000000000000000000000000000000000000000000000000000000000000000000000000000000000",
      "type": "0x2",
      "transactionHash": "0x61ff3c6c9e049a82abe853cbc22fef6dc05cd845b84fc21460fe3c4ee2b7daae",
      "transactionIndex": "0x1",
      "blockHash": "0xae39ccd79499d04197e666ca40c68e78c1f01b2ca94eb446ffba2e2c64c19bc0",
      "blockNumber": "0x55f5066",
      "gasUsed": "0x23c41",
      "effectiveGasPrice": "0x5f5e100",
      "from": "0x000ef5f21dc574226a06c76aae7060642a30eb74",
      "to": null,
      "contractAddress": "0x3ce22d98795c84973f152afdb12578606254cc31",
      "gasUsedForL1": "0x0",
      "l1BlockNumber": "0x696d1a"
    },
    {
      "status": "0x1",
      "cumulativeGasUsed": "0x2e731d",
      "logs": [
        {
          "address": "0x67ccd953a5b531a99ab31e9408d18e70ef9d8fb8",
          "topics": [
            "0xddf252ad1be2c89b69c2b068fc378daa952ba7f163c4a11628f55a4df523b3ef",
            "0x0000000000000000000000000000000000000000000000000000000000000000",
            "0x00000000000000000000000067ccd953a5b531a99ab31e9408d18e70ef9d8fb8",
            "0x0000000000000000000000000000000000000000000000000000000000000000"
          ],
          "data": "0x",
          "blockHash": "0x8ef7f471863e7de902b5f5c95ee135d11137b181fdbd58dd36462e3161ca6d73",
          "blockNumber": "0x55f5068",
          "transactionHash": "0x6d154872b2a9bd71f2eefe526192da27ac83b350f29b82955427880ca282717f",
          "transactionIndex": "0x1",
          "logIndex": "0x0",
          "removed": false
        },
        {
          "address": "0x6842ab762299082682eaf1c05a541dacee9b91f1",
          "topics": [
            "0x8be0079c531659141344cd1fd0a4f28419497f9722a3daafe3b4186f6b6457e0",
            "0x0000000000000000000000000000000000000000000000000000000000000000",
            "0x000000000000000000000000000ef5f21dc574226a06c76aae7060642a30eb74"
          ],
          "data": "0x",
          "blockHash": "0x8ef7f471863e7de902b5f5c95ee135d11137b181fdbd58dd36462e3161ca6d73",
          "blockNumber": "0x55f5068",
          "transactionHash": "0x6d154872b2a9bd71f2eefe526192da27ac83b350f29b82955427880ca282717f",
          "transactionIndex": "0x1",
          "logIndex": "0x1",
          "removed": false
        },
        {
          "address": "0x6edce65403992e310a62460808c4b910d972f10f",
          "topics": [
            "0x6ee10e9ed4d6ce9742703a498707862f4b00f1396a87195eb93267b3d7983981"
          ],
          "data": "0x0000000000000000000000006842ab762299082682eaf1c05a541dacee9b91f1000000000000000000000000000ef5f21dc574226a06c76aae7060642a30eb74",
          "blockHash": "0x8ef7f471863e7de902b5f5c95ee135d11137b181fdbd58dd36462e3161ca6d73",
          "blockNumber": "0x55f5068",
          "transactionHash": "0x6d154872b2a9bd71f2eefe526192da27ac83b350f29b82955427880ca282717f",
          "transactionIndex": "0x1",
          "logIndex": "0x2",
          "removed": false
        },
        {
          "address": "0x6842ab762299082682eaf1c05a541dacee9b91f1",
          "topics": [
            "0x3cd5ec01b1ae7cfec6ca1863e2cd6aa25d6d1702825803ff2b7cc95010fffdc2",
            "0x00000000000000000000000067ccd953a5b531a99ab31e9408d18e70ef9d8fb8",
            "0x0000000000000000000000001a397844d3d05d39e18c7c9be647bfb8fd32e85e"
          ],
          "data": "0x",
          "blockHash": "0x8ef7f471863e7de902b5f5c95ee135d11137b181fdbd58dd36462e3161ca6d73",
          "blockNumber": "0x55f5068",
          "transactionHash": "0x6d154872b2a9bd71f2eefe526192da27ac83b350f29b82955427880ca282717f",
          "transactionIndex": "0x1",
          "logIndex": "0x3",
          "removed": false
        },
        {
          "address": "0x67ccd953a5b531a99ab31e9408d18e70ef9d8fb8",
          "topics": [
            "0xddf252ad1be2c89b69c2b068fc378daa952ba7f163c4a11628f55a4df523b3ef",
            "0x00000000000000000000000067ccd953a5b531a99ab31e9408d18e70ef9d8fb8",
            "0x000000000000000000000000000ef5f21dc574226a06c76aae7060642a30eb74",
            "0x0000000000000000000000000000000000000000000000000000000000000000"
          ],
          "data": "0x",
          "blockHash": "0x8ef7f471863e7de902b5f5c95ee135d11137b181fdbd58dd36462e3161ca6d73",
          "blockNumber": "0x55f5068",
          "transactionHash": "0x6d154872b2a9bd71f2eefe526192da27ac83b350f29b82955427880ca282717f",
          "transactionIndex": "0x1",
          "logIndex": "0x4",
          "removed": false
        },
        {
          "address": "0x67ccd953a5b531a99ab31e9408d18e70ef9d8fb8",
          "topics": [
            "0x019b61d9140f8784f4eed1e66569335630452af2d974ceb13d3e706c07867296",
            "0x000000000000000000000000000ef5f21dc574226a06c76aae7060642a30eb74",
            "0x0000000000000000000000000000000000000000000000000000000000000000",
            "0x0000000000000000000000006842ab762299082682eaf1c05a541dacee9b91f1"
          ],
          "data": "0x",
          "blockHash": "0x8ef7f471863e7de902b5f5c95ee135d11137b181fdbd58dd36462e3161ca6d73",
          "blockNumber": "0x55f5068",
          "transactionHash": "0x6d154872b2a9bd71f2eefe526192da27ac83b350f29b82955427880ca282717f",
          "transactionIndex": "0x1",
          "logIndex": "0x5",
          "removed": false
        }
      ],
      "logsBloom": "0x01000000000000002000000000000000000000000000000200800000000000000000000000020000a30000000000000000000002000000000000000000002000000004000000000000000008000000000001000040000000000000000000000008000008020000000280000400000800000000001000002000000010000000400000000000000020000080000020000000000000000000040000000000000000000000000000000000000008000000000400000000000000000000000000000400000002000000000000000000000000000000000000000004000000040020000100000000000000000000000000000000000000000000000000000000000000",
      "type": "0x2",
      "transactionHash": "0x6d154872b2a9bd71f2eefe526192da27ac83b350f29b82955427880ca282717f",
      "transactionIndex": "0x1",
      "blockHash": "0x8ef7f471863e7de902b5f5c95ee135d11137b181fdbd58dd36462e3161ca6d73",
      "blockNumber": "0x55f5068",
      "gasUsed": "0x2e731d",
      "effectiveGasPrice": "0x5f5e100",
      "from": "0x000ef5f21dc574226a06c76aae7060642a30eb74",
      "to": "0x67ccd953a5b531a99ab31e9408d18e70ef9d8fb8",
      "contractAddress": null,
      "gasUsedForL1": "0x0",
      "l1BlockNumber": "0x696d1a"
    },
    {
      "status": "0x1",
      "cumulativeGasUsed": "0x3deae",
      "logs": [
        {
          "address": "0x4f7cd4da19abb31b0ec98b9066b9e857b1bf9c0e",
          "topics": [
            "0x61ed099e74a97a1d7f8bb0952a88ca8b7b8ebd00c126ea04671f92a81213318a"
          ],
          "data": "0x0000000000000000000000005df3a1cebbd9c8ba7f8df51fd632a9aef830889700000000000000000000000000000000000000000000000000005638c9b412fa",
          "blockHash": "0xcebf560c9600daf1eeaaf16d4ee4866461e8703382912b6932552971437d0f88",
          "blockNumber": "0x55f506b",
          "transactionHash": "0x11c2c91b8f8ef61ab5375bcf2395fa9f53d232230e5e4ff187a21979a1ba2e0f",
          "transactionIndex": "0x1",
          "logIndex": "0x0",
          "removed": false
        },
        {
          "address": "0x4f7cd4da19abb31b0ec98b9066b9e857b1bf9c0e",
          "topics": [
            "0x07ea52d82345d6e838192107d8fd7123d9c2ec8e916cd0aad13fd2b60db24644"
          ],
          "data": "0x000000000000000000000000000000000000000000000000000000000000006000000000000000000000000000000000000000000000000000000000000000a000000000000000000000000000000000000000000000000000000000000000c0000000000000000000000000000000000000000000000000000000000000000100000000000000000000000053f488e93b4f1b60e8e83aa374dbe1780a1ee8a800000000000000000000000000000000000000000000000000000000000000000000000000000000000000000000000000000000000000000000000000000001000000000000000000000000000000000000000000000000000003e7d5813890",
          "blockHash": "0xcebf560c9600daf1eeaaf16d4ee4866461e8703382912b6932552971437d0f88",
          "blockNumber": "0x55f506b",
          "transactionHash": "0x11c2c91b8f8ef61ab5375bcf2395fa9f53d232230e5e4ff187a21979a1ba2e0f",
          "transactionIndex": "0x1",
          "logIndex": "0x1",
          "removed": false
        },
        {
          "address": "0x6edce65403992e310a62460808c4b910d972f10f",
          "topics": [
            "0x1ab700d4ced0c005b164c0f789fd09fcbb0156d4c2041b8a3bfbcd961cd1567f"
          ],
          "data": "0x000000000000000000000000000000000000000000000000000000000000006000000000000000000000000000000000000000000000000000000000000001400000000000000000000000004f7cd4da19abb31b0ec98b9066b9e857b1bf9c0e00000000000000000000000000000000000000000000000000000000000000b101000000000000000100009d2700000000000000000000000067ccd953a5b531a99ab31e9408d18e70ef9d8fb800009d7b000000000000000000000000b0744daaf6e84855c3551cdfbcec5892a8892b862d4af405a8bcbdbc858e27ca3fbf753de34c9d0d91886506495edefcd34194210000000000000000000000006842ab762299082682eaf1c05a541dacee9b91f100000000000000000000000000000000000000000000000000000000000000000000000000000000000000000000000000000000000000000000000000000000000000000000000000000000000026000301002101000000000000000000000000004c4b400000000000000000002386f26fc100000000000000000000000000000000000000000000000000000000",
          "blockHash": "0xcebf560c9600daf1eeaaf16d4ee4866461e8703382912b6932552971437d0f88",
          "blockNumber": "0x55f506b",
          "transactionHash": "0x11c2c91b8f8ef61ab5375bcf2395fa9f53d232230e5e4ff187a21979a1ba2e0f",
          "transactionIndex": "0x1",
          "logIndex": "0x2",
          "removed": false
        },
        {
          "address": "0x67ccd953a5b531a99ab31e9408d18e70ef9d8fb8",
          "topics": [
            "0x2d4dbc7a27a00b43846712fae107e2b01f7bcf769790c313c21214f5c036730c",
            "0x0000000000000000000000000000000000000000000000000000000000000000"
          ],
          "data": "0x00000000000000000000000000000000000000000000000000000000000005e90000000000000000000000000000000000000000000000000000000000000001",
          "blockHash": "0xcebf560c9600daf1eeaaf16d4ee4866461e8703382912b6932552971437d0f88",
          "blockNumber": "0x55f506b",
          "transactionHash": "0x11c2c91b8f8ef61ab5375bcf2395fa9f53d232230e5e4ff187a21979a1ba2e0f",
          "transactionIndex": "0x1",
          "logIndex": "0x3",
          "removed": false
        }
      ],
      "logsBloom": "0x00000000000000002000000000000000010000000000000000000040000000000000000000000000a00000000000000000000000008000000000000000000000000000000000000000000000000000000000000000000000000000000000000000000000020000008280000000000800000000000000000000000000000000000000000000000020000000080000000000000000000000010000000000000000000000008000000000102000000000000400000000400000000440000000000000000000000000000000000000000000000000000000000000000000000020000000040000000000000000000000002000000000000000000000000000000000",
      "type": "0x2",
      "transactionHash": "0x11c2c91b8f8ef61ab5375bcf2395fa9f53d232230e5e4ff187a21979a1ba2e0f",
      "transactionIndex": "0x1",
      "blockHash": "0xcebf560c9600daf1eeaaf16d4ee4866461e8703382912b6932552971437d0f88",
      "blockNumber": "0x55f506b",
      "gasUsed": "0x3deae",
      "effectiveGasPrice": "0x5f5e100",
      "from": "0x000ef5f21dc574226a06c76aae7060642a30eb74",
      "to": "0x6842ab762299082682eaf1c05a541dacee9b91f1",
      "contractAddress": null,
      "gasUsedForL1": "0x0",
      "l1BlockNumber": "0x696d1a"
    }
  ],
  "libraries": [],
  "pending": [],
  "returns": {},
  "timestamp": 1729412987,
  "chain": 421614,
  "commit": "5737486"
}